{"abi":[{"type":"constructor","inputs":[],"stateMutability":"nonpayable"},{"type":"function","name":"MAX_SCORE","inputs":[],"outputs":[{"name":"","type":"uint256","internalType":"uint256"}],"stateMutability":"view"},{"type":"function","name":"MIN_SCORE","inputs":[],"outputs":[{"name":"","type":"uint256","internalType":"uint256"}],"stateMutability":"view"},{"type":"function","name":"OUTCOME_COUNT","inputs":[],"outputs":[{"name":"","type":"uint256","internalType":"uint256"}],"stateMutability":"view"},{"type":"function","name":"REQUIRED_JUDGES","inputs":[],"outputs":[{"name":"","type":"uint256","internalType":"uint256"}],"stateMutability":"view"},{"type":"function","name":"_ADMIN_ROLE","inputs":[],"outputs":[{"name":"","type":"uint256","internalType":"uint256"}],"stateMutability":"view"},{"type":"function","name":"_JUDGE_ROLE","inputs":[],"outputs":[{"name":"","type":"uint256","internalType":"uint256"}],"stateMutability":"view"},{"type":"function","name":"cancelOwnershipHandover","inputs":[],"outputs":[],"stateMutability":"payable"},{"type":"function","name":"completeOwnershipHandover","inputs":[{"name":"pendingOwner","type":"address","internalType":"address"}],"outputs":[],"stateMutability":"payable"},{"type":"function","name":"createDebate","inputs":[{"name":"topic","type":"string","internalType":"string"},{"name":"duration","type":"uint256","internalType":"uint256"},{"name":"totalRounds","type":"uint256","internalType":"uint256"},{"name":"judges","type":"address[]","internalType":"address[]"}],"outputs":[{"name":"debateId","type":"uint256","internalType":"uint256"}],"stateMutability":"nonpayable"},{"type":"function","name":"debateCount","inputs":[],"outputs":[{"name":"","type":"uint256","internalType":"uint256"}],"stateMutability":"view"},{"type":"function","name":"debates","inputs":[{"name":"","type":"uint256","internalType":"uint256"}],"outputs":[{"name":"topic","type":"string","internalType":"string"},{"name":"startTime","type":"uint256","internalType":"uint256"},{"name":"duration","type":"uint256","internalType":"uint256"},{"name":"debateEndTime","type":"uint256","internalType":"uint256"},{"name":"currentRound","type":"uint256","internalType":"uint256"},{"name":"totalRounds","type":"uint256","internalType":"uint256"},{"name":"isActive","type":"bool","internalType":"bool"},{"name":"creator","type":"address","internalType":"address"},{"name":"market","type":"address","internalType":"address"},{"name":"finalOutcome","type":"uint256","internalType":"uint256"},{"name":"hasOutcome","type":"bool","internalType":"bool"}],"stateMutability":"view"},{"type":"function","name":"getAllDebates","inputs":[],"outputs":[{"name":"","type":"uint256[]","internalType":"uint256[]"}],"stateMutability":"view"},{"type":"function","name":"getCurrentProbabilities","inputs":[{"name":"debateId","type":"uint256","internalType":"uint256"}],"outputs":[{"name":"","type":"uint256[]","internalType":"uint256[]"}],"stateMutability":"view"},{"type":"function","name":"getDebateDetails","inputs":[{"name":"debateId","type":"uint256","internalType":"uint256"}],"outputs":[{"name":"topic","type":"string","internalType":"string"},{"name":"startTime","type":"uint256","internalType":"uint256"},{"name":"duration","type":"uint256","internalType":"uint256"},{"name":"debateEndTime","type":"uint256","internalType":"uint256"},{"name":"currentRound","type":"uint256","internalType":"uint256"},{"name":"totalRounds","type":"uint256","internalType":"uint256"},{"name":"isActive","type":"bool","internalType":"bool"},{"name":"creator","type":"address","internalType":"address"},{"name":"market","type":"address","internalType":"address"},{"name":"judges","type":"address[]","internalType":"address[]"},{"name":"hasOutcome","type":"bool","internalType":"bool"},{"name":"finalOutcome","type":"uint256","internalType":"uint256"}],"stateMutability":"view"},{"type":"function","name":"getJudgeScores","inputs":[{"name":"debateId","type":"uint256","internalType":"uint256"},{"name":"roundNumber","type":"uint256","internalType":"uint256"},{"name":"judge","type":"address","internalType":"address"}],"outputs":[{"name":"scores","type":"uint256[]","internalType":"uint256[]"}],"stateMutability":"view"},{"type":"function","name":"getRoundInfo","inputs":[{"name":"debateId","type":"uint256","internalType":"uint256"},{"name":"roundNumber","type":"uint256","internalType":"uint256"}],"outputs":[{"name":"isComplete","type":"bool","internalType":"bool"},{"name":"judgeCount","type":"uint256","internalType":"uint256"},{"name":"totalScores","type":"uint256[]","internalType":"uint256[]"},{"name":"startTime","type":"uint256","internalType":"uint256"},{"name":"endTime","type":"uint256","internalType":"uint256"}],"stateMutability":"view"},{"type":"function","name":"grantRoles","inputs":[{"name":"user","type":"address","internalType":"address"},{"name":"roles","type":"uint256","internalType":"uint256"}],"outputs":[],"stateMutability":"payable"},{"type":"function","name":"hasAllRoles","inputs":[{"name":"user","type":"address","internalType":"address"},{"name":"roles","type":"uint256","internalType":"uint256"}],"outputs":[{"name":"","type":"bool","internalType":"bool"}],"stateMutability":"view"},{"type":"function","name":"hasAnyRole","inputs":[{"name":"user","type":"address","internalType":"address"},{"name":"roles","type":"uint256","internalType":"uint256"}],"outputs":[{"name":"","type":"bool","internalType":"bool"}],"stateMutability":"view"},{"type":"function","name":"hasJudgeScored","inputs":[{"name":"debateId","type":"uint256","internalType":"uint256"},{"name":"roundNumber","type":"uint256","internalType":"uint256"},{"name":"judge","type":"address","internalType":"address"}],"outputs":[{"name":"","type":"bool","internalType":"bool"}],"stateMutability":"view"},{"type":"function","name":"owner","inputs":[],"outputs":[{"name":"result","type":"address","internalType":"address"}],"stateMutability":"view"},{"type":"function","name":"ownershipHandoverExpiresAt","inputs":[{"name":"pendingOwner","type":"address","internalType":"address"}],"outputs":[{"name":"result","type":"uint256","internalType":"uint256"}],"stateMutability":"view"},{"type":"function","name":"renounceOwnership","inputs":[],"outputs":[],"stateMutability":"payable"},{"type":"function","name":"renounceRoles","inputs":[{"name":"roles","type":"uint256","internalType":"uint256"}],"outputs":[],"stateMutability":"payable"},{"type":"function","name":"requestOwnershipHandover","inputs":[],"outputs":[],"stateMutability":"payable"},{"type":"function","name":"revokeRoles","inputs":[{"name":"user","type":"address","internalType":"address"},{"name":"roles","type":"uint256","internalType":"uint256"}],"outputs":[],"stateMutability":"payable"},{"type":"function","name":"rolesOf","inputs":[{"name":"user","type":"address","internalType":"address"}],"outputs":[{"name":"roles","type":"uint256","internalType":"uint256"}],"stateMutability":"view"},{"type":"function","name":"scoreRound","inputs":[{"name":"debateId","type":"uint256","internalType":"uint256"},{"name":"roundNumber","type":"uint256","internalType":"uint256"},{"name":"scores","type":"uint256[]","internalType":"uint256[]"}],"outputs":[],"stateMutability":"nonpayable"},{"type":"function","name":"setMarket","inputs":[{"name":"debateId","type":"uint256","internalType":"uint256"},{"name":"_market","type":"address","internalType":"address"}],"outputs":[],"stateMutability":"nonpayable"},{"type":"function","name":"transferOwnership","inputs":[{"name":"newOwner","type":"address","internalType":"address"}],"outputs":[],"stateMutability":"payable"},{"type":"event","name":"DebateCreated","inputs":[{"name":"debateId","type":"uint256","indexed":true,"internalType":"uint256"},{"name":"topic","type":"string","indexed":false,"internalType":"string"},{"name":"duration","type":"uint256","indexed":false,"internalType":"uint256"},{"name":"totalRounds","type":"uint256","indexed":false,"internalType":"uint256"},{"name":"judges","type":"address[]","indexed":false,"internalType":"address[]"}],"anonymous":false},{"type":"event","name":"DebateFinalized","inputs":[{"name":"debateId","type":"uint256","indexed":true,"internalType":"uint256"},{"name":"finalOutcome","type":"uint256","indexed":false,"internalType":"uint256"}],"anonymous":false},{"type":"event","name":"MarketSet","inputs":[{"name":"debateId","type":"uint256","indexed":true,"internalType":"uint256"},{"name":"market","type":"address","indexed":false,"internalType":"address"}],"anonymous":false},{"type":"event","name":"OwnershipHandoverCanceled","inputs":[{"name":"pendingOwner","type":"address","indexed":true,"internalType":"address"}],"anonymous":false},{"type":"event","name":"OwnershipHandoverRequested","inputs":[{"name":"pendingOwner","type":"address","indexed":true,"internalType":"address"}],"anonymous":false},{"type":"event","name":"OwnershipTransferred","inputs":[{"name":"oldOwner","type":"address","indexed":true,"internalType":"address"},{"name":"newOwner","type":"address","indexed":true,"internalType":"address"}],"anonymous":false},{"type":"event","name":"RolesUpdated","inputs":[{"name":"user","type":"address","indexed":true,"internalType":"address"},{"name":"roles","type":"uint256","indexed":true,"internalType":"uint256"}],"anonymous":false},{"type":"event","name":"RoundCompleted","inputs":[{"name":"debateId","type":"uint256","indexed":true,"internalType":"uint256"},{"name":"roundNumber","type":"uint256","indexed":false,"internalType":"uint256"},{"name":"totalScores","type":"uint256[]","indexed":false,"internalType":"uint256[]"}],"anonymous":false},{"type":"event","name":"RoundScored","inputs":[{"name":"debateId","type":"uint256","indexed":true,"internalType":"uint256"},{"name":"roundNumber","type":"uint256","indexed":false,"internalType":"uint256"},{"name":"judge","type":"address","indexed":false,"internalType":"address"},{"name":"scores","type":"uint256[]","indexed":false,"internalType":"uint256[]"}],"anonymous":false},{"type":"event","name":"RoundStarted","inputs":[{"name":"debateId","type":"uint256","indexed":true,"internalType":"uint256"},{"name":"roundNumber","type":"uint256","indexed":false,"internalType":"uint256"},{"name":"startTime","type":"uint256","indexed":false,"internalType":"uint256"}],"anonymous":false},{"type":"error","name":"AlreadyInitialized","inputs":[]},{"type":"error","name":"NewOwnerIsZeroAddress","inputs":[]},{"type":"error","name":"NoHandoverRequest","inputs":[]},{"type":"error","name":"Reentrancy","inputs":[]},{"type":"error","name":"Unauthorized","inputs":[]}],"bytecode":{"object":"0x6080604052348015600e575f80fd5b506016336023565b601f336002605e565b60c2565b6001600160a01b0316638b78c6d819819055805f7f8be0079c531659141344cd1fd0a4f28419497f9722a3daafe3b4186f6b6457e08180a350565b606882826001606c565b5050565b638b78c6d8600c52825f526020600c20805483811783608c575080841681185b80835580600c5160601c7f715ad5ce61fc9595c7b415289d59cf203f23a94fa06f04af7e489a0a76e1fe265f80a3505050505050565b6124d9806100cf5f395ff3fe6080604052600436106101c5575f3560e01c8063862ea952116100f2578063e484d66111610092578063f37c31bf11610062578063f37c31bf146104fa578063f4b2ad141461050e578063f704a9131461052d578063fee81cf414610541575f80fd5b8063e484d6611461047e578063e81e28b41461049d578063f04e283e146104d4578063f2fde38b146104e7575f80fd5b806396486af6116100cd57806396486af61461040d578063abe155c81461042c578063b572f4621461044b578063d90cdf971461046a575f80fd5b8063862ea9521461035e5780638a9bb02a1461038a5780638da5cb5b146103ba575f80fd5b80634a4ee7b11161016857806359758fcf1161013857806359758fcf146102f85780636e894a7d1461032e578063715018a61461034257806374e38d641461034a575f80fd5b80634a4ee7b1146102935780634d40c0b5146102a6578063514e62fc146102bb57806354d1f13d146102f0575f80fd5b806325692962116101a3578063256929621461022557806327ff62231461022d5780632de948071461024f57806340b8927014610280575f80fd5b8063183a4f6e146101c95780631c10893f146101de5780631cd64df4146101f1575b5f80fd5b6101dc6101d7366004611bc7565b610572565b005b6101dc6101ec366004611c06565b61057f565b3480156101fc575f80fd5b5061021061020b366004611c06565b610595565b60405190151581526020015b60405180910390f35b6101dc6105b3565b348015610238575f80fd5b50610241600a81565b60405190815260200161021c565b34801561025a575f80fd5b50610241610269366004611c2e565b638b78c6d8600c9081525f91909152602090205490565b34801561028b575f80fd5b506102415f81565b6101dc6102a1366004611c06565b610600565b3480156102b1575f80fd5b5061024160015481565b3480156102c6575f80fd5b506102106102d5366004611c06565b638b78c6d8600c9081525f9290925260209091205416151590565b6101dc610612565b348015610303575f80fd5b50610317610312366004611bc7565b61064b565b60405161021c9b9a99989796959493929190611caf565b348015610339575f80fd5b50610241600281565b6101dc610746565b348015610355575f80fd5b50610241600381565b348015610369575f80fd5b5061037d610378366004611bc7565b610759565b60405161021c9190611d66565b348015610395575f80fd5b506103a96103a4366004611d78565b610991565b60405161021c959493929190611d98565b3480156103c5575f80fd5b507fffffffffffffffffffffffffffffffffffffffffffffffffffffffff748739275460405173ffffffffffffffffffffffffffffffffffffffff909116815260200161021c565b348015610418575f80fd5b5061037d610427366004611dcc565b610a41565b348015610437575f80fd5b50610241610446366004611efe565b610ae5565b348015610456575f80fd5b506101dc610465366004611fdf565b610cfc565b348015610475575f80fd5b50610241600581565b348015610489575f80fd5b50610210610498366004611dcc565b61123c565b3480156104a8575f80fd5b506104bc6104b7366004611bc7565b6112af565b60405161021c9c9b9a999897969594939291906120a0565b6101dc6104e2366004611c2e565b611479565b6101dc6104f5366004611c2e565b6114b3565b348015610505575f80fd5b50610241600181565b348015610519575f80fd5b506101dc610528366004612132565b6114d9565b348015610538575f80fd5b5061037d611639565b34801561054c575f80fd5b5061024161055b366004611c2e565b63389a75e1600c9081525f91909152602090205490565b61057c33826116bb565b50565b6105876116c6565b61059182826116fb565b5050565b638b78c6d8600c9081525f8390526020902054811681145b92915050565b5f6202a30067ffffffffffffffff164201905063389a75e1600c52335f52806020600c2055337fdbf36a107da19e49527a7176a1babf963b4b0ff8cde35ee35d6cd8f1f9ac7e1d5f80a250565b6106086116c6565b61059182826116bb565b63389a75e1600c52335f525f6020600c2055337ffa7b8eab7da67f412cc9575ed43464468f9bfbae89d1675917346ca6d8fe3c925f80a2565b5f602081905290815260409020805481906106659061215c565b80601f01602080910402602001604051908101604052809291908181526020018280546106919061215c565b80156106dc5780601f106106b3576101008083540402835291602001916106dc565b820191905f5260205f20905b8154815290600101906020018083116106bf57829003601f168201915b50505060018401546002850154600386015460048701546005880154600689015460078a0154600a8b0154600b909b0154999a96999598509396509194909360ff8084169473ffffffffffffffffffffffffffffffffffffffff610100909504851694169291168b565b61074e6116c6565b6107575f611707565b565b5f818152602081905260408082208151600580825260c0820190935260609391928160200160208202803683370190505090505f8060015b8460040154811161085e575f81815260098601602052604090206003015460ff161561084c57826107c1816121d4565b9350505f5b600581101561084a575f828152600987016020908152604080832084845260010190915290205485518690839081106108015761080161220b565b602002602001018181516108159190612238565b9052505f82815260098701602090815260408083208484526001019091529020546108409084612238565b92506001016107c6565b505b80610856816121d4565b915050610791565b505f82116108b35760405162461bcd60e51b815260206004820152601360248201527f4e6f20636f6d706c6574656420726f756e64730000000000000000000000000060448201526064015b60405180910390fd5b5f81116109025760405162461bcd60e51b815260206004820152601260248201527f4e6f2073636f726573207265636f72646564000000000000000000000000000060448201526064016108aa565b60408051600580825260c082019092525f916020820160a0803683370190505090505f5b600581101561098657828582815181106109425761094261220b565b6020026020010151612710610957919061224b565b6109619190612262565b8282815181106109735761097361220b565b6020908102919091010152600101610926565b509695505050505050565b5f828152602081815260408083208484526009019091528082208151600580825260c082019093528392606092849283928160200160208202803683370190505093505f5b6005811015610a16575f8181526001830160205260409020548551869083908110610a0357610a0361220b565b60209081029190910101526001016109d6565b5060038101546002820154600483015460059093015460ff9092169a90995094975090955093505050565b60408051600580825260c082019092526060916020820160a0803683375050505f8581526020818152604080832087845260090190915281209192505b6005811015610adc5773ffffffffffffffffffffffffffffffffffffffff84165f908152602083815260408083208484529091529020548351849083908110610ac957610ac961220b565b6020908102919091010152600101610a7e565b50509392505050565b5f808411610b355760405162461bcd60e51b815260206004820152601060248201527f496e76616c6964206475726174696f6e0000000000000000000000000000000060448201526064016108aa565b5f8311610b845760405162461bcd60e51b815260206004820152601360248201527f496e76616c696420726f756e6420636f756e740000000000000000000000000060448201526064016108aa565b5f825111610bd45760405162461bcd60e51b815260206004820152601060248201527f4d7573742068617665206a75646765730000000000000000000000000000000060448201526064016108aa565b60018054905f610be3836121d4565b909155505f81815260208190526040902090915080610c0287826122e6565b50426001820181905560028201869055610c1d908690612238565b60038201556005810184905560068101805433610100027fffffffffffffffffffffff0000000000000000000000000000000000000000009091161760011790558251610c739060088301906020860190611b2b565b505f5b8351811015610cab57610ca3848281518110610c9457610c9461220b565b602002602001015160016116fb565b600101610c76565b50610cb58261176c565b817fdb51b87a84e5ccd5b0c9167906e6ac95b0c98bb79b6039bb7d2a5f54585a29f187878787604051610ceb9493929190612402565b60405180910390a250949350505050565b5f848152602081905260409020600681015485919060ff168015610d235750806003015442105b610d6f5760405162461bcd60e51b815260206004820152601160248201527f446562617465206e6f742061637469766500000000000000000000000000000060448201526064016108aa565b6001610d7a8161182d565b5f87815260208190526040902060058514610dd75760405162461bcd60e51b815260206004820152601560248201527f496e76616c69642073636f726573206c656e677468000000000000000000000060448201526064016108aa565b80600401548714610e2a5760405162461bcd60e51b815260206004820152600d60248201527f496e76616c696420726f756e640000000000000000000000000000000000000060448201526064016108aa565b5f87815260098201602052604090206003015460ff1615610e8d5760405162461bcd60e51b815260206004820152601660248201527f526f756e6420616c726561647920636f6d706c6574650000000000000000000060448201526064016108aa565b5f878152600982016020526040902060020154600311610eef5760405162461bcd60e51b815260206004820152601260248201527f526f756e642066756c6c792073636f726564000000000000000000000000000060448201526064016108aa565b610efa88883361123c565b15610f475760405162461bcd60e51b815260206004820152600e60248201527f416c72656164792073636f72656400000000000000000000000000000000000060448201526064016108aa565b5f805b86811015610fe957600a888883818110610f6657610f6661220b565b905060200201351115610fbb5760405162461bcd60e51b815260206004820152600e60248201527f53636f726520746f6f206869676800000000000000000000000000000000000060448201526064016108aa565b878782818110610fcd57610fcd61220b565b9050602002013582610fdf9190612238565b9150600101610f4a565b50600a811461103a5760405162461bcd60e51b815260206004820152601c60248201527f53636f726573206d7573742073756d20746f204d41585f53434f52450000000060448201526064016108aa565b5f8881526009830160205260408120905b878110156110ce578888828181106110655761106561220b565b335f90815260208681526040808320878452825290912091029290920135909155508888828181106110995761109961220b565b90506020020135826001015f8381526020019081526020015f205f8282546110c19190612238565b909155505060010161104b565b50600281018054905f6110e0836121d4565b9190505550897f728710716940d269ae2107efaf020c79eb0315ea9039763e30a5ea1febde9b8a8a338b8b60405161111b9493929190612432565b60405180910390a26003816002015403611230576003810180547fffffffffffffffffffffffffffffffffffffffffffffffffffffffffffffff0016600117905560408051600580825260c082019092525f916020820160a0803683370190505090505f5b60058110156111c0575f81815260018401602052604090205482518390839081106111ad576111ad61220b565b6020908102919091010152600101611180565b508a7f4090d263e0003ccbedcac11d87ea5d650562a89f0fe027c15c331ee1947271158b836040516111f39291906124a6565b60405180910390a26001846005015461120c91906124c6565b84600401541015611225576112208b61176c565b61122e565b61122e8b611851565b505b50505050505050505050565b5f83815260208181526040808320858452600901909152812081805b60058110156112a35773ffffffffffffffffffffffffffffffffffffffff85165f908152602084815260408083208484529091529020546112999083612238565b9150600101611258565b50151595945050505050565b60605f805f805f805f8060605f805f805f8f81526020019081526020015f209050805f0181600101548260020154836003015484600401548560050154866006015f9054906101000a900460ff168760060160019054906101000a900473ffffffffffffffffffffffffffffffffffffffff16886007015f9054906101000a900473ffffffffffffffffffffffffffffffffffffffff16896008018a600b015f9054906101000a900460ff168b600a01548b805461136c9061215c565b80601f01602080910402602001604051908101604052809291908181526020018280546113989061215c565b80156113e35780601f106113ba576101008083540402835291602001916113e3565b820191905f5260205f20905b8154815290600101906020018083116113c657829003601f168201915b50505050509b508280548060200260200160405190810160405280929190818152602001828054801561144a57602002820191905f5260205f20905b815473ffffffffffffffffffffffffffffffffffffffff16815260019091019060200180831161141f575b505050505092509c509c509c509c509c509c509c509c509c509c509c509c505091939597999b5091939597999b565b6114816116c6565b63389a75e1600c52805f526020600c2080544211156114a757636f5e88185f526004601cfd5b5f905561057c81611707565b6114bb6116c6565b8060601b6114d057637448fbae5f526004601cfd5b61057c81611707565b6114e16116c6565b5f828152602081905260409020600781015473ffffffffffffffffffffffffffffffffffffffff16156115565760405162461bcd60e51b815260206004820152601260248201527f4d61726b657420616c726561647920736574000000000000000000000000000060448201526064016108aa565b73ffffffffffffffffffffffffffffffffffffffff82166115b95760405162461bcd60e51b815260206004820152600e60248201527f496e76616c6964206d61726b657400000000000000000000000000000000000060448201526064016108aa565b6007810180547fffffffffffffffffffffffff00000000000000000000000000000000000000001673ffffffffffffffffffffffffffffffffffffffff841690811790915560405190815283907ff0c39df0c35a41a4817dde7f59c180034c29a9f204e1c69e0a54e83759e23d6d906020015b60405180910390a2505050565b60605f60015467ffffffffffffffff81111561165757611657611dfe565b604051908082528060200260200182016040528015611680578160200160208202803683370190505b5090505f5b6001548110156116b557808282815181106116a2576116a261220b565b6020908102919091010152600101611685565b50919050565b61059182825f611958565b7fffffffffffffffffffffffffffffffffffffffffffffffffffffffff74873927543314610757576382b429005f526004601cfd5b61059182826001611958565b7fffffffffffffffffffffffffffffffffffffffffffffffffffffffff74873927805473ffffffffffffffffffffffffffffffffffffffff9092169182907f8be0079c531659141344cd1fd0a4f28419497f9722a3daafe3b4186f6b6457e05f80a355565b5f818152602081905260408120600481018054919261178a836121d4565b9091555050600480820180545f908152600984016020526040902042928101929092555460058301546117bd91906124c6565b6117c8906001612238565b4283600301546117d891906124c6565b6117e29190612262565b6117ec9042612238565b600582015560048201546040805191825242602083015284917fa359b664a68acd8839e42112eb50eff3408165e15074fde89ddb58a0db2e691d910161162c565b638b78c6d8600c52335f52806020600c20541661057c576382b429005f526004601cfd5b5f818152602081905260409020600681015460ff166118b25760405162461bcd60e51b815260206004820152601160248201527f416c72656164792066696e616c697a656400000000000000000000000000000060448201526064016108aa565b6006810180547fffffffffffffffffffffffffffffffffffffffffffffffffffffffffffffff001690556118e5826119af565b600a8201819055600b820180547fffffffffffffffffffffffffffffffffffffffffffffffffffffffffffffff0016600117905560405183917f885b485579774f489b37483d36e46364f4558410374014a201f75004017526be9161194c91815260200190565b60405180910390a25050565b638b78c6d8600c52825f526020600c20805483811783611979575080841681185b80835580600c5160601c7f715ad5ce61fc9595c7b415289d59cf203f23a94fa06f04af7e489a0a76e1fe265f80a3505050505050565b5f818152602081815260408083208151600580825260c082019093529092849290820160a0803683370190505090505f60015b83600401548111611a85575f81815260098501602052604090206003015460ff1615611a735781611a12816121d4565b9250505f5b6005811015611a71575f82815260098601602090815260408083208484526001019091529020548451859083908110611a5257611a5261220b565b60200260200101818151611a669190612238565b905250600101611a17565b505b80611a7d816121d4565b9150506119e2565b505f8111611ad55760405162461bcd60e51b815260206004820152601360248201527f4e6f20636f6d706c6574656420726f756e64730000000000000000000000000060448201526064016108aa565b5f805f5b60058110156109865782858281518110611af557611af561220b565b60200260200101511115611b2357848181518110611b1557611b1561220b565b602002602001015192508091505b600101611ad9565b828054828255905f5260205f20908101928215611ba3579160200282015b82811115611ba357825182547fffffffffffffffffffffffff00000000000000000000000000000000000000001673ffffffffffffffffffffffffffffffffffffffff909116178255602090920191600190910190611b49565b50611baf929150611bb3565b5090565b5b80821115611baf575f8155600101611bb4565b5f60208284031215611bd7575f80fd5b5035919050565b803573ffffffffffffffffffffffffffffffffffffffff81168114611c01575f80fd5b919050565b5f8060408385031215611c17575f80fd5b611c2083611bde565b946020939093013593505050565b5f60208284031215611c3e575f80fd5b611c4782611bde565b9392505050565b5f81518084525f5b81811015611c7257602081850181015186830182015201611c56565b505f6020828601015260207fffffffffffffffffffffffffffffffffffffffffffffffffffffffffffffffe0601f83011685010191505092915050565b5f610160808352611cc28184018f611c4e565b602084019d909d52505060408101999099526060890197909752608088019590955260a087019390935290151560c086015273ffffffffffffffffffffffffffffffffffffffff90811660e086015216610100840152610120830152151561014090910152919050565b5f815180845260208085019450602084015f5b83811015611d5b57815187529582019590820190600101611d3f565b509495945050505050565b602081525f611c476020830184611d2c565b5f8060408385031215611d89575f80fd5b50508035926020909101359150565b851515815284602082015260a060408201525f611db860a0830186611d2c565b606083019490945250608001529392505050565b5f805f60608486031215611dde575f80fd5b8335925060208401359150611df560408501611bde565b90509250925092565b7f4e487b71000000000000000000000000000000000000000000000000000000005f52604160045260245ffd5b604051601f82017fffffffffffffffffffffffffffffffffffffffffffffffffffffffffffffffe016810167ffffffffffffffff81118282101715611e7257611e72611dfe565b604052919050565b5f82601f830112611e89575f80fd5b8135602067ffffffffffffffff821115611ea557611ea5611dfe565b8160051b611eb4828201611e2b565b9283528481018201928281019087851115611ecd575f80fd5b83870192505b84831015611ef357611ee483611bde565b82529183019190830190611ed3565b979650505050505050565b5f805f8060808587031215611f11575f80fd5b843567ffffffffffffffff80821115611f28575f80fd5b818701915087601f830112611f3b575f80fd5b8135602082821115611f4f57611f4f611dfe565b611f7f817fffffffffffffffffffffffffffffffffffffffffffffffffffffffffffffffe0601f85011601611e2b565b8281528a82848701011115611f92575f80fd5b82828601838301375f9281018201929092529096508701359450604087013593506060870135915080821115611fc6575f80fd5b50611fd387828801611e7a565b91505092959194509250565b5f805f8060608587031215611ff2575f80fd5b8435935060208501359250604085013567ffffffffffffffff80821115612017575f80fd5b818701915087601f83011261202a575f80fd5b813581811115612038575f80fd5b8860208260051b850101111561204c575f80fd5b95989497505060200194505050565b5f815180845260208085019450602084015f5b83811015611d5b57815173ffffffffffffffffffffffffffffffffffffffff168752958201959082019060010161206e565b61018081525f6120b461018083018f611c4e565b8d60208401528c60408401528b60608401528a60808401528960a084015288151560c084015273ffffffffffffffffffffffffffffffffffffffff80891660e085015280881661010085015250828103610120840152612114818761205b565b941515610140840152505061016001529a9950505050505050505050565b5f8060408385031215612143575f80fd5b8235915061215360208401611bde565b90509250929050565b600181811c9082168061217057607f821691505b6020821081036116b5577f4e487b71000000000000000000000000000000000000000000000000000000005f52602260045260245ffd5b7f4e487b71000000000000000000000000000000000000000000000000000000005f52601160045260245ffd5b5f7fffffffffffffffffffffffffffffffffffffffffffffffffffffffffffffffff8203612204576122046121a7565b5060010190565b7f4e487b71000000000000000000000000000000000000000000000000000000005f52603260045260245ffd5b808201808211156105ad576105ad6121a7565b80820281158282048414176105ad576105ad6121a7565b5f82612295577f4e487b71000000000000000000000000000000000000000000000000000000005f52601260045260245ffd5b500490565b601f8211156122e157805f5260205f20601f840160051c810160208510156122bf5750805b601f840160051c820191505b818110156122de575f81556001016122cb565b50505b505050565b815167ffffffffffffffff81111561230057612300611dfe565b6123148161230e845461215c565b8461229a565b602080601f831160018114612366575f84156123305750858301515b7fffffffffffffffffffffffffffffffffffffffffffffffffffffffffffffffff600386901b1c1916600185901b1785556123fa565b5f858152602081207fffffffffffffffffffffffffffffffffffffffffffffffffffffffffffffffe08616915b828110156123b257888601518255948401946001909101908401612393565b50858210156123ee57878501517fffffffffffffffffffffffffffffffffffffffffffffffffffffffffffffffff600388901b60f8161c191681555b505060018460011b0185555b505050505050565b608081525f6124146080830187611c4e565b8560208401528460408401528281036060840152611ef3818561205b565b84815273ffffffffffffffffffffffffffffffffffffffff84166020820152606060408201528160608201525f7f07ffffffffffffffffffffffffffffffffffffffffffffffffffffffffffffff83111561248b575f80fd5b8260051b808560808501379190910160800195945050505050565b828152604060208201525f6124be6040830184611d2c565b949350505050565b818103818111156105ad576105ad6121a756","linkReferences":{}},"methodIdentifiers":{"MAX_SCORE()":"27ff6223","MIN_SCORE()":"40b89270","OUTCOME_COUNT()":"d90cdf97","REQUIRED_JUDGES()":"74e38d64","_ADMIN_ROLE()":"6e894a7d","_JUDGE_ROLE()":"f37c31bf","cancelOwnershipHandover()":"54d1f13d","completeOwnershipHandover(address)":"f04e283e","createDebate(string,uint256,uint256,address[])":"abe155c8","debateCount()":"4d40c0b5","debates(uint256)":"59758fcf","getAllDebates()":"f704a913","getCurrentProbabilities(uint256)":"862ea952","getDebateDetails(uint256)":"e81e28b4","getJudgeScores(uint256,uint256,address)":"96486af6","getRoundInfo(uint256,uint256)":"8a9bb02a","grantRoles(address,uint256)":"1c10893f","hasAllRoles(address,uint256)":"1cd64df4","hasAnyRole(address,uint256)":"514e62fc","hasJudgeScored(uint256,uint256,address)":"e484d661","owner()":"8da5cb5b","ownershipHandoverExpiresAt(address)":"fee81cf4","renounceOwnership()":"715018a6","renounceRoles(uint256)":"183a4f6e","requestOwnershipHandover()":"25692962","revokeRoles(address,uint256)":"4a4ee7b1","rolesOf(address)":"2de94807","scoreRound(uint256,uint256,uint256[])":"b572f462","setMarket(uint256,address)":"f4b2ad14","transferOwnership(address)":"f2fde38b"},"id":28}