{"abi":[{"type":"constructor","inputs":[],"stateMutability":"nonpayable"},{"type":"function","name":"BASIS_POINTS","inputs":[],"outputs":[{"name":"","type":"uint256","internalType":"uint256"}],"stateMutability":"view"},{"type":"function","name":"MAX_PRICE","inputs":[],"outputs":[{"name":"","type":"uint256","internalType":"uint256"}],"stateMutability":"view"},{"type":"function","name":"MIN_ORDER_SIZE","inputs":[],"outputs":[{"name":"","type":"uint256","internalType":"uint256"}],"stateMutability":"view"},{"type":"function","name":"MIN_PRICE","inputs":[],"outputs":[{"name":"","type":"uint256","internalType":"uint256"}],"stateMutability":"view"},{"type":"function","name":"cancelOrder","inputs":[{"name":"marketId","type":"uint256","internalType":"uint256"},{"name":"gladiatorIndex","type":"uint256","internalType":"uint256"},{"name":"orderId","type":"uint256","internalType":"uint256"}],"outputs":[],"stateMutability":"nonpayable"},{"type":"function","name":"cancelOwnershipHandover","inputs":[],"outputs":[],"stateMutability":"payable"},{"type":"function","name":"completeOwnershipHandover","inputs":[{"name":"pendingOwner","type":"address","internalType":"address"}],"outputs":[],"stateMutability":"payable"},{"type":"function","name":"createMarket","inputs":[{"name":"_token","type":"address","internalType":"address"},{"name":"_debateId","type":"uint256","internalType":"uint256"},{"name":"_gladiatorAddresses","type":"address[]","internalType":"address[]"},{"name":"_gladiatorNames","type":"string[]","internalType":"string[]"},{"name":"_gladiatorPublicKeys","type":"bytes[]","internalType":"bytes[]"},{"name":"_judgeAI","type":"address","internalType":"address"},{"name":"_bondingTarget","type":"uint256","internalType":"uint256"},{"name":"_bondingDuration","type":"uint256","internalType":"uint256"},{"name":"_basePrice","type":"uint256","internalType":"uint256"}],"outputs":[{"name":"marketId","type":"uint256","internalType":"uint256"}],"stateMutability":"nonpayable"},{"type":"function","name":"debateIdToMarketId","inputs":[{"name":"","type":"uint256","internalType":"uint256"}],"outputs":[{"name":"","type":"uint256","internalType":"uint256"}],"stateMutability":"view"},{"type":"function","name":"getBondingCurveDetails","inputs":[{"name":"marketId","type":"uint256","internalType":"uint256"}],"outputs":[{"name":"target","type":"uint256","internalType":"uint256"},{"name":"current","type":"uint256","internalType":"uint256"},{"name":"basePrice","type":"uint256","internalType":"uint256"},{"name":"currentPrice","type":"uint256","internalType":"uint256"},{"name":"isFulfilled","type":"bool","internalType":"bool"},{"name":"endTime","type":"uint256","internalType":"uint256"}],"stateMutability":"view"},{"type":"function","name":"getBribesForRound","inputs":[{"name":"marketId","type":"uint256","internalType":"uint256"},{"name":"roundId","type":"uint256","internalType":"uint256"}],"outputs":[{"name":"bribers","type":"address[]","internalType":"address[]"},{"name":"amounts","type":"uint256[]","internalType":"uint256[]"},{"name":"information","type":"string[]","internalType":"string[]"},{"name":"timestamps","type":"uint256[]","internalType":"uint256[]"},{"name":"outcomeIndexes","type":"uint256[]","internalType":"uint256[]"}],"stateMutability":"view"},{"type":"function","name":"getCurrentPrice","inputs":[{"name":"marketId","type":"uint256","internalType":"uint256"},{"name":"gladiatorIndex","type":"uint256","internalType":"uint256"}],"outputs":[{"name":"","type":"uint256","internalType":"uint256"}],"stateMutability":"view"},{"type":"function","name":"getCurrentRound","inputs":[{"name":"marketId","type":"uint256","internalType":"uint256"}],"outputs":[{"name":"roundIndex","type":"uint256","internalType":"uint256"},{"name":"startTime","type":"uint256","internalType":"uint256"},{"name":"endTime","type":"uint256","internalType":"uint256"},{"name":"isComplete","type":"bool","internalType":"bool"}],"stateMutability":"view"},{"type":"function","name":"getGladiatorScores","inputs":[{"name":"marketId","type":"uint256","internalType":"uint256"},{"name":"gladiatorIndex","type":"uint256","internalType":"uint256"}],"outputs":[{"name":"roundScores","type":"uint256[]","internalType":"uint256[]"}],"stateMutability":"view"},{"type":"function","name":"getGladiators","inputs":[{"name":"marketId","type":"uint256","internalType":"uint256"}],"outputs":[{"name":"","type":"tuple[]","internalType":"struct MarketFactory.Gladiator[]","components":[{"name":"aiAddress","type":"address","internalType":"address"},{"name":"name","type":"string","internalType":"string"},{"name":"index","type":"uint256","internalType":"uint256"},{"name":"isActive","type":"bool","internalType":"bool"},{"name":"publicKey","type":"bytes","internalType":"bytes"}]}],"stateMutability":"view"},{"type":"function","name":"getLeaderboard","inputs":[{"name":"marketId","type":"uint256","internalType":"uint256"}],"outputs":[{"name":"totalScores","type":"uint256[]","internalType":"uint256[]"},{"name":"gladiatorIndexes","type":"uint256[]","internalType":"uint256[]"}],"stateMutability":"view"},{"type":"function","name":"getMarketDetails","inputs":[{"name":"marketId","type":"uint256","internalType":"uint256"}],"outputs":[{"name":"token","type":"address","internalType":"address"},{"name":"debateId","type":"uint256","internalType":"uint256"},{"name":"resolved","type":"bool","internalType":"bool"},{"name":"winningOutcome","type":"uint256","internalType":"uint256"},{"name":"bondingCurve","type":"tuple","internalType":"struct MarketFactory.BondingCurve","components":[{"name":"target","type":"uint256","internalType":"uint256"},{"name":"current","type":"uint256","internalType":"uint256"},{"name":"basePrice","type":"uint256","internalType":"uint256"},{"name":"currentPrice","type":"uint256","internalType":"uint256"},{"name":"isFulfilled","type":"bool","internalType":"bool"},{"name":"endTime","type":"uint256","internalType":"uint256"}]},{"name":"totalBondingAmount","type":"uint256","internalType":"uint256"}],"stateMutability":"view"},{"type":"function","name":"getMarketPrices","inputs":[{"name":"marketId","type":"uint256","internalType":"uint256"}],"outputs":[{"name":"","type":"uint256[]","internalType":"uint256[]"}],"stateMutability":"view"},{"type":"function","name":"getMarketVolumes","inputs":[{"name":"marketId","type":"uint256","internalType":"uint256"}],"outputs":[{"name":"","type":"uint256[]","internalType":"uint256[]"}],"stateMutability":"view"},{"type":"function","name":"getOrderBook","inputs":[{"name":"marketId","type":"uint256","internalType":"uint256"},{"name":"gladiatorIndex","type":"uint256","internalType":"uint256"}],"outputs":[{"name":"","type":"tuple[]","internalType":"struct MarketFactory.Order[]","components":[{"name":"price","type":"uint256","internalType":"uint256"},{"name":"amount","type":"uint256","internalType":"uint256"},{"name":"outcomeIndex","type":"uint256","internalType":"uint256"},{"name":"owner","type":"address","internalType":"address"}]}],"stateMutability":"view"},{"type":"function","name":"getOrderBookSummary","inputs":[{"name":"marketId","type":"uint256","internalType":"uint256"},{"name":"gladiatorIndex","type":"uint256","internalType":"uint256"}],"outputs":[{"name":"prices","type":"uint256[]","internalType":"uint256[]"},{"name":"amounts","type":"uint256[]","internalType":"uint256[]"},{"name":"owners","type":"address[]","internalType":"address[]"}],"stateMutability":"view"},{"type":"function","name":"getPosition","inputs":[{"name":"marketId","type":"uint256","internalType":"uint256"},{"name":"user","type":"address","internalType":"address"},{"name":"gladiatorIndex","type":"uint256","internalType":"uint256"}],"outputs":[{"name":"","type":"uint256","internalType":"uint256"}],"stateMutability":"view"},{"type":"function","name":"getRoundStatus","inputs":[{"name":"marketId","type":"uint256","internalType":"uint256"},{"name":"roundIndex","type":"uint256","internalType":"uint256"}],"outputs":[{"name":"startTime","type":"uint256","internalType":"uint256"},{"name":"endTime","type":"uint256","internalType":"uint256"},{"name":"isComplete","type":"bool","internalType":"bool"},{"name":"hasVerdict","type":"bool","internalType":"bool"},{"name":"verdictTimestamp","type":"uint256","internalType":"uint256"}],"stateMutability":"view"},{"type":"function","name":"getRoundVerdict","inputs":[{"name":"marketId","type":"uint256","internalType":"uint256"},{"name":"roundIndex","type":"uint256","internalType":"uint256"}],"outputs":[{"name":"scores","type":"uint256[]","internalType":"uint256[]"},{"name":"timestamp","type":"uint256","internalType":"uint256"}],"stateMutability":"view"},{"type":"function","name":"getTotalVolume","inputs":[{"name":"marketId","type":"uint256","internalType":"uint256"}],"outputs":[{"name":"","type":"uint256","internalType":"uint256"}],"stateMutability":"view"},{"type":"function","name":"getUserPositions","inputs":[{"name":"marketId","type":"uint256","internalType":"uint256"},{"name":"user","type":"address","internalType":"address"}],"outputs":[{"name":"","type":"uint256[]","internalType":"uint256[]"}],"stateMutability":"view"},{"type":"function","name":"gladiatorVolumes","inputs":[{"name":"marketId","type":"uint256","internalType":"uint256"},{"name":"gladiatorIndex","type":"uint256","internalType":"uint256"}],"outputs":[{"name":"","type":"uint256","internalType":"uint256"}],"stateMutability":"view"},{"type":"function","name":"grantRoles","inputs":[{"name":"user","type":"address","internalType":"address"},{"name":"roles","type":"uint256","internalType":"uint256"}],"outputs":[],"stateMutability":"payable"},{"type":"function","name":"hasAllRoles","inputs":[{"name":"user","type":"address","internalType":"address"},{"name":"roles","type":"uint256","internalType":"uint256"}],"outputs":[{"name":"","type":"bool","internalType":"bool"}],"stateMutability":"view"},{"type":"function","name":"hasAnyRole","inputs":[{"name":"user","type":"address","internalType":"address"},{"name":"roles","type":"uint256","internalType":"uint256"}],"outputs":[{"name":"","type":"bool","internalType":"bool"}],"stateMutability":"view"},{"type":"function","name":"marketCount","inputs":[],"outputs":[{"name":"","type":"uint256","internalType":"uint256"}],"stateMutability":"view"},{"type":"function","name":"marketIdToDebateId","inputs":[{"name":"","type":"uint256","internalType":"uint256"}],"outputs":[{"name":"","type":"uint256","internalType":"uint256"}],"stateMutability":"view"},{"type":"function","name":"markets","inputs":[{"name":"","type":"uint256","internalType":"uint256"}],"outputs":[{"name":"token","type":"address","internalType":"address"},{"name":"debateId","type":"uint256","internalType":"uint256"},{"name":"resolved","type":"bool","internalType":"bool"},{"name":"judgeAI","type":"address","internalType":"address"},{"name":"winningGladiator","type":"uint256","internalType":"uint256"},{"name":"bondingCurve","type":"tuple","internalType":"struct MarketFactory.BondingCurve","components":[{"name":"target","type":"uint256","internalType":"uint256"},{"name":"current","type":"uint256","internalType":"uint256"},{"name":"basePrice","type":"uint256","internalType":"uint256"},{"name":"currentPrice","type":"uint256","internalType":"uint256"},{"name":"isFulfilled","type":"bool","internalType":"bool"},{"name":"endTime","type":"uint256","internalType":"uint256"}]},{"name":"totalBondingAmount","type":"uint256","internalType":"uint256"},{"name":"currentRound","type":"uint256","internalType":"uint256"}],"stateMutability":"view"},{"type":"function","name":"owner","inputs":[],"outputs":[{"name":"result","type":"address","internalType":"address"}],"stateMutability":"view"},{"type":"function","name":"ownershipHandoverExpiresAt","inputs":[{"name":"pendingOwner","type":"address","internalType":"address"}],"outputs":[{"name":"result","type":"uint256","internalType":"uint256"}],"stateMutability":"view"},{"type":"function","name":"placeLimitOrder","inputs":[{"name":"marketId","type":"uint256","internalType":"uint256"},{"name":"gladiatorIndex","type":"uint256","internalType":"uint256"},{"name":"price","type":"uint256","internalType":"uint256"},{"name":"amount","type":"uint256","internalType":"uint256"}],"outputs":[],"stateMutability":"nonpayable"},{"type":"function","name":"redeemWinningShares","inputs":[{"name":"marketId","type":"uint256","internalType":"uint256"}],"outputs":[],"stateMutability":"nonpayable"},{"type":"function","name":"renounceOwnership","inputs":[],"outputs":[],"stateMutability":"payable"},{"type":"function","name":"renounceRoles","inputs":[{"name":"roles","type":"uint256","internalType":"uint256"}],"outputs":[],"stateMutability":"payable"},{"type":"function","name":"requestOwnershipHandover","inputs":[],"outputs":[],"stateMutability":"payable"},{"type":"function","name":"resolveMarket","inputs":[{"name":"marketId","type":"uint256","internalType":"uint256"},{"name":"winningGladiatorIndex","type":"uint256","internalType":"uint256"}],"outputs":[],"stateMutability":"nonpayable"},{"type":"function","name":"revokeRoles","inputs":[{"name":"user","type":"address","internalType":"address"},{"name":"roles","type":"uint256","internalType":"uint256"}],"outputs":[],"stateMutability":"payable"},{"type":"function","name":"rolesOf","inputs":[{"name":"user","type":"address","internalType":"address"}],"outputs":[{"name":"roles","type":"uint256","internalType":"uint256"}],"stateMutability":"view"},{"type":"function","name":"startNewRound","inputs":[{"name":"marketId","type":"uint256","internalType":"uint256"}],"outputs":[],"stateMutability":"nonpayable"},{"type":"function","name":"submitBribe","inputs":[{"name":"marketId","type":"uint256","internalType":"uint256"},{"name":"roundId","type":"uint256","internalType":"uint256"},{"name":"information","type":"string","internalType":"string"},{"name":"gladiatorIndex","type":"uint256","internalType":"uint256"}],"outputs":[],"stateMutability":"nonpayable"},{"type":"function","name":"submitVerdict","inputs":[{"name":"marketId","type":"uint256","internalType":"uint256"},{"name":"scores","type":"uint256[]","internalType":"uint256[]"}],"outputs":[],"stateMutability":"nonpayable"},{"type":"function","name":"transferOwnership","inputs":[{"name":"newOwner","type":"address","internalType":"address"}],"outputs":[],"stateMutability":"payable"},{"type":"event","name":"BondingComplete","inputs":[{"name":"marketId","type":"uint256","indexed":true,"internalType":"uint256"},{"name":"timestamp","type":"uint256","indexed":false,"internalType":"uint256"},{"name":"finalPrice","type":"uint256","indexed":false,"internalType":"uint256"}],"anonymous":false},{"type":"event","name":"BondingContribution","inputs":[{"name":"marketId","type":"uint256","indexed":true,"internalType":"uint256"},{"name":"contributor","type":"address","indexed":true,"internalType":"address"},{"name":"amount","type":"uint256","indexed":false,"internalType":"uint256"}],"anonymous":false},{"type":"event","name":"BribeSubmitted","inputs":[{"name":"marketId","type":"uint256","indexed":true,"internalType":"uint256"},{"name":"roundId","type":"uint256","indexed":true,"internalType":"uint256"},{"name":"briber","type":"address","indexed":true,"internalType":"address"},{"name":"amount","type":"uint256","indexed":false,"internalType":"uint256"},{"name":"information","type":"string","indexed":false,"internalType":"string"},{"name":"outcomeIndex","type":"uint256","indexed":false,"internalType":"uint256"}],"anonymous":false},{"type":"event","name":"MarketCreated","inputs":[{"name":"marketId","type":"uint256","indexed":true,"internalType":"uint256"},{"name":"token","type":"address","indexed":false,"internalType":"address"},{"name":"debateId","type":"uint256","indexed":true,"internalType":"uint256"},{"name":"outcomeNames","type":"string[]","indexed":false,"internalType":"string[]"}],"anonymous":false},{"type":"event","name":"MarketResolved","inputs":[{"name":"marketId","type":"uint256","indexed":true,"internalType":"uint256"},{"name":"winningOutcomeIndex","type":"uint256","indexed":true,"internalType":"uint256"}],"anonymous":false},{"type":"event","name":"OrderCancelled","inputs":[{"name":"marketId","type":"uint256","indexed":true,"internalType":"uint256"},{"name":"trader","type":"address","indexed":true,"internalType":"address"},{"name":"outcomeIndex","type":"uint256","indexed":true,"internalType":"uint256"},{"name":"price","type":"uint256","indexed":false,"internalType":"uint256"},{"name":"amount","type":"uint256","indexed":false,"internalType":"uint256"}],"anonymous":false},{"type":"event","name":"OrderMatched","inputs":[{"name":"marketId","type":"uint256","indexed":true,"internalType":"uint256"},{"name":"buyer","type":"address","indexed":true,"internalType":"address"},{"name":"seller","type":"address","indexed":true,"internalType":"address"},{"name":"outcomeIndex","type":"uint256","indexed":false,"internalType":"uint256"},{"name":"price","type":"uint256","indexed":false,"internalType":"uint256"},{"name":"amount","type":"uint256","indexed":false,"internalType":"uint256"}],"anonymous":false},{"type":"event","name":"OrderPlaced","inputs":[{"name":"marketId","type":"uint256","indexed":true,"internalType":"uint256"},{"name":"trader","type":"address","indexed":true,"internalType":"address"},{"name":"outcomeIndex","type":"uint256","indexed":true,"internalType":"uint256"},{"name":"price","type":"uint256","indexed":false,"internalType":"uint256"},{"name":"amount","type":"uint256","indexed":false,"internalType":"uint256"}],"anonymous":false},{"type":"event","name":"OutcomeAdded","inputs":[{"name":"marketId","type":"uint256","indexed":true,"internalType":"uint256"},{"name":"index","type":"uint256","indexed":true,"internalType":"uint256"},{"name":"name","type":"string","indexed":false,"internalType":"string"}],"anonymous":false},{"type":"event","name":"OwnershipHandoverCanceled","inputs":[{"name":"pendingOwner","type":"address","indexed":true,"internalType":"address"}],"anonymous":false},{"type":"event","name":"OwnershipHandoverRequested","inputs":[{"name":"pendingOwner","type":"address","indexed":true,"internalType":"address"}],"anonymous":false},{"type":"event","name":"OwnershipTransferred","inputs":[{"name":"oldOwner","type":"address","indexed":true,"internalType":"address"},{"name":"newOwner","type":"address","indexed":true,"internalType":"address"}],"anonymous":false},{"type":"event","name":"RolesUpdated","inputs":[{"name":"user","type":"address","indexed":true,"internalType":"address"},{"name":"roles","type":"uint256","indexed":true,"internalType":"uint256"}],"anonymous":false},{"type":"event","name":"RoundStarted","inputs":[{"name":"marketId","type":"uint256","indexed":true,"internalType":"uint256"},{"name":"roundIndex","type":"uint256","indexed":true,"internalType":"uint256"},{"name":"startTime","type":"uint256","indexed":false,"internalType":"uint256"},{"name":"endTime","type":"uint256","indexed":false,"internalType":"uint256"}],"anonymous":false},{"type":"event","name":"SharesRedeemed","inputs":[{"name":"marketId","type":"uint256","indexed":true,"internalType":"uint256"},{"name":"trader","type":"address","indexed":true,"internalType":"address"},{"name":"amount","type":"uint256","indexed":false,"internalType":"uint256"}],"anonymous":false},{"type":"event","name":"VerdictDelivered","inputs":[{"name":"marketId","type":"uint256","indexed":true,"internalType":"uint256"},{"name":"roundIndex","type":"uint256","indexed":true,"internalType":"uint256"},{"name":"scores","type":"uint256[]","indexed":false,"internalType":"uint256[]"},{"name":"timestamp","type":"uint256","indexed":false,"internalType":"uint256"}],"anonymous":false},{"type":"error","name":"AlreadyInitialized","inputs":[]},{"type":"error","name":"NewOwnerIsZeroAddress","inputs":[]},{"type":"error","name":"NoHandoverRequest","inputs":[]},{"type":"error","name":"Reentrancy","inputs":[]},{"type":"error","name":"Unauthorized","inputs":[]}],"bytecode":{"object":"0x6080604052348015600e575f80fd5b50601633601a565b6055565b6001600160a01b0316638b78c6d819819055805f7f8be0079c531659141344cd1fd0a4f28419497f9722a3daafe3b4186f6b6457e08180a350565b614b0b806100625f395ff3fe6080604052600436106102f8575f3560e01c80637fc1f80011610191578063ceb436e9116100dc578063ee7b8bc611610087578063f2fde38b11610062578063f2fde38b14610a57578063f64c6e1214610a6a578063fee81cf414610a89575f80fd5b8063ee7b8bc614610a06578063efdd081114610a25578063f04e283e14610a44575f80fd5b8063e1f1c4a7116100b7578063e1f1c4a7146109b1578063ebb0ee9c146109c6578063ec979082146109f1575f80fd5b8063ceb436e914610958578063d3f82d8e14610977578063e15eecea14610992575f80fd5b8063a84fb5611161013c578063b06c1ba311610117578063b06c1ba314610833578063b1283e7714610864578063b859924114610939575f80fd5b8063a84fb5611461076f578063a9c4e49c1461079a578063ad9f20a61461081f575f80fd5b80638da5cb5b1161016c5780638da5cb5b146106bf5780639ebe511514610712578063a34b46fe14610742575f80fd5b80637fc1f8001461064957806381d2d8991461066857806385b91d8e146106a0575f80fd5b80632569296211610251578063514e62fc116101fc578063643e4b3d116101d7578063643e4b3d146105f4578063715018a6146106225780637af68f8f1461062a575f80fd5b8063514e62fc1461059857806354d1f13d146105cd57806360557333146105d5575f80fd5b80633da099c51161022c5780633da099c51461053a5780634615102c146105665780634a4ee7b114610585575f80fd5b806325692962146104e257806329ac3694146104ea5780632de9480714610509575f80fd5b806308bf2d0d116102b157806319cd56531161028c57806319cd56531461046b5780631c10893f1461048a5780631cd64df41461049d575f80fd5b806308bf2d0d146103e9578063148b02c514610415578063183a4f6e14610456575f80fd5b806304940406116102e157806304940406146103435780630561695f1461036f5780630710c9811461039c575f80fd5b806301c11d96146102fc5780630467336814610324575b5f80fd5b348015610307575f80fd5b506103116126ac81565b6040519081526020015b60405180910390f35b34801561032f575f80fd5b5061031161033e366004613d54565b610aba565b34801561034e575f80fd5b5061036261035d366004613d9c565b610b7c565b60405161031b9190613e00565b34801561037a575f80fd5b5061038e610389366004613d54565b610c46565b60405161031b929190613e19565b3480156103a7575f80fd5b506103bb6103b6366004613d54565b610dc4565b604080519586526020860194909452911515928401929092529015156060830152608082015260a00161031b565b3480156103f4575f80fd5b50610408610403366004613d54565b610e64565b60405161031b9190613e3a565b348015610420575f80fd5b5061043461042f366004613eb3565b610f68565b604080519485526020850193909352918301521515606082015260800161031b565b610469610464366004613eb3565b61100f565b005b348015610476575f80fd5b50610311610485366004613eb3565b61101c565b610469610498366004613eca565b611064565b3480156104a8575f80fd5b506104d26104b7366004613eca565b638b78c6d8600c9081525f9290925260209091205481161490565b604051901515815260200161031b565b61046961107a565b3480156104f5575f80fd5b50610362610504366004613d54565b6110c7565b348015610514575f80fd5b50610311610523366004613ef2565b638b78c6d8600c9081525f91909152602090205490565b348015610545575f80fd5b50610559610554366004613eb3565b6111fc565b60405161031b9190613f4e565b348015610571575f80fd5b50610469610580366004613eb3565b6113c6565b610469610593366004613eca565b611515565b3480156105a3575f80fd5b506104d26105b2366004613eca565b638b78c6d8600c9081525f9290925260209091205416151590565b610469611527565b3480156105e0575f80fd5b506104696105ef366004613d54565b611560565b3480156105ff575f80fd5b5061061361060e366004613d54565b6116db565b60405161031b93929190614070565b6104696118a8565b348015610635575f80fd5b50610362610644366004613eb3565b6118bb565b348015610654575f80fd5b506103116106633660046140b2565b61195a565b348015610673575f80fd5b50610311610682366004613d54565b5f918252602082815260408084209284526011909201905290205490565b3480156106ab575f80fd5b506103626106ba366004613eb3565b6119f6565b3480156106ca575f80fd5b507fffffffffffffffffffffffffffffffffffffffffffffffffffffffff748739275460405173ffffffffffffffffffffffffffffffffffffffff909116815260200161031b565b34801561071d575f80fd5b5061073161072c366004613d54565b611af2565b60405161031b95949392919061413c565b34801561074d575f80fd5b5061076161075c366004613eb3565b611ea8565b60405161031b9291906141a8565b34801561077a575f80fd5b50610311610789366004613eb3565b60016020525f908152604090205481565b3480156107a5575f80fd5b506107f06107b4366004613eb3565b5f90815260208190526040902060048101546005820154600683015460078401546008850154600990950154939592949193909260ff90921691565b6040805196875260208701959095529385019290925260608401521515608083015260a082015260c00161031b565b34801561082a575f80fd5b50610311600181565b34801561083e575f80fd5b5061085261084d366004613eb3565b6121ac565b60405161031b969594939291906141d5565b34801561086f575f80fd5b5061092561087e366004613eb3565b5f60208181529181526040908190208054600182015460028301546003840154855160c0810187526004860154815260058601549781019790975260068501549587019590955260078401546060870152600884015460ff90811615156080880152600985015460a0880152600a850154600d9095015473ffffffffffffffffffffffffffffffffffffffff94851697939691831695610100909304909416939092919088565b60405161031b98979695949392919061425f565b348015610944575f80fd5b506104696109533660046142f7565b61227f565b348015610963575f80fd5b5061046961097236600461436f565b612585565b348015610982575f80fd5b50610311670de0b6b3a764000081565b34801561099d575f80fd5b506104696109ac366004614398565b6128d0565b3480156109bc575f80fd5b5061031161271081565b3480156109d1575f80fd5b506103116109e0366004613eb3565b60026020525f908152604090205481565b3480156109fc575f80fd5b5061031160035481565b348015610a11575f80fd5b50610311610a2036600461462c565b612c9f565b348015610a30575f80fd5b50610469610a3f366004613eb3565b613217565b610469610a52366004613ef2565b61339c565b610469610a65366004613ef2565b6133d6565b348015610a75575f80fd5b50610469610a843660046146f4565b6133fc565b348015610a94575f80fd5b50610311610aa3366004613ef2565b63389a75e1600c9081525f91909152602090205490565b5f828152602081905260408120600b8101548310610b1f5760405162461bcd60e51b815260206004820152601160248201527f496e76616c696420676c61646961746f7200000000000000000000000000000060448201526064015b60405180910390fd5b5f838152600e8201602052604081208054909103610b5057505f838152600f90910160205260409020549050610b76565b805f81548110610b6257610b62614774565b905f5260205f2090600402015f0154925050505b92915050565b5f828152602081905260408120600b8101546060929067ffffffffffffffff811115610baa57610baa6143c7565b604051908082528060200260200182016040528015610bd3578160200160208202803683370190505b5090505f5b600b830154811015610c3d5773ffffffffffffffffffffffffffffffffffffffff85165f90815260108401602090815260408083208484529091529020548251839083908110610c2a57610c2a614774565b6020908102919091010152600101610bd8565b50949350505050565b5f828152602081905260408120600d81015460609291908410610cab5760405162461bcd60e51b815260206004820152600d60248201527f496e76616c696420726f756e64000000000000000000000000000000000000006044820152606401610b16565b5f848152600c820160205260409020600281015460ff16610d0e5760405162461bcd60e51b815260206004820152601260248201527f526f756e64206e6f7420636f6d706c65746500000000000000000000000000006044820152606401610b16565b6004810154610d5f5760405162461bcd60e51b815260206004820152600e60248201527f4e6f2076657264696374207965740000000000000000000000000000000000006044820152606401610b16565b600481015460038201805460408051602080840282018101909252828152929392918491830182828015610db057602002820191905f5260205f20905b815481526020019060010190808311610d9c575b505050505091509350935050509250929050565b5f828152602081905260408120600d81015482918291829182918710610e2c5760405162461bcd60e51b815260206004820152600d60248201527f496e76616c696420726f756e64000000000000000000000000000000000000006044820152606401610b16565b5f968752600c0160205250506040909320805460018201546002830154600490930154919790965060ff909216945080151593509150565b5f828152602081905260409020600b810154606091908310610ec85760405162461bcd60e51b815260206004820152601160248201527f496e76616c696420676c61646961746f720000000000000000000000000000006044820152606401610b16565b5f838152600e82016020908152604080832080548251818502810185019093528083529193909284015b82821015610f5b575f848152602090819020604080516080810182526004860290920180548352600180820154848601526002820154928401929092526003015473ffffffffffffffffffffffffffffffffffffffff1660608301529083529092019101610ef2565b5050505091505092915050565b5f818152602081905260408120600d81015482918291829190610fcd5760405162461bcd60e51b815260206004820152600d60248201527f4e6f20726f756e647320796574000000000000000000000000000000000000006044820152606401610b16565b600181600d0154610fde91906147ce565b5f818152600c9092016020526040909120805460018201546002909201549296509450925060ff1690509193509193565b61101933826136e0565b50565b5f81815260208190526040812081805b600b83015481101561105c575f81815260118401602052604090205461105290836147e1565b915060010161102c565b509392505050565b61106c6136eb565b6110768282613720565b5050565b5f6202a30067ffffffffffffffff164201905063389a75e1600c52335f52806020600c2055337fdbf36a107da19e49527a7176a1babf963b4b0ff8cde35ee35d6cd8f1f9ac7e1d5f80a250565b5f828152602081905260409020600b81015460609190831061112b5760405162461bcd60e51b815260206004820152601160248201527f496e76616c696420676c61646961746f720000000000000000000000000000006044820152606401610b16565b80600d015467ffffffffffffffff811115611148576111486143c7565b604051908082528060200260200182016040528015611171578160200160208202803683370190505b5091505f5b81600d01548110156111f4575f818152600c830160205260409020600281015460ff1680156111a85750600481015415155b156111eb57600381018054869081106111c3576111c3614774565b905f5260205f2001548483815181106111de576111de614774565b6020026020010181815250505b50600101611176565b505092915050565b5f81815260208181526040808320600b01805482518185028101850190935280835260609492939192909184015b828210156113bb575f8481526020908190206040805160a0810190915260058502909101805473ffffffffffffffffffffffffffffffffffffffff168252600181018054929391929184019161127f906147f4565b80601f01602080910402602001604051908101604052809291908181526020018280546112ab906147f4565b80156112f65780601f106112cd576101008083540402835291602001916112f6565b820191905f5260205f20905b8154815290600101906020018083116112d957829003601f168201915b505050918352505060028201546020820152600382015460ff161515604082015260048201805460609092019161132c906147f4565b80601f0160208091040260200160405190810160405280929190818152602001828054611358906147f4565b80156113a35780601f1061137a576101008083540402835291602001916113a3565b820191905f5260205f20905b81548152906001019060200180831161138657829003601f168201915b5050505050815250508152602001906001019061122a565b505050509050919050565b5f818152602081905260409020600281015460ff16156114285760405162461bcd60e51b815260206004820152600f60248201527f4d61726b6574207265736f6c76656400000000000000000000000000000000006044820152606401610b16565b600881015460ff1661147c5760405162461bcd60e51b815260206004820152601460248201527f426f6e64696e67206e6f7420636f6d706c6574650000000000000000000000006044820152606401610b16565b600d810180545f918261148e83614845565b909155505f818152600c84016020526040902042808255919250906114b690620151806147e1565b6001820181905560028201805460ff191690558154604051849287927ffd9d17e5565deea3d25918d95fc398673b9445ef0a96d12eaf3ab2b198756c65926115079290918252602082015260400190565b60405180910390a350505050565b61151d6136eb565b61107682826136e0565b63389a75e1600c52335f525f6020600c2055337ffa7b8eab7da67f412cc9575ed43464468f9bfbae89d1675917346ca6d8fe3c925f80a2565b6115686136eb565b5f828152602081905260409020600281015460ff16156115ca5760405162461bcd60e51b815260206004820152601060248201527f416c7265616479207265736f6c766564000000000000000000000000000000006044820152606401610b16565b600b810154821061161d5760405162461bcd60e51b815260206004820152601160248201527f496e76616c696420676c61646961746f720000000000000000000000000000006044820152606401610b16565b80600b01828154811061163257611632614774565b5f91825260209091206003600590920201015460ff166116945760405162461bcd60e51b815260206004820152601460248201527f476c61646961746f72206e6f74206163746976650000000000000000000000006044820152606401610b16565b60028101805460ff1916600117905560038101829055604051829084907f6dfc24f0f2fb42e49fb4fa3ffa8abb148cab908a1fb8335b3f128a08b2594af1905f90a3505050565b5f82815260208181526040808320848452600e81019092529091208054606092839283928067ffffffffffffffff811115611718576117186143c7565b604051908082528060200260200182016040528015611741578160200160208202803683370190505b5095508067ffffffffffffffff81111561175d5761175d6143c7565b604051908082528060200260200182016040528015611786578160200160208202803683370190505b5094508067ffffffffffffffff8111156117a2576117a26143c7565b6040519080825280602002602001820160405280156117cb578160200160208202803683370190505b5093505f5b8181101561189d575f8382815481106117eb576117eb614774565b905f5260205f2090600402019050805f015488838151811061180f5761180f614774565b602002602001018181525050806001015487838151811061183257611832614774565b60209081029190910101526003810154865173ffffffffffffffffffffffffffffffffffffffff9091169087908490811061186f5761186f614774565b73ffffffffffffffffffffffffffffffffffffffff90921660209283029190910190910152506001016117d0565b505050509250925092565b6118b06136eb565b6118b95f61372c565b565b5f818152602081905260408120600b8101546060929067ffffffffffffffff8111156118e9576118e96143c7565b604051908082528060200260200182016040528015611912578160200160208202803683370190505b5090505f5b600b83015481101561105c575f818152601184016020526040902054825183908390811061194757611947614774565b6020908102919091010152600101611917565b5f838152602081905260408120600b81015483106119ba5760405162461bcd60e51b815260206004820152601160248201527f496e76616c696420676c61646961746f720000000000000000000000000000006044820152606401610b16565b73ffffffffffffffffffffffffffffffffffffffff84165f90815260109091016020908152604080832085845290915290205490509392505050565b5f818152602081905260408120600b8101546060929067ffffffffffffffff811115611a2457611a246143c7565b604051908082528060200260200182016040528015611a4d578160200160208202803683370190505b5090505f5b600b83015481101561105c575f818152600e840160205260409020805415611ab857805f81548110611a8657611a86614774565b905f5260205f2090600402015f0154838381518110611aa757611aa7614774565b602002602001018181525050611ae9565b5f828152600f850160205260409020548351849084908110611adc57611adc614774565b6020026020010181815250505b50600101611a52565b5f82815260208181526040808320848452601201909152902080546060918291829182918291908067ffffffffffffffff811115611b3257611b326143c7565b604051908082528060200260200182016040528015611b5b578160200160208202803683370190505b5096508067ffffffffffffffff811115611b7757611b776143c7565b604051908082528060200260200182016040528015611ba0578160200160208202803683370190505b5095508067ffffffffffffffff811115611bbc57611bbc6143c7565b604051908082528060200260200182016040528015611bef57816020015b6060815260200190600190039081611bda5790505b5094508067ffffffffffffffff811115611c0b57611c0b6143c7565b604051908082528060200260200182016040528015611c34578160200160208202803683370190505b5093508067ffffffffffffffff811115611c5057611c506143c7565b604051908082528060200260200182016040528015611c79578160200160208202803683370190505b5092505f5b81811015611e9b57828181548110611c9857611c98614774565b5f918252602090912060059091020154885173ffffffffffffffffffffffffffffffffffffffff90911690899083908110611cd557611cd5614774565b602002602001019073ffffffffffffffffffffffffffffffffffffffff16908173ffffffffffffffffffffffffffffffffffffffff1681525050828181548110611d2157611d21614774565b905f5260205f20906005020160010154878281518110611d4357611d43614774565b602002602001018181525050828181548110611d6157611d61614774565b905f5260205f2090600502016002018054611d7b906147f4565b80601f0160208091040260200160405190810160405280929190818152602001828054611da7906147f4565b8015611df25780601f10611dc957610100808354040283529160200191611df2565b820191905f5260205f20905b815481529060010190602001808311611dd557829003601f168201915b5050505050868281518110611e0957611e09614774565b6020026020010181905250828181548110611e2657611e26614774565b905f5260205f20906005020160030154858281518110611e4857611e48614774565b602002602001018181525050828181548110611e6657611e66614774565b905f5260205f20906005020160040154848281518110611e8857611e88614774565b6020908102919091010152600101611c7e565b5050509295509295909350565b5f818152602081905260409020600b81015460609182918067ffffffffffffffff811115611ed857611ed86143c7565b604051908082528060200260200182016040528015611f01578160200160208202803683370190505b5093508067ffffffffffffffff811115611f1d57611f1d6143c7565b604051908082528060200260200182016040528015611f46578160200160208202803683370190505b5092505f5b818110156120065780848281518110611f6657611f66614774565b6020026020010181815250505f5b83600d0154811015611ffd575f818152600c850160205260409020600281015460ff168015611fa65750600481015415155b15611ff45760038101805484908110611fc157611fc1614774565b905f5260205f200154878481518110611fdc57611fdc614774565b60200260200101818151611ff091906147e1565b9052505b50600101611f74565b50600101611f4b565b505f5b6120146001836147ce565b8110156121a4575f5b600161202983856147ce565b61203391906147ce565b81101561219b57856120468260016147e1565b8151811061205657612056614774565b602002602001015186828151811061207057612070614774565b60200260200101511015612193575f86828151811061209157612091614774565b60200260200101519050868260016120a991906147e1565b815181106120b9576120b9614774565b60200260200101518783815181106120d3576120d3614774565b602090810291909101015280876120eb8460016147e1565b815181106120fb576120fb614774565b6020026020010181815250505f86838151811061211a5761211a614774565b602002602001015190508683600161213291906147e1565b8151811061214257612142614774565b602002602001015187848151811061215c5761215c614774565b602090810291909101015280876121748560016147e1565b8151811061218457612184614774565b60200260200101818152505050505b60010161201d565b50600101612009565b505050915091565b5f805f806121e56040518060c001604052805f81526020015f81526020015f81526020015f81526020015f151581526020015f81525090565b5050505f928352505060208181526040918290208054600182015460028301546003840154600a850154875160c0810189526004870154815260058701549781019790975260068601549787019790975260078501546060870152600885015460ff9081161515608088015260099095015460a087015273ffffffffffffffffffffffffffffffffffffffff909316969195931693919290565b5f838152602081905260409020600281015460ff16156122e15760405162461bcd60e51b815260206004820152600f60248201527f4d61726b6574207265736f6c76656400000000000000000000000000000000006044820152606401610b16565b6002810154610100900473ffffffffffffffffffffffffffffffffffffffff16331461234f5760405162461bcd60e51b815260206004820152600960248201527f4e6f74206a7564676500000000000000000000000000000000000000000000006044820152606401610b16565b5f81600d0154116123a25760405162461bcd60e51b815260206004820152600f60248201527f4e6f2061637469766520726f756e6400000000000000000000000000000000006044820152606401610b16565b5f600182600d01546123b491906147ce565b5f818152600c84016020526040902060028101549192509060ff161561241c5760405162461bcd60e51b815260206004820152600e60248201527f526f756e6420636f6d706c6574650000000000000000000000000000000000006044820152606401610b16565b8060010154421161246f5760405162461bcd60e51b815260206004820152600f60248201527f526f756e64206e6f7420656e64656400000000000000000000000000000000006044820152606401610b16565b600b83015484146124c25760405162461bcd60e51b815260206004820152600e60248201527f496e76616c69642073636f7265730000000000000000000000000000000000006044820152606401610b16565b60405180604001604052808686808060200260200160405190810160405280939291908181526020018383602002808284375f9201919091525050509082525042602091820152815180516003850192612520928492910190613cf7565b506020919091015160019182015560028201805460ff19169091179055604051829087907fc180cb4bfe6259a8cc4b1401e683d63c4e8d91b60325824c54e70f5747d1cfb5906125759089908990429061487c565b60405180910390a3505050505050565b3068929eee149b4bd2126854036125a35763ab143c065f526004601cfd5b3068929eee149b4bd21268555f838152602081905260409020600b810154831061260f5760405162461bcd60e51b815260206004820152601160248201527f496e76616c696420676c61646961746f720000000000000000000000000000006044820152606401610b16565b5f838152600e8201602052604090208054831061266e5760405162461bcd60e51b815260206004820152600d60248201527f496e76616c6964206f72646572000000000000000000000000000000000000006044820152606401610b16565b5f81848154811061268157612681614774565b5f918252602090912060036004909202019081015490915073ffffffffffffffffffffffffffffffffffffffff1633146126fd5760405162461bcd60e51b815260206004820152600960248201527f4e6f74206f776e657200000000000000000000000000000000000000000000006044820152606401610b16565b5f612710825f0154836001015461271491906148d1565b61271e91906148e8565b83549091508390612731906001906147ce565b8154811061274157612741614774565b905f5260205f20906004020183868154811061275f5761275f614774565b5f918252602090912082546004909202019081556001808301549082015560028083015490820155600391820154910180547fffffffffffffffffffffffff00000000000000000000000000000000000000001673ffffffffffffffffffffffffffffffffffffffff90921691909117905582548390806127e2576127e2614920565b5f8281526020812060047fffffffffffffffffffffffffffffffffffffffffffffffffffffffffffffffff9093019283020181815560018101829055600281019190915560030180547fffffffffffffffffffffffff0000000000000000000000000000000000000000169055905583546128749073ffffffffffffffffffffffffffffffffffffffff163383613791565b81546001830154604080519283526020830191909152879133918a917ffb7a49988665620b905f05162683830b560ef686cdd9a08461994023add09383910160405180910390a4505050503868929eee149b4bd2126855505050565b3068929eee149b4bd2126854036128ee5763ab143c065f526004601cfd5b3068929eee149b4bd21268555f848152602081905260409020600281015460ff161561295c5760405162461bcd60e51b815260206004820152600f60248201527f4d61726b6574207265736f6c76656400000000000000000000000000000000006044820152606401610b16565b600b81015484106129af5760405162461bcd60e51b815260206004820152601160248201527f496e76616c696420676c61646961746f720000000000000000000000000000006044820152606401610b16565b80600b0184815481106129c4576129c4614774565b5f91825260209091206003600590920201015460ff16612a265760405162461bcd60e51b815260206004820152601460248201527f476c61646961746f72206e6f74206163746976650000000000000000000000006044820152606401610b16565b60018310158015612a3957506126ac8311155b612a855760405162461bcd60e51b815260206004820152600d60248201527f496e76616c6964207072696365000000000000000000000000000000000000006044820152606401610b16565b670de0b6b3a7640000821015612add5760405162461bcd60e51b815260206004820152600f60248201527f4f7264657220746f6f20736d616c6c00000000000000000000000000000000006044820152606401610b16565b5f612710612aeb85856148d1565b612af591906148e8565b8254909150612b1c9073ffffffffffffffffffffffffffffffffffffffff163330846137da565b600882015460ff16158015612b35575060098201544211155b15612b4457612b448684613832565b5f612b52878787873361394b565b90508015612c27575f868152600e84016020908152604080832081516080810183528981528084018681528184018c81523360608401818152855460018082018855968a52888a209551600490910290950194855592519484019490945551600283015551600390910180547fffffffffffffffffffffffff00000000000000000000000000000000000000001673ffffffffffffffffffffffffffffffffffffffff909216919091179055835260108601825280832089845290915281208054839290612c219084906147e1565b90915550505b5f86815260118401602052604081208054869290612c469084906147e1565b90915550506040805186815260208101869052879133918a917f73d269ae9c85bfa23c18c756ce946fee3d4bd61627467b157781630dfd5795e0910160405180910390a45050503868929eee149b4bd212685550505050565b5f73ffffffffffffffffffffffffffffffffffffffff8a16612d035760405162461bcd60e51b815260206004820152600d60248201527f496e76616c696420746f6b656e000000000000000000000000000000000000006044820152606401610b16565b73ffffffffffffffffffffffffffffffffffffffff8516612d665760405162461bcd60e51b815260206004820152601060248201527f496e76616c6964206a75646765204149000000000000000000000000000000006044820152606401610b16565b5f8981526001602052604090205415612dc15760405162461bcd60e51b815260206004820152600d60248201527f4d61726b657420657869737473000000000000000000000000000000000000006044820152606401610b16565b6001885111612e125760405162461bcd60e51b815260206004820152601860248201527f4e656564206d756c7469706c6520676c61646961746f727300000000000000006044820152606401610b16565b8651885114612e635760405162461bcd60e51b815260206004820152601960248201527f4d69736d61746368656420676c61646961746f7220696e666f000000000000006044820152606401610b16565b5f8411612eb25760405162461bcd60e51b815260206004820152601660248201527f496e76616c696420626f6e64696e6720746172676574000000000000000000006044820152606401610b16565b5f8311612f015760405162461bcd60e51b815260206004820152601860248201527f496e76616c696420626f6e64696e67206475726174696f6e00000000000000006044820152606401610b16565b60038054905f612f1083614845565b9190505590505f805f8381526020019081526020015f2090508a815f015f6101000a81548173ffffffffffffffffffffffffffffffffffffffff021916908373ffffffffffffffffffffffffffffffffffffffff1602179055508981600101819055505f816002015f6101000a81548160ff021916908315150217905550858160020160016101000a81548173ffffffffffffffffffffffffffffffffffffffff021916908373ffffffffffffffffffffffffffffffffffffffff1602179055505f81600d01819055506040518060c001604052808681526020015f81526020018481526020018481526020015f15158152602001854261301191906147e1565b905280516004830155602081015160058301556040810151600683015560608101516007830155608081015160088301805460ff191691151591909117905560a0015160098201555f5b89518110156131aa5781600b016040518060a001604052808c848151811061308557613085614774565b602002602001015173ffffffffffffffffffffffffffffffffffffffff1681526020018b84815181106130ba576130ba614774565b602002602001015181526020018381526020016001151581526020018a84815181106130e8576130e8614774565b6020908102919091018101519091528254600180820185555f94855293829020835160059092020180547fffffffffffffffffffffffff00000000000000000000000000000000000000001673ffffffffffffffffffffffffffffffffffffffff9092169190911781559082015191929091908201906131689082614999565b5060408201516002820155606082015160038201805460ff19169115159190911790556080820151600482019061319f9082614999565b50505060010161305b565b505f8a81526001602090815260408083208590558483526002909152908190208b9055518a9083907fcb639a85040a8c82b5868e478676ef375c27147fae484f6c2e1851b0d2932b2890613201908f908d90614a97565b60405180910390a3509998505050505050505050565b3068929eee149b4bd2126854036132355763ab143c065f526004601cfd5b3068929eee149b4bd21268555f818152602081905260409020600281015460ff166132a25760405162461bcd60e51b815260206004820152600c60248201527f4e6f74207265736f6c76656400000000000000000000000000000000000000006044820152606401610b16565b335f9081526010820160209081526040808320600385015484529091529020548061330f5760405162461bcd60e51b815260206004820152601160248201527f4e6f2077696e6e696e67207368617265730000000000000000000000000000006044820152606401610b16565b335f81815260108401602090815260408083206003870154845290915281205582546133549173ffffffffffffffffffffffffffffffffffffffff9091169083613791565b604051818152339084907f374ddac058d6545dd0b061fc8e54f7834b2459d35e96ce508588dd9ab07c701d9060200160405180910390a350503868929eee149b4bd212685550565b6133a46136eb565b63389a75e1600c52805f526020600c2080544211156133ca57636f5e88185f526004601cfd5b5f90556110198161372c565b6133de6136eb565b8060601b6133f357637448fbae5f526004601cfd5b6110198161372c565b3068929eee149b4bd21268540361341a5763ab143c065f526004601cfd5b3068929eee149b4bd21268555f858152602081905260409020600281015460ff16156134885760405162461bcd60e51b815260206004820152600f60248201527f4d61726b6574207265736f6c76656400000000000000000000000000000000006044820152606401610b16565b6101188311156134da5760405162461bcd60e51b815260206004820152601460248201527f496e666f726d6174696f6e20746f6f206c6f6e670000000000000000000000006044820152606401610b16565b600b810154821061352d5760405162461bcd60e51b815260206004820152601160248201527f496e76616c696420676c61646961746f720000000000000000000000000000006044820152606401610b16565b8054670de0b6b3a76400009061355b9073ffffffffffffffffffffffffffffffffffffffff163330846137da565b816012015f8781526020019081526020015f206040518060a001604052803373ffffffffffffffffffffffffffffffffffffffff16815260200183815260200187878080601f0160208091040260200160405190810160405280939291908181526020018383808284375f920182905250938552505042602080850191909152604093840189905285546001808201885596845292819020855160059094020180547fffffffffffffffffffffffff00000000000000000000000000000000000000001673ffffffffffffffffffffffffffffffffffffffff909416939093178355840151948201949094559082015191925090600282019061365e9082614999565b50606082015181600301556080820151816004015550503373ffffffffffffffffffffffffffffffffffffffff1686887f898f352b6903d147c261466937521f9fc156982fe81262a9f5789fffb135fb2f848989896040516136c39493929190614acd565b60405180910390a450503868929eee149b4bd21268555050505050565b61107682825f613ca0565b7fffffffffffffffffffffffffffffffffffffffffffffffffffffffff748739275433146118b9576382b429005f526004601cfd5b61107682826001613ca0565b7fffffffffffffffffffffffffffffffffffffffffffffffffffffffff74873927805473ffffffffffffffffffffffffffffffffffffffff9092169182907f8be0079c531659141344cd1fd0a4f28419497f9722a3daafe3b4186f6b6457e05f80a355565b81601452806034526fa9059cbb0000000000000000000000005f5260205f604460105f875af13d1560015f511417166137d1576390b8ec185f526004601cfd5b5f603452505050565b60405181606052826040528360601b602c526f23b872dd000000000000000000000000600c5260205f6064601c5f895af13d1560015f5114171661382557637939f4245f526004601cfd5b5f60605260405250505050565b5f828152602081905260408120600581018054919284926138549084906147e1565b925050819055508181600a015f82825461386e91906147e1565b909155505060048101546005820154600683015461388c91906148d1565b61389691906148e8565b60068201546138a591906147e1565b6007820155600481015460058201541061390f5760088101805460ff19166001179055600781015460405184917fd59d158c25ee8b470416983bd9b735fd1f2d73b20561bd761e46e293df2a425e9161390691428252602082015260400190565b60405180910390a25b604051828152339084907f66ddce4e4b04bcafc01fcc8947c22b8a3e37ef36f42c2fd2d71406f8b4b35c549060200160405180910390a3505050565b5f85815260208181526040808320878452600e8101909252822084835b82548110801561397757505f82115b15613c93575f83828154811061398f5761398f614774565b905f5260205f209060040201905088815f015411156139ae5750613c93565b5f816001015484106139c45781600101546139c6565b835b73ffffffffffffffffffffffffffffffffffffffff89165f90815260108801602090815260408083208f8452909152812080549293508392909190613a0c9084906147e1565b9091555050600382015473ffffffffffffffffffffffffffffffffffffffff165f90815260108701602090815260408083208e845290915281208054839290613a569084906147ce565b9250508190555080826001015f828254613a7091906147ce565b90915550613a80905081856147ce565b9350815f015486600f015f8d81526020019081526020015f2081905550816003015f9054906101000a900473ffffffffffffffffffffffffffffffffffffffff1673ffffffffffffffffffffffffffffffffffffffff168873ffffffffffffffffffffffffffffffffffffffff168d7f834a5ca2fecc4c3bddb180e1bbb4f84a09d86c8d8aa07d8991bcca750005b0398e865f015486604051613b36939291909283526020830191909152604082015260600190565b60405180910390a481600101545f03613c7e5784548590613b59906001906147ce565b81548110613b6957613b69614774565b905f5260205f209060040201858481548110613b8757613b87614774565b5f918252602090912082546004909202019081556001808301549082015560028083015490820155600391820154910180547fffffffffffffffffffffffff00000000000000000000000000000000000000001673ffffffffffffffffffffffffffffffffffffffff9092169190911790558454859080613c0a57613c0a614920565b5f8281526020812060047fffffffffffffffffffffffffffffffffffffffffffffffffffffffffffffffff9093019283020181815560018101829055600281019190915560030180547fffffffffffffffffffffffff00000000000000000000000000000000000000001690559055613c8c565b82613c8881614845565b9350505b5050613968565b5098975050505050505050565b638b78c6d8600c52825f526020600c20805483811783613cc1575080841681185b80835580600c5160601c7f715ad5ce61fc9595c7b415289d59cf203f23a94fa06f04af7e489a0a76e1fe265f80a3505050505050565b828054828255905f5260205f20908101928215613d30579160200282015b82811115613d30578251825591602001919060010190613d15565b50613d3c929150613d40565b5090565b5b80821115613d3c575f8155600101613d41565b5f8060408385031215613d65575f80fd5b50508035926020909101359150565b803573ffffffffffffffffffffffffffffffffffffffff81168114613d97575f80fd5b919050565b5f8060408385031215613dad575f80fd5b82359150613dbd60208401613d74565b90509250929050565b5f815180845260208085019450602084015f5b83811015613df557815187529582019590820190600101613dd9565b509495945050505050565b602081525f613e126020830184613dc6565b9392505050565b604081525f613e2b6040830185613dc6565b90508260208301529392505050565b602080825282518282018190525f919060409081850190868401855b82811015613ea6578151805185528681015187860152858101518686015260609081015173ffffffffffffffffffffffffffffffffffffffff169085015260809093019290850190600101613e56565b5091979650505050505050565b5f60208284031215613ec3575f80fd5b5035919050565b5f8060408385031215613edb575f80fd5b613ee483613d74565b946020939093013593505050565b5f60208284031215613f02575f80fd5b613e1282613d74565b5f81518084525f5b81811015613f2f57602081850181015186830182015201613f13565b505f602082860101526020601f19601f83011685010191505092915050565b5f60208083018184528085518083526040925060408601915060408160051b8701018488015f5b8381101561401d577fffffffffffffffffffffffffffffffffffffffffffffffffffffffffffffffc0898403018552815160a073ffffffffffffffffffffffffffffffffffffffff825116855288820151818a870152613fd782870182613f0b565b915050878201518886015260608083015115158187015250608080830151925085820381870152506140098183613f0b565b968901969450505090860190600101613f75565b509098975050505050505050565b5f815180845260208085019450602084015f5b83811015613df557815173ffffffffffffffffffffffffffffffffffffffff168752958201959082019060010161403e565b606081525f6140826060830186613dc6565b82810360208401526140948186613dc6565b905082810360408401526140a8818561402b565b9695505050505050565b5f805f606084860312156140c4575f80fd5b833592506140d460208501613d74565b9150604084013590509250925092565b5f8282518085526020808601955060208260051b840101602086015f5b8481101561412f57601f1986840301895261411d838351613f0b565b98840198925090830190600101614101565b5090979650505050505050565b60a081525f61414e60a083018861402b565b82810360208401526141608188613dc6565b9050828103604084015261417481876140e4565b905082810360608401526141888186613dc6565b9050828103608084015261419c8185613dc6565b98975050505050505050565b604081525f6141ba6040830185613dc6565b82810360208401526141cc8185613dc6565b95945050505050565b73ffffffffffffffffffffffffffffffffffffffff8716815260208101869052841515604082015260608101849052610160810161424d60808301858051825260208101516020830152604081015160408301526060810151606083015260808101511515608083015260a081015160a08301525050565b82610140830152979650505050505050565b73ffffffffffffffffffffffffffffffffffffffff898116825260208201899052871515604083015286166060820152608081018590526101a081016142df60a08301868051825260208101516020830152604081015160408301526060810151606083015260808101511515608083015260a081015160a08301525050565b61016082019390935261018001529695505050505050565b5f805f60408486031215614309575f80fd5b83359250602084013567ffffffffffffffff80821115614327575f80fd5b818601915086601f83011261433a575f80fd5b813581811115614348575f80fd5b8760208260051b850101111561435c575f80fd5b6020830194508093505050509250925092565b5f805f60608486031215614381575f80fd5b505081359360208301359350604090920135919050565b5f805f80608085870312156143ab575f80fd5b5050823594602084013594506040840135936060013592509050565b7f4e487b71000000000000000000000000000000000000000000000000000000005f52604160045260245ffd5b604051601f8201601f1916810167ffffffffffffffff8111828210171561441d5761441d6143c7565b604052919050565b5f67ffffffffffffffff82111561443e5761443e6143c7565b5060051b60200190565b5f82601f830112614457575f80fd5b8135602061446c61446783614425565b6143f4565b8083825260208201915060208460051b87010193508684111561448d575f80fd5b602086015b848110156144b0576144a381613d74565b8352918301918301614492565b509695505050505050565b5f67ffffffffffffffff8311156144d4576144d46143c7565b6144e76020601f19601f860116016143f4565b90508281528383830111156144fa575f80fd5b828260208301375f602084830101529392505050565b5f82601f83011261451f575f80fd5b8135602061452f61446783614425565b82815260059290921b8401810191818101908684111561454d575f80fd5b8286015b848110156144b057803567ffffffffffffffff81111561456f575f80fd5b8701603f8101891361457f575f80fd5b6145908986830135604084016144bb565b845250918301918301614551565b5f82601f8301126145ad575f80fd5b813560206145bd61446783614425565b82815260059290921b840181019181810190868411156145db575f80fd5b8286015b848110156144b057803567ffffffffffffffff8111156145fd575f80fd5b8701603f8101891361460d575f80fd5b61461e8986830135604084016144bb565b8452509183019183016145df565b5f805f805f805f805f6101208a8c031215614645575f80fd5b61464e8a613d74565b985060208a0135975060408a013567ffffffffffffffff80821115614671575f80fd5b61467d8d838e01614448565b985060608c0135915080821115614692575f80fd5b61469e8d838e01614510565b975060808c01359150808211156146b3575f80fd5b506146c08c828d0161459e565b9550506146cf60a08b01613d74565b935060c08a0135925060e08a013591506101008a013590509295985092959850929598565b5f805f805f60808688031215614708575f80fd5b8535945060208601359350604086013567ffffffffffffffff8082111561472d575f80fd5b818801915088601f830112614740575f80fd5b81358181111561474e575f80fd5b89602082850101111561475f575f80fd5b96999598505060200195606001359392505050565b7f4e487b71000000000000000000000000000000000000000000000000000000005f52603260045260245ffd5b7f4e487b71000000000000000000000000000000000000000000000000000000005f52601160045260245ffd5b81810381811115610b7657610b766147a1565b80820180821115610b7657610b766147a1565b600181811c9082168061480857607f821691505b60208210810361483f577f4e487b71000000000000000000000000000000000000000000000000000000005f52602260045260245ffd5b50919050565b5f7fffffffffffffffffffffffffffffffffffffffffffffffffffffffffffffffff8203614875576148756147a1565b5060010190565b604081528260408201525f7f07ffffffffffffffffffffffffffffffffffffffffffffffffffffffffffffff8411156148b3575f80fd5b8360051b808660608501376020830193909352500160600192915050565b8082028115828204841417610b7657610b766147a1565b5f8261491b577f4e487b71000000000000000000000000000000000000000000000000000000005f52601260045260245ffd5b500490565b7f4e487b71000000000000000000000000000000000000000000000000000000005f52603160045260245ffd5b601f82111561499457805f5260205f20601f840160051c810160208510156149725750805b601f840160051c820191505b81811015614991575f815560010161497e565b50505b505050565b815167ffffffffffffffff8111156149b3576149b36143c7565b6149c7816149c184546147f4565b8461494d565b602080601f831160018114614a19575f84156149e35750858301515b7fffffffffffffffffffffffffffffffffffffffffffffffffffffffffffffffff600386901b1c1916600185901b178555614a8f565b5f85815260208120601f198616915b82811015614a4757888601518255948401946001909101908401614a28565b5085821015614a8357878501517fffffffffffffffffffffffffffffffffffffffffffffffffffffffffffffffff600388901b60f8161c191681555b505060018460011b0185555b505050505050565b73ffffffffffffffffffffffffffffffffffffffff83168152604060208201525f614ac560408301846140e4565b949350505050565b84815260606020820152826060820152828460808301375f608084830101525f6080601f19601f86011683010190508260408301529594505050505056","linkReferences":{}},"methodIdentifiers":{"BASIS_POINTS()":"e1f1c4a7","MAX_PRICE()":"01c11d96","MIN_ORDER_SIZE()":"d3f82d8e","MIN_PRICE()":"ad9f20a6","cancelOrder(uint256,uint256,uint256)":"ceb436e9","cancelOwnershipHandover()":"54d1f13d","completeOwnershipHandover(address)":"f04e283e","createMarket(address,uint256,address[],string[],bytes[],address,uint256,uint256,uint256)":"ee7b8bc6","debateIdToMarketId(uint256)":"a84fb561","getBondingCurveDetails(uint256)":"a9c4e49c","getBribesForRound(uint256,uint256)":"9ebe5115","getCurrentPrice(uint256,uint256)":"04673368","getCurrentRound(uint256)":"148b02c5","getGladiatorScores(uint256,uint256)":"29ac3694","getGladiators(uint256)":"3da099c5","getLeaderboard(uint256)":"a34b46fe","getMarketDetails(uint256)":"b06c1ba3","getMarketPrices(uint256)":"85b91d8e","getMarketVolumes(uint256)":"7af68f8f","getOrderBook(uint256,uint256)":"08bf2d0d","getOrderBookSummary(uint256,uint256)":"643e4b3d","getPosition(uint256,address,uint256)":"7fc1f800","getRoundStatus(uint256,uint256)":"0710c981","getRoundVerdict(uint256,uint256)":"0561695f","getTotalVolume(uint256)":"19cd5653","getUserPositions(uint256,address)":"04940406","gladiatorVolumes(uint256,uint256)":"81d2d899","grantRoles(address,uint256)":"1c10893f","hasAllRoles(address,uint256)":"1cd64df4","hasAnyRole(address,uint256)":"514e62fc","marketCount()":"ec979082","marketIdToDebateId(uint256)":"ebb0ee9c","markets(uint256)":"b1283e77","owner()":"8da5cb5b","ownershipHandoverExpiresAt(address)":"fee81cf4","placeLimitOrder(uint256,uint256,uint256,uint256)":"e15eecea","redeemWinningShares(uint256)":"efdd0811","renounceOwnership()":"715018a6","renounceRoles(uint256)":"183a4f6e","requestOwnershipHandover()":"25692962","resolveMarket(uint256,uint256)":"60557333","revokeRoles(address,uint256)":"4a4ee7b1","rolesOf(address)":"2de94807","startNewRound(uint256)":"4615102c","submitBribe(uint256,uint256,string,uint256)":"f64c6e12","submitVerdict(uint256,uint256[])":"b8599241","transferOwnership(address)":"f2fde38b"},"id":29}