{"abi":[{"type":"constructor","inputs":[],"stateMutability":"nonpayable"},{"type":"function","name":"approve","inputs":[{"name":"account","type":"address","internalType":"address"},{"name":"id","type":"uint256","internalType":"uint256"}],"outputs":[],"stateMutability":"payable"},{"type":"function","name":"balanceOf","inputs":[{"name":"owner","type":"address","internalType":"address"}],"outputs":[{"name":"result","type":"uint256","internalType":"uint256"}],"stateMutability":"view"},{"type":"function","name":"cancelOwnershipHandover","inputs":[],"outputs":[],"stateMutability":"payable"},{"type":"function","name":"completeOwnershipHandover","inputs":[{"name":"pendingOwner","type":"address","internalType":"address"}],"outputs":[],"stateMutability":"payable"},{"type":"function","name":"getApproved","inputs":[{"name":"id","type":"uint256","internalType":"uint256"}],"outputs":[{"name":"result","type":"address","internalType":"address"}],"stateMutability":"view"},{"type":"function","name":"getGladiatorInfo","inputs":[{"name":"tokenId","type":"uint256","internalType":"uint256"}],"outputs":[{"name":"name","type":"string","internalType":"string"},{"name":"model","type":"string","internalType":"string"}],"stateMutability":"view"},{"type":"function","name":"gladiatorModels","inputs":[{"name":"","type":"uint256","internalType":"uint256"}],"outputs":[{"name":"","type":"string","internalType":"string"}],"stateMutability":"view"},{"type":"function","name":"gladiatorNames","inputs":[{"name":"","type":"uint256","internalType":"uint256"}],"outputs":[{"name":"","type":"string","internalType":"string"}],"stateMutability":"view"},{"type":"function","name":"grantRoles","inputs":[{"name":"user","type":"address","internalType":"address"},{"name":"roles","type":"uint256","internalType":"uint256"}],"outputs":[],"stateMutability":"payable"},{"type":"function","name":"hasAllRoles","inputs":[{"name":"user","type":"address","internalType":"address"},{"name":"roles","type":"uint256","internalType":"uint256"}],"outputs":[{"name":"","type":"bool","internalType":"bool"}],"stateMutability":"view"},{"type":"function","name":"hasAnyRole","inputs":[{"name":"user","type":"address","internalType":"address"},{"name":"roles","type":"uint256","internalType":"uint256"}],"outputs":[{"name":"","type":"bool","internalType":"bool"}],"stateMutability":"view"},{"type":"function","name":"isApprovedForAll","inputs":[{"name":"owner","type":"address","internalType":"address"},{"name":"operator","type":"address","internalType":"address"}],"outputs":[{"name":"result","type":"bool","internalType":"bool"}],"stateMutability":"view"},{"type":"function","name":"marketFactory","inputs":[],"outputs":[{"name":"","type":"address","internalType":"address"}],"stateMutability":"view"},{"type":"function","name":"mintGladiator","inputs":[{"name":"to","type":"address","internalType":"address"},{"name":"name","type":"string","internalType":"string"},{"name":"model","type":"string","internalType":"string"}],"outputs":[{"name":"","type":"uint256","internalType":"uint256"}],"stateMutability":"nonpayable"},{"type":"function","name":"name","inputs":[],"outputs":[{"name":"","type":"string","internalType":"string"}],"stateMutability":"pure"},{"type":"function","name":"owner","inputs":[],"outputs":[{"name":"result","type":"address","internalType":"address"}],"stateMutability":"view"},{"type":"function","name":"ownerOf","inputs":[{"name":"tokenId","type":"uint256","internalType":"uint256"}],"outputs":[{"name":"","type":"address","internalType":"address"}],"stateMutability":"view"},{"type":"function","name":"ownershipHandoverExpiresAt","inputs":[{"name":"pendingOwner","type":"address","internalType":"address"}],"outputs":[{"name":"result","type":"uint256","internalType":"uint256"}],"stateMutability":"view"},{"type":"function","name":"renounceOwnership","inputs":[],"outputs":[],"stateMutability":"payable"},{"type":"function","name":"renounceRoles","inputs":[{"name":"roles","type":"uint256","internalType":"uint256"}],"outputs":[],"stateMutability":"payable"},{"type":"function","name":"requestOwnershipHandover","inputs":[],"outputs":[],"stateMutability":"payable"},{"type":"function","name":"revokeRoles","inputs":[{"name":"user","type":"address","internalType":"address"},{"name":"roles","type":"uint256","internalType":"uint256"}],"outputs":[],"stateMutability":"payable"},{"type":"function","name":"rolesOf","inputs":[{"name":"user","type":"address","internalType":"address"}],"outputs":[{"name":"roles","type":"uint256","internalType":"uint256"}],"stateMutability":"view"},{"type":"function","name":"safeTransferFrom","inputs":[{"name":"from","type":"address","internalType":"address"},{"name":"to","type":"address","internalType":"address"},{"name":"id","type":"uint256","internalType":"uint256"}],"outputs":[],"stateMutability":"payable"},{"type":"function","name":"safeTransferFrom","inputs":[{"name":"from","type":"address","internalType":"address"},{"name":"to","type":"address","internalType":"address"},{"name":"id","type":"uint256","internalType":"uint256"},{"name":"data","type":"bytes","internalType":"bytes"}],"outputs":[],"stateMutability":"payable"},{"type":"function","name":"setApprovalForAll","inputs":[{"name":"operator","type":"address","internalType":"address"},{"name":"isApproved","type":"bool","internalType":"bool"}],"outputs":[],"stateMutability":"nonpayable"},{"type":"function","name":"setMarketFactory","inputs":[{"name":"_marketFactory","type":"address","internalType":"address"}],"outputs":[],"stateMutability":"nonpayable"},{"type":"function","name":"supportsInterface","inputs":[{"name":"interfaceId","type":"bytes4","internalType":"bytes4"}],"outputs":[{"name":"result","type":"bool","internalType":"bool"}],"stateMutability":"view"},{"type":"function","name":"symbol","inputs":[],"outputs":[{"name":"","type":"string","internalType":"string"}],"stateMutability":"pure"},{"type":"function","name":"tokenURI","inputs":[{"name":"tokenId","type":"uint256","internalType":"uint256"}],"outputs":[{"name":"","type":"string","internalType":"string"}],"stateMutability":"view"},{"type":"function","name":"transferFrom","inputs":[{"name":"from","type":"address","internalType":"address"},{"name":"to","type":"address","internalType":"address"},{"name":"id","type":"uint256","internalType":"uint256"}],"outputs":[],"stateMutability":"payable"},{"type":"function","name":"transferOwnership","inputs":[{"name":"newOwner","type":"address","internalType":"address"}],"outputs":[],"stateMutability":"payable"},{"type":"event","name":"Approval","inputs":[{"name":"owner","type":"address","indexed":true,"internalType":"address"},{"name":"account","type":"address","indexed":true,"internalType":"address"},{"name":"id","type":"uint256","indexed":true,"internalType":"uint256"}],"anonymous":false},{"type":"event","name":"ApprovalForAll","inputs":[{"name":"owner","type":"address","indexed":true,"internalType":"address"},{"name":"operator","type":"address","indexed":true,"internalType":"address"},{"name":"isApproved","type":"bool","indexed":false,"internalType":"bool"}],"anonymous":false},{"type":"event","name":"OwnershipHandoverCanceled","inputs":[{"name":"pendingOwner","type":"address","indexed":true,"internalType":"address"}],"anonymous":false},{"type":"event","name":"OwnershipHandoverRequested","inputs":[{"name":"pendingOwner","type":"address","indexed":true,"internalType":"address"}],"anonymous":false},{"type":"event","name":"OwnershipTransferred","inputs":[{"name":"oldOwner","type":"address","indexed":true,"internalType":"address"},{"name":"newOwner","type":"address","indexed":true,"internalType":"address"}],"anonymous":false},{"type":"event","name":"RolesUpdated","inputs":[{"name":"user","type":"address","indexed":true,"internalType":"address"},{"name":"roles","type":"uint256","indexed":true,"internalType":"uint256"}],"anonymous":false},{"type":"event","name":"Transfer","inputs":[{"name":"from","type":"address","indexed":true,"internalType":"address"},{"name":"to","type":"address","indexed":true,"internalType":"address"},{"name":"id","type":"uint256","indexed":true,"internalType":"uint256"}],"anonymous":false},{"type":"error","name":"AccountBalanceOverflow","inputs":[]},{"type":"error","name":"AlreadyInitialized","inputs":[]},{"type":"error","name":"BalanceQueryForZeroAddress","inputs":[]},{"type":"error","name":"NewOwnerIsZeroAddress","inputs":[]},{"type":"error","name":"NoHandoverRequest","inputs":[]},{"type":"error","name":"NotOwnerNorApproved","inputs":[]},{"type":"error","name":"TokenAlreadyExists","inputs":[]},{"type":"error","name":"TokenDoesNotExist","inputs":[]},{"type":"error","name":"TransferFromIncorrectOwner","inputs":[]},{"type":"error","name":"TransferToNonERC721ReceiverImplementer","inputs":[]},{"type":"error","name":"TransferToZeroAddress","inputs":[]},{"type":"error","name":"Unauthorized","inputs":[]}],"bytecode":{"object":"0x6080604052348015600e575f80fd5b50601633601a565b6055565b6001600160a01b0316638b78c6d819819055805f7f8be0079c531659141344cd1fd0a4f28419497f9722a3daafe3b4186f6b6457e08180a350565b6117bc806100625f395ff3fe6080604052600436106101db575f3560e01c8063514e62fc116100fd578063b88d4fde11610092578063e985e9c511610062578063e985e9c5146105d3578063f04e283e14610607578063f2fde38b1461061a578063fee81cf41461062d575f80fd5b8063b88d4fde14610555578063c1614cc214610568578063c87b56dd14610595578063d49bc9fb146105b4575f80fd5b8063715018a6116100cd578063715018a6146104b65780638da5cb5b146104be57806395d89b41146104f1578063a22cb46514610536575f80fd5b8063514e62fc1461043b57806354d1f13d146104705780636352211e1461047857806370a0823114610497575f80fd5b806323b872dd1161017357806342842e0e1161014357806342842e0e146103d757806345cb7098146103ea5780634a4ee7b1146104095780634dcc434a1461041c575f80fd5b806323b872dd1461035e57806325692962146103715780632de94807146103795780633bec1003146103b8575f80fd5b8063095ea7b3116101ae578063095ea7b3146102ee578063183a4f6e146103035780631c10893f146103165780631cd64df414610329575f80fd5b806301ffc9a7146101df57806306ae70951461023057806306fdde0314610281578063081812fc146102cf575b5f80fd5b3480156101ea575f80fd5b5061021b6101f93660046111d9565b6301ffc9a760e09190911c9081146380ac58cd821417635b5e139f9091141790565b60405190151581526020015b60405180910390f35b34801561023b575f80fd5b5060015461025c9073ffffffffffffffffffffffffffffffffffffffff1681565b60405173ffffffffffffffffffffffffffffffffffffffff9091168152602001610227565b34801561028c575f80fd5b5060408051808201909152601081527f4169676f726120476c61646961746f720000000000000000000000000000000060208201525b6040516102279190611280565b3480156102da575f80fd5b5061025c6102e9366004611292565b61065e565b6103016102fc3660046112cc565b6106ae565b005b610301610311366004611292565b6106bd565b6103016103243660046112cc565b6106ca565b348015610334575f80fd5b5061021b6103433660046112cc565b638b78c6d8600c9081525f9290925260209091205481161490565b61030161036c3660046112f4565b6106dc565b610301610817565b348015610384575f80fd5b506103aa61039336600461132d565b638b78c6d8600c9081525f91909152602090205490565b604051908152602001610227565b3480156103c3575f80fd5b506102c26103d2366004611292565b610864565b6103016103e53660046112f4565b6108fb565b3480156103f5575f80fd5b506103aa61040436600461141a565b610927565b6103016104173660046112cc565b610a06565b348015610427575f80fd5b5061030161043636600461132d565b610a18565b348015610446575f80fd5b5061021b6104553660046112cc565b638b78c6d8600c9081525f9290925260209091205416151590565b610301610a67565b348015610483575f80fd5b5061025c610492366004611292565b610aa0565b3480156104a2575f80fd5b506103aa6104b136600461132d565b610ab0565b610301610afd565b3480156104c9575f80fd5b507fffffffffffffffffffffffffffffffffffffffffffffffffffffffff748739275461025c565b3480156104fc575f80fd5b5060408051808201909152600681527f4149474f5241000000000000000000000000000000000000000000000000000060208201526102c2565b348015610541575f80fd5b50610301610550366004611489565b610b10565b6103016105633660046114c2565b610b63565b348015610573575f80fd5b50610587610582366004611292565b610bbd565b604051610227929190611555565b3480156105a0575f80fd5b506102c26105af366004611292565b610d65565b3480156105bf575f80fd5b506102c26105ce366004611292565b610de9565b3480156105de575f80fd5b5061021b6105ed366004611582565b601c52670a5a2e7a000000006008525f526030600c205490565b61030161061536600461132d565b610e01565b61030161062836600461132d565b610e3b565b348015610638575f80fd5b506103aa61064736600461132d565b63389a75e1600c9081525f91909152602090205490565b5f815f527f7d8825530a5a2e7a000000000000000000000000000000000000000000000000601c5260205f2082018201805460601b6106a45763ceea21b65f526004601cfd5b6001015492915050565b6106b9338383610e61565b5050565b6106c73382610f10565b50565b6106d2610f1b565b6106b98282610f50565b5f8181527f7d8825530a5a2e7a0000000000000000000000000000000000000000000000003317601c526020902081018101805473ffffffffffffffffffffffffffffffffffffffff948516949384169381169190828614830261074f5767ceea21b6a1148100831560021b526004601cfd5b855f52816001015492508233148633141761077b576030600c205461077b57634b6e7f185f526004601cfd5b8215610788575f82600101555b85851818905550601c600c81812080547fffffffffffffffffffffffffffffffffffffffffffffffffffffffffffffffff0190555f84905220805460010163ffffffff811684026107e85767ea553b3401336cea841560021b526004601cfd5b90558082847fddf252ad1be2c89b69c2b068fc378daa952ba7f163c4a11628f55a4df523b3ef5f38a45b505050565b5f6202a30067ffffffffffffffff164201905063389a75e1600c52335f52806020600c2055337fdbf36a107da19e49527a7176a1babf963b4b0ff8cde35ee35d6cd8f1f9ac7e1d5f80a250565b60026020525f90815260409020805461087c906115b3565b80601f01602080910402602001604051908101604052809291908181526020018280546108a8906115b3565b80156108f35780601f106108ca576101008083540402835291602001916108f3565b820191905f5260205f20905b8154815290600101906020018083116108d657829003601f168201915b505050505081565b6109068383836106dc565b813b156108125761081283838360405180602001604052805f815250610f5c565b6001545f9073ffffffffffffffffffffffffffffffffffffffff1633146109af576040517f08c379a000000000000000000000000000000000000000000000000000000000815260206004820152601b60248201527f4f6e6c79204d61726b6574466163746f72792063616e206d696e74000000000060448201526064015b60405180910390fd5b5f805490806109bd83611604565b90915550505f546109ce8582610fe5565b5f8181526002602052604090206109e585826116a4565b505f8181526003602052604090206109fd84826116a4565b50949350505050565b610a0e610f1b565b6106b98282610f10565b610a20610f1b565b600180547fffffffffffffffffffffffff00000000000000000000000000000000000000001673ffffffffffffffffffffffffffffffffffffffff92909216919091179055565b63389a75e1600c52335f525f6020600c2055337ffa7b8eab7da67f412cc9575ed43464468f9bfbae89d1675917346ca6d8fe3c925f80a2565b5f610aaa82611096565b92915050565b5f81610ac357638f4eb6045f526004601cfd5b7f7d8825530a5a2e7a000000000000000000000000000000000000000000000000601c52815f5263ffffffff601c600c2054169050919050565b610b05610f1b565b610b0e5f6110f4565b565b801515905081601c52670a5a2e7a00000000600852335f52806030600c2055805f528160601b60601c337f17307eab39ab6107e8899845ad3d59bd9653f200f220920489ca2b5937696c3160205fa35050565b610b6e8585856106dc565b833b15610bb657610bb685858585858080601f0160208091040260200160405190810160405280939291908181526020018383808284375f92019190915250610f5c92505050565b5050505050565b606080610bc983611159565b610c2f576040517f08c379a000000000000000000000000000000000000000000000000000000000815260206004820152601460248201527f546f6b656e20646f6573206e6f7420657869737400000000000000000000000060448201526064016109a6565b5f838152600260209081526040808320600390925290912081548290610c54906115b3565b80601f0160208091040260200160405190810160405280929190818152602001828054610c80906115b3565b8015610ccb5780601f10610ca257610100808354040283529160200191610ccb565b820191905f5260205f20905b815481529060010190602001808311610cae57829003601f168201915b50505050509150808054610cde906115b3565b80601f0160208091040260200160405190810160405280929190818152602001828054610d0a906115b3565b8015610d555780601f10610d2c57610100808354040283529160200191610d55565b820191905f5260205f20905b815481529060010190602001808311610d3857829003601f168201915b5050505050905091509150915091565b6060610d7082611159565b610dd6576040517f08c379a000000000000000000000000000000000000000000000000000000000815260206004820152601460248201527f546f6b656e20646f6573206e6f7420657869737400000000000000000000000060448201526064016109a6565b505060408051602081019091525f815290565b60036020525f90815260409020805461087c906115b3565b610e09610f1b565b63389a75e1600c52805f526020600c208054421115610e2f57636f5e88185f526004601cfd5b5f90556106c7816110f4565b610e43610f1b565b8060601b610e5857637448fbae5f526004601cfd5b6106c7816110f4565b5f1960601c82811692508381169350815f52837f7d8825530a5a2e7a00000000000000000000000000000000000000000000000017601c5260205f208201820180548216915081610eb95763ceea21b65f526004601cfd5b818514851517610edd57815f526030600c2054610edd57634b6e7f185f526004601cfd5b6001018390558183827f8c5be1e5ebec7d5bd14f71427d1e84f3dd0314c0f7b2291e5b200ac8c7c3b9255f38a450505050565b6106b982825f611182565b7fffffffffffffffffffffffffffffffffffffffffffffffffffffffff74873927543314610b0e576382b429005f526004601cfd5b6106b982826001611182565b60405163150b7a028082523360208301528560601b60601c604083015283606083015260808083015282518060a08401528015610fa3578060c08401826020870160045afa505b60208360a48301601c86015f8a5af1610fc4573d15610fc4573d5f843e3d83fd5b508060e01b825114610fdd5763d1a57ed65f526004601cfd5b505050505050565b8160601b60601c9150805f527f7d8825530a5a2e7a000000000000000000000000000000000000000000000000601c5260205f208101810180548060601b156110355763c991cbb15f526004601cfd5b831790555f829052601c600c20805460010163ffffffff811684026110695767ea553b3401336cea841560021b526004601cfd5b905580825f7fddf252ad1be2c89b69c2b068fc378daa952ba7f163c4a11628f55a4df523b3ef8138a45050565b5f8181527f7d8825530a5a2e7a000000000000000000000000000000000000000000000000601c5260209020810181015473ffffffffffffffffffffffffffffffffffffffff16806110ef5763ceea21b65f526004601cfd5b919050565b7fffffffffffffffffffffffffffffffffffffffffffffffffffffffff74873927805473ffffffffffffffffffffffffffffffffffffffff9092169182907f8be0079c531659141344cd1fd0a4f28419497f9722a3daafe3b4186f6b6457e05f80a355565b5f8061116483610aa0565b73ffffffffffffffffffffffffffffffffffffffff16141592915050565b638b78c6d8600c52825f526020600c208054838117836111a3575080841681185b80835580600c5160601c7f715ad5ce61fc9595c7b415289d59cf203f23a94fa06f04af7e489a0a76e1fe265f80a3505050505050565b5f602082840312156111e9575f80fd5b81357fffffffff0000000000000000000000000000000000000000000000000000000081168114611218575f80fd5b9392505050565b5f81518084525f5b8181101561124357602081850181015186830182015201611227565b505f6020828601015260207fffffffffffffffffffffffffffffffffffffffffffffffffffffffffffffffe0601f83011685010191505092915050565b602081525f611218602083018461121f565b5f602082840312156112a2575f80fd5b5035919050565b803573ffffffffffffffffffffffffffffffffffffffff811681146110ef575f80fd5b5f80604083850312156112dd575f80fd5b6112e6836112a9565b946020939093013593505050565b5f805f60608486031215611306575f80fd5b61130f846112a9565b925061131d602085016112a9565b9150604084013590509250925092565b5f6020828403121561133d575f80fd5b611218826112a9565b7f4e487b71000000000000000000000000000000000000000000000000000000005f52604160045260245ffd5b5f82601f830112611382575f80fd5b813567ffffffffffffffff8082111561139d5761139d611346565b604051601f83017fffffffffffffffffffffffffffffffffffffffffffffffffffffffffffffffe0908116603f011681019082821181831017156113e3576113e3611346565b816040528381528660208588010111156113fb575f80fd5b836020870160208301375f602085830101528094505050505092915050565b5f805f6060848603121561142c575f80fd5b611435846112a9565b9250602084013567ffffffffffffffff80821115611451575f80fd5b61145d87838801611373565b93506040860135915080821115611472575f80fd5b5061147f86828701611373565b9150509250925092565b5f806040838503121561149a575f80fd5b6114a3836112a9565b9150602083013580151581146114b7575f80fd5b809150509250929050565b5f805f805f608086880312156114d6575f80fd5b6114df866112a9565b94506114ed602087016112a9565b935060408601359250606086013567ffffffffffffffff80821115611510575f80fd5b818801915088601f830112611523575f80fd5b813581811115611531575f80fd5b896020828501011115611542575f80fd5b9699959850939650602001949392505050565b604081525f611567604083018561121f565b8281036020840152611579818561121f565b95945050505050565b5f8060408385031215611593575f80fd5b61159c836112a9565b91506115aa602084016112a9565b90509250929050565b600181811c908216806115c757607f821691505b6020821081036115fe577f4e487b71000000000000000000000000000000000000000000000000000000005f52602260045260245ffd5b50919050565b5f7fffffffffffffffffffffffffffffffffffffffffffffffffffffffffffffffff8203611659577f4e487b71000000000000000000000000000000000000000000000000000000005f52601160045260245ffd5b5060010190565b601f82111561081257805f5260205f20601f840160051c810160208510156116855750805b601f840160051c820191505b81811015610bb6575f8155600101611691565b815167ffffffffffffffff8111156116be576116be611346565b6116d2816116cc84546115b3565b84611660565b602080601f831160018114611724575f84156116ee5750858301515b7fffffffffffffffffffffffffffffffffffffffffffffffffffffffffffffffff600386901b1c1916600185901b178555610fdd565b5f858152602081207fffffffffffffffffffffffffffffffffffffffffffffffffffffffffffffffe08616915b8281101561177057888601518255948401946001909101908401611751565b50858210156117ac57878501517fffffffffffffffffffffffffffffffffffffffffffffffffffffffffffffffff600388901b60f8161c191681555b5050505050600190811b0190555056","linkReferences":{}},"methodIdentifiers":{"approve(address,uint256)":"095ea7b3","balanceOf(address)":"70a08231","cancelOwnershipHandover()":"54d1f13d","completeOwnershipHandover(address)":"f04e283e","getApproved(uint256)":"081812fc","getGladiatorInfo(uint256)":"c1614cc2","gladiatorModels(uint256)":"d49bc9fb","gladiatorNames(uint256)":"3bec1003","grantRoles(address,uint256)":"1c10893f","hasAllRoles(address,uint256)":"1cd64df4","hasAnyRole(address,uint256)":"514e62fc","isApprovedForAll(address,address)":"e985e9c5","marketFactory()":"06ae7095","mintGladiator(address,string,string)":"45cb7098","name()":"06fdde03","owner()":"8da5cb5b","ownerOf(uint256)":"6352211e","ownershipHandoverExpiresAt(address)":"fee81cf4","renounceOwnership()":"715018a6","renounceRoles(uint256)":"183a4f6e","requestOwnershipHandover()":"25692962","revokeRoles(address,uint256)":"4a4ee7b1","rolesOf(address)":"2de94807","safeTransferFrom(address,address,uint256)":"42842e0e","safeTransferFrom(address,address,uint256,bytes)":"b88d4fde","setApprovalForAll(address,bool)":"a22cb465","setMarketFactory(address)":"4dcc434a","supportsInterface(bytes4)":"01ffc9a7","symbol()":"95d89b41","tokenURI(uint256)":"c87b56dd","transferFrom(address,address,uint256)":"23b872dd","transferOwnership(address)":"f2fde38b"},"id":30}