{"abi":[{"type":"constructor","inputs":[],"stateMutability":"nonpayable"},{"type":"function","name":"approve","inputs":[{"name":"account","type":"address","internalType":"address"},{"name":"id","type":"uint256","internalType":"uint256"}],"outputs":[],"stateMutability":"payable"},{"type":"function","name":"balanceOf","inputs":[{"name":"owner","type":"address","internalType":"address"}],"outputs":[{"name":"result","type":"uint256","internalType":"uint256"}],"stateMutability":"view"},{"type":"function","name":"cancelOwnershipHandover","inputs":[],"outputs":[],"stateMutability":"payable"},{"type":"function","name":"completeOwnershipHandover","inputs":[{"name":"pendingOwner","type":"address","internalType":"address"}],"outputs":[],"stateMutability":"payable"},{"type":"function","name":"getApproved","inputs":[{"name":"id","type":"uint256","internalType":"uint256"}],"outputs":[{"name":"result","type":"address","internalType":"address"}],"stateMutability":"view"},{"type":"function","name":"getGladiatorInfo","inputs":[{"name":"tokenId","type":"uint256","internalType":"uint256"}],"outputs":[{"name":"name","type":"string","internalType":"string"},{"name":"model","type":"string","internalType":"string"}],"stateMutability":"view"},{"type":"function","name":"getTokenCount","inputs":[],"outputs":[{"name":"","type":"uint256","internalType":"uint256"}],"stateMutability":"view"},{"type":"function","name":"gladiatorModels","inputs":[{"name":"","type":"uint256","internalType":"uint256"}],"outputs":[{"name":"","type":"string","internalType":"string"}],"stateMutability":"view"},{"type":"function","name":"gladiatorNames","inputs":[{"name":"","type":"uint256","internalType":"uint256"}],"outputs":[{"name":"","type":"string","internalType":"string"}],"stateMutability":"view"},{"type":"function","name":"grantRoles","inputs":[{"name":"user","type":"address","internalType":"address"},{"name":"roles","type":"uint256","internalType":"uint256"}],"outputs":[],"stateMutability":"payable"},{"type":"function","name":"hasAllRoles","inputs":[{"name":"user","type":"address","internalType":"address"},{"name":"roles","type":"uint256","internalType":"uint256"}],"outputs":[{"name":"","type":"bool","internalType":"bool"}],"stateMutability":"view"},{"type":"function","name":"hasAnyRole","inputs":[{"name":"user","type":"address","internalType":"address"},{"name":"roles","type":"uint256","internalType":"uint256"}],"outputs":[{"name":"","type":"bool","internalType":"bool"}],"stateMutability":"view"},{"type":"function","name":"isApprovedForAll","inputs":[{"name":"owner","type":"address","internalType":"address"},{"name":"operator","type":"address","internalType":"address"}],"outputs":[{"name":"result","type":"bool","internalType":"bool"}],"stateMutability":"view"},{"type":"function","name":"marketFactory","inputs":[],"outputs":[{"name":"","type":"address","internalType":"address"}],"stateMutability":"view"},{"type":"function","name":"mintGladiator","inputs":[{"name":"to","type":"address","internalType":"address"},{"name":"name","type":"string","internalType":"string"},{"name":"model","type":"string","internalType":"string"}],"outputs":[{"name":"","type":"uint256","internalType":"uint256"}],"stateMutability":"nonpayable"},{"type":"function","name":"name","inputs":[],"outputs":[{"name":"","type":"string","internalType":"string"}],"stateMutability":"pure"},{"type":"function","name":"owner","inputs":[],"outputs":[{"name":"result","type":"address","internalType":"address"}],"stateMutability":"view"},{"type":"function","name":"ownerOf","inputs":[{"name":"tokenId","type":"uint256","internalType":"uint256"}],"outputs":[{"name":"","type":"address","internalType":"address"}],"stateMutability":"view"},{"type":"function","name":"ownershipHandoverExpiresAt","inputs":[{"name":"pendingOwner","type":"address","internalType":"address"}],"outputs":[{"name":"result","type":"uint256","internalType":"uint256"}],"stateMutability":"view"},{"type":"function","name":"renounceOwnership","inputs":[],"outputs":[],"stateMutability":"payable"},{"type":"function","name":"renounceRoles","inputs":[{"name":"roles","type":"uint256","internalType":"uint256"}],"outputs":[],"stateMutability":"payable"},{"type":"function","name":"requestOwnershipHandover","inputs":[],"outputs":[],"stateMutability":"payable"},{"type":"function","name":"revokeRoles","inputs":[{"name":"user","type":"address","internalType":"address"},{"name":"roles","type":"uint256","internalType":"uint256"}],"outputs":[],"stateMutability":"payable"},{"type":"function","name":"rolesOf","inputs":[{"name":"user","type":"address","internalType":"address"}],"outputs":[{"name":"roles","type":"uint256","internalType":"uint256"}],"stateMutability":"view"},{"type":"function","name":"safeTransferFrom","inputs":[{"name":"from","type":"address","internalType":"address"},{"name":"to","type":"address","internalType":"address"},{"name":"id","type":"uint256","internalType":"uint256"}],"outputs":[],"stateMutability":"payable"},{"type":"function","name":"safeTransferFrom","inputs":[{"name":"from","type":"address","internalType":"address"},{"name":"to","type":"address","internalType":"address"},{"name":"id","type":"uint256","internalType":"uint256"},{"name":"data","type":"bytes","internalType":"bytes"}],"outputs":[],"stateMutability":"payable"},{"type":"function","name":"setApprovalForAll","inputs":[{"name":"operator","type":"address","internalType":"address"},{"name":"isApproved","type":"bool","internalType":"bool"}],"outputs":[],"stateMutability":"nonpayable"},{"type":"function","name":"setMarketFactory","inputs":[{"name":"_marketFactory","type":"address","internalType":"address"}],"outputs":[],"stateMutability":"nonpayable"},{"type":"function","name":"supportsInterface","inputs":[{"name":"interfaceId","type":"bytes4","internalType":"bytes4"}],"outputs":[{"name":"result","type":"bool","internalType":"bool"}],"stateMutability":"view"},{"type":"function","name":"symbol","inputs":[],"outputs":[{"name":"","type":"string","internalType":"string"}],"stateMutability":"pure"},{"type":"function","name":"tokenURI","inputs":[{"name":"tokenId","type":"uint256","internalType":"uint256"}],"outputs":[{"name":"","type":"string","internalType":"string"}],"stateMutability":"view"},{"type":"function","name":"transferFrom","inputs":[{"name":"from","type":"address","internalType":"address"},{"name":"to","type":"address","internalType":"address"},{"name":"id","type":"uint256","internalType":"uint256"}],"outputs":[],"stateMutability":"payable"},{"type":"function","name":"transferOwnership","inputs":[{"name":"newOwner","type":"address","internalType":"address"}],"outputs":[],"stateMutability":"payable"},{"type":"event","name":"Approval","inputs":[{"name":"owner","type":"address","indexed":true,"internalType":"address"},{"name":"account","type":"address","indexed":true,"internalType":"address"},{"name":"id","type":"uint256","indexed":true,"internalType":"uint256"}],"anonymous":false},{"type":"event","name":"ApprovalForAll","inputs":[{"name":"owner","type":"address","indexed":true,"internalType":"address"},{"name":"operator","type":"address","indexed":true,"internalType":"address"},{"name":"isApproved","type":"bool","indexed":false,"internalType":"bool"}],"anonymous":false},{"type":"event","name":"OwnershipHandoverCanceled","inputs":[{"name":"pendingOwner","type":"address","indexed":true,"internalType":"address"}],"anonymous":false},{"type":"event","name":"OwnershipHandoverRequested","inputs":[{"name":"pendingOwner","type":"address","indexed":true,"internalType":"address"}],"anonymous":false},{"type":"event","name":"OwnershipTransferred","inputs":[{"name":"oldOwner","type":"address","indexed":true,"internalType":"address"},{"name":"newOwner","type":"address","indexed":true,"internalType":"address"}],"anonymous":false},{"type":"event","name":"RolesUpdated","inputs":[{"name":"user","type":"address","indexed":true,"internalType":"address"},{"name":"roles","type":"uint256","indexed":true,"internalType":"uint256"}],"anonymous":false},{"type":"event","name":"Transfer","inputs":[{"name":"from","type":"address","indexed":true,"internalType":"address"},{"name":"to","type":"address","indexed":true,"internalType":"address"},{"name":"id","type":"uint256","indexed":true,"internalType":"uint256"}],"anonymous":false},{"type":"error","name":"AccountBalanceOverflow","inputs":[]},{"type":"error","name":"AlreadyInitialized","inputs":[]},{"type":"error","name":"BalanceQueryForZeroAddress","inputs":[]},{"type":"error","name":"NewOwnerIsZeroAddress","inputs":[]},{"type":"error","name":"NoHandoverRequest","inputs":[]},{"type":"error","name":"NotOwnerNorApproved","inputs":[]},{"type":"error","name":"TokenAlreadyExists","inputs":[]},{"type":"error","name":"TokenDoesNotExist","inputs":[]},{"type":"error","name":"TransferFromIncorrectOwner","inputs":[]},{"type":"error","name":"TransferToNonERC721ReceiverImplementer","inputs":[]},{"type":"error","name":"TransferToZeroAddress","inputs":[]},{"type":"error","name":"Unauthorized","inputs":[]}],"bytecode":{"object":"0x6080604052348015600e575f80fd5b50601633601a565b6055565b6001600160a01b0316638b78c6d819819055805f7f8be0079c531659141344cd1fd0a4f28419497f9722a3daafe3b4186f6b6457e08180a350565b6117e9806100625f395ff3fe6080604052600436106101f5575f3560e01c8063514e62fc11610117578063a22cb465116100ac578063d49bc9fb1161007c578063f04e283e11610062578063f04e283e14610634578063f2fde38b14610647578063fee81cf41461065a575f80fd5b8063d49bc9fb146105e1578063e985e9c514610600575f80fd5b8063a22cb46514610563578063b88d4fde14610582578063c1614cc214610595578063c87b56dd146105c2575f80fd5b8063715018a6116100e7578063715018a6146104d057806378a89567146104d85780638da5cb5b146104eb57806395d89b411461051e575f80fd5b8063514e62fc1461045557806354d1f13d1461048a5780636352211e1461049257806370a08231146104b1575f80fd5b806323b872dd1161018d57806342842e0e1161015d57806342842e0e146103f157806345cb7098146104045780634a4ee7b1146104235780634dcc434a14610436575f80fd5b806323b872dd14610378578063256929621461038b5780632de94807146103935780633bec1003146103d2575f80fd5b8063095ea7b3116101c8578063095ea7b314610308578063183a4f6e1461031d5780631c10893f146103305780631cd64df414610343575f80fd5b806301ffc9a7146101f957806306ae70951461024a57806306fdde031461029b578063081812fc146102e9575b5f80fd5b348015610204575f80fd5b50610235610213366004611206565b6301ffc9a760e09190911c9081146380ac58cd821417635b5e139f9091141790565b60405190151581526020015b60405180910390f35b348015610255575f80fd5b506001546102769073ffffffffffffffffffffffffffffffffffffffff1681565b60405173ffffffffffffffffffffffffffffffffffffffff9091168152602001610241565b3480156102a6575f80fd5b5060408051808201909152601081527f4169676f726120476c61646961746f720000000000000000000000000000000060208201525b60405161024191906112ad565b3480156102f4575f80fd5b506102766103033660046112bf565b61068b565b61031b6103163660046112f9565b6106db565b005b61031b61032b3660046112bf565b6106ea565b61031b61033e3660046112f9565b6106f7565b34801561034e575f80fd5b5061023561035d3660046112f9565b638b78c6d8600c9081525f9290925260209091205481161490565b61031b610386366004611321565b610709565b61031b610844565b34801561039e575f80fd5b506103c46103ad36600461135a565b638b78c6d8600c9081525f91909152602090205490565b604051908152602001610241565b3480156103dd575f80fd5b506102dc6103ec3660046112bf565b610891565b61031b6103ff366004611321565b610928565b34801561040f575f80fd5b506103c461041e366004611447565b610954565b61031b6104313660046112f9565b610a33565b348015610441575f80fd5b5061031b61045036600461135a565b610a45565b348015610460575f80fd5b5061023561046f3660046112f9565b638b78c6d8600c9081525f9290925260209091205416151590565b61031b610a94565b34801561049d575f80fd5b506102766104ac3660046112bf565b610acd565b3480156104bc575f80fd5b506103c46104cb36600461135a565b610add565b61031b610b2a565b3480156104e3575f80fd5b505f546103c4565b3480156104f6575f80fd5b507fffffffffffffffffffffffffffffffffffffffffffffffffffffffff7487392754610276565b348015610529575f80fd5b5060408051808201909152600681527f4149474f5241000000000000000000000000000000000000000000000000000060208201526102dc565b34801561056e575f80fd5b5061031b61057d3660046114b6565b610b3d565b61031b6105903660046114ef565b610b90565b3480156105a0575f80fd5b506105b46105af3660046112bf565b610bea565b604051610241929190611582565b3480156105cd575f80fd5b506102dc6105dc3660046112bf565b610d92565b3480156105ec575f80fd5b506102dc6105fb3660046112bf565b610e16565b34801561060b575f80fd5b5061023561061a3660046115af565b601c52670a5a2e7a000000006008525f526030600c205490565b61031b61064236600461135a565b610e2e565b61031b61065536600461135a565b610e68565b348015610665575f80fd5b506103c461067436600461135a565b63389a75e1600c9081525f91909152602090205490565b5f815f527f7d8825530a5a2e7a000000000000000000000000000000000000000000000000601c5260205f2082018201805460601b6106d15763ceea21b65f526004601cfd5b6001015492915050565b6106e6338383610e8e565b5050565b6106f43382610f3d565b50565b6106ff610f48565b6106e68282610f7d565b5f8181527f7d8825530a5a2e7a0000000000000000000000000000000000000000000000003317601c526020902081018101805473ffffffffffffffffffffffffffffffffffffffff948516949384169381169190828614830261077c5767ceea21b6a1148100831560021b526004601cfd5b855f5281600101549250823314863314176107a8576030600c20546107a857634b6e7f185f526004601cfd5b82156107b5575f82600101555b85851818905550601c600c81812080547fffffffffffffffffffffffffffffffffffffffffffffffffffffffffffffffff0190555f84905220805460010163ffffffff811684026108155767ea553b3401336cea841560021b526004601cfd5b90558082847fddf252ad1be2c89b69c2b068fc378daa952ba7f163c4a11628f55a4df523b3ef5f38a45b505050565b5f6202a30067ffffffffffffffff164201905063389a75e1600c52335f52806020600c2055337fdbf36a107da19e49527a7176a1babf963b4b0ff8cde35ee35d6cd8f1f9ac7e1d5f80a250565b60026020525f9081526040902080546108a9906115e0565b80601f01602080910402602001604051908101604052809291908181526020018280546108d5906115e0565b80156109205780601f106108f757610100808354040283529160200191610920565b820191905f5260205f20905b81548152906001019060200180831161090357829003601f168201915b505050505081565b610933838383610709565b813b1561083f5761083f83838360405180602001604052805f815250610f89565b6001545f9073ffffffffffffffffffffffffffffffffffffffff1633146109dc576040517f08c379a000000000000000000000000000000000000000000000000000000000815260206004820152601b60248201527f4f6e6c79204d61726b6574466163746f72792063616e206d696e74000000000060448201526064015b60405180910390fd5b5f805490806109ea83611631565b90915550505f546109fb8582611012565b5f818152600260205260409020610a1285826116d1565b505f818152600360205260409020610a2a84826116d1565b50949350505050565b610a3b610f48565b6106e68282610f3d565b610a4d610f48565b600180547fffffffffffffffffffffffff00000000000000000000000000000000000000001673ffffffffffffffffffffffffffffffffffffffff92909216919091179055565b63389a75e1600c52335f525f6020600c2055337ffa7b8eab7da67f412cc9575ed43464468f9bfbae89d1675917346ca6d8fe3c925f80a2565b5f610ad7826110c3565b92915050565b5f81610af057638f4eb6045f526004601cfd5b7f7d8825530a5a2e7a000000000000000000000000000000000000000000000000601c52815f5263ffffffff601c600c2054169050919050565b610b32610f48565b610b3b5f611121565b565b801515905081601c52670a5a2e7a00000000600852335f52806030600c2055805f528160601b60601c337f17307eab39ab6107e8899845ad3d59bd9653f200f220920489ca2b5937696c3160205fa35050565b610b9b858585610709565b833b15610be357610be385858585858080601f0160208091040260200160405190810160405280939291908181526020018383808284375f92019190915250610f8992505050565b5050505050565b606080610bf683611186565b610c5c576040517f08c379a000000000000000000000000000000000000000000000000000000000815260206004820152601460248201527f546f6b656e20646f6573206e6f7420657869737400000000000000000000000060448201526064016109d3565b5f838152600260209081526040808320600390925290912081548290610c81906115e0565b80601f0160208091040260200160405190810160405280929190818152602001828054610cad906115e0565b8015610cf85780601f10610ccf57610100808354040283529160200191610cf8565b820191905f5260205f20905b815481529060010190602001808311610cdb57829003601f168201915b50505050509150808054610d0b906115e0565b80601f0160208091040260200160405190810160405280929190818152602001828054610d37906115e0565b8015610d825780601f10610d5957610100808354040283529160200191610d82565b820191905f5260205f20905b815481529060010190602001808311610d6557829003601f168201915b5050505050905091509150915091565b6060610d9d82611186565b610e03576040517f08c379a000000000000000000000000000000000000000000000000000000000815260206004820152601460248201527f546f6b656e20646f6573206e6f7420657869737400000000000000000000000060448201526064016109d3565b505060408051602081019091525f815290565b60036020525f9081526040902080546108a9906115e0565b610e36610f48565b63389a75e1600c52805f526020600c208054421115610e5c57636f5e88185f526004601cfd5b5f90556106f481611121565b610e70610f48565b8060601b610e8557637448fbae5f526004601cfd5b6106f481611121565b5f1960601c82811692508381169350815f52837f7d8825530a5a2e7a00000000000000000000000000000000000000000000000017601c5260205f208201820180548216915081610ee65763ceea21b65f526004601cfd5b818514851517610f0a57815f526030600c2054610f0a57634b6e7f185f526004601cfd5b6001018390558183827f8c5be1e5ebec7d5bd14f71427d1e84f3dd0314c0f7b2291e5b200ac8c7c3b9255f38a450505050565b6106e682825f6111af565b7fffffffffffffffffffffffffffffffffffffffffffffffffffffffff74873927543314610b3b576382b429005f526004601cfd5b6106e6828260016111af565b60405163150b7a028082523360208301528560601b60601c604083015283606083015260808083015282518060a08401528015610fd0578060c08401826020870160045afa505b60208360a48301601c86015f8a5af1610ff1573d15610ff1573d5f843e3d83fd5b508060e01b82511461100a5763d1a57ed65f526004601cfd5b505050505050565b8160601b60601c9150805f527f7d8825530a5a2e7a000000000000000000000000000000000000000000000000601c5260205f208101810180548060601b156110625763c991cbb15f526004601cfd5b831790555f829052601c600c20805460010163ffffffff811684026110965767ea553b3401336cea841560021b526004601cfd5b905580825f7fddf252ad1be2c89b69c2b068fc378daa952ba7f163c4a11628f55a4df523b3ef8138a45050565b5f8181527f7d8825530a5a2e7a000000000000000000000000000000000000000000000000601c5260209020810181015473ffffffffffffffffffffffffffffffffffffffff168061111c5763ceea21b65f526004601cfd5b919050565b7fffffffffffffffffffffffffffffffffffffffffffffffffffffffff74873927805473ffffffffffffffffffffffffffffffffffffffff9092169182907f8be0079c531659141344cd1fd0a4f28419497f9722a3daafe3b4186f6b6457e05f80a355565b5f8061119183610acd565b73ffffffffffffffffffffffffffffffffffffffff16141592915050565b638b78c6d8600c52825f526020600c208054838117836111d0575080841681185b80835580600c5160601c7f715ad5ce61fc9595c7b415289d59cf203f23a94fa06f04af7e489a0a76e1fe265f80a3505050505050565b5f60208284031215611216575f80fd5b81357fffffffff0000000000000000000000000000000000000000000000000000000081168114611245575f80fd5b9392505050565b5f81518084525f5b8181101561127057602081850181015186830182015201611254565b505f6020828601015260207fffffffffffffffffffffffffffffffffffffffffffffffffffffffffffffffe0601f83011685010191505092915050565b602081525f611245602083018461124c565b5f602082840312156112cf575f80fd5b5035919050565b803573ffffffffffffffffffffffffffffffffffffffff8116811461111c575f80fd5b5f806040838503121561130a575f80fd5b611313836112d6565b946020939093013593505050565b5f805f60608486031215611333575f80fd5b61133c846112d6565b925061134a602085016112d6565b9150604084013590509250925092565b5f6020828403121561136a575f80fd5b611245826112d6565b7f4e487b71000000000000000000000000000000000000000000000000000000005f52604160045260245ffd5b5f82601f8301126113af575f80fd5b813567ffffffffffffffff808211156113ca576113ca611373565b604051601f83017fffffffffffffffffffffffffffffffffffffffffffffffffffffffffffffffe0908116603f0116810190828211818310171561141057611410611373565b81604052838152866020858801011115611428575f80fd5b836020870160208301375f602085830101528094505050505092915050565b5f805f60608486031215611459575f80fd5b611462846112d6565b9250602084013567ffffffffffffffff8082111561147e575f80fd5b61148a878388016113a0565b9350604086013591508082111561149f575f80fd5b506114ac868287016113a0565b9150509250925092565b5f80604083850312156114c7575f80fd5b6114d0836112d6565b9150602083013580151581146114e4575f80fd5b809150509250929050565b5f805f805f60808688031215611503575f80fd5b61150c866112d6565b945061151a602087016112d6565b935060408601359250606086013567ffffffffffffffff8082111561153d575f80fd5b818801915088601f830112611550575f80fd5b81358181111561155e575f80fd5b89602082850101111561156f575f80fd5b9699959850939650602001949392505050565b604081525f611594604083018561124c565b82810360208401526115a6818561124c565b95945050505050565b5f80604083850312156115c0575f80fd5b6115c9836112d6565b91506115d7602084016112d6565b90509250929050565b600181811c908216806115f457607f821691505b60208210810361162b577f4e487b71000000000000000000000000000000000000000000000000000000005f52602260045260245ffd5b50919050565b5f7fffffffffffffffffffffffffffffffffffffffffffffffffffffffffffffffff8203611686577f4e487b71000000000000000000000000000000000000000000000000000000005f52601160045260245ffd5b5060010190565b601f82111561083f57805f5260205f20601f840160051c810160208510156116b25750805b601f840160051c820191505b81811015610be3575f81556001016116be565b815167ffffffffffffffff8111156116eb576116eb611373565b6116ff816116f984546115e0565b8461168d565b602080601f831160018114611751575f841561171b5750858301515b7fffffffffffffffffffffffffffffffffffffffffffffffffffffffffffffffff600386901b1c1916600185901b17855561100a565b5f858152602081207fffffffffffffffffffffffffffffffffffffffffffffffffffffffffffffffe08616915b8281101561179d5788860151825594840194600190910190840161177e565b50858210156117d957878501517fffffffffffffffffffffffffffffffffffffffffffffffffffffffffffffffff600388901b60f8161c191681555b5050505050600190811b0190555056","linkReferences":{}},"methodIdentifiers":{"approve(address,uint256)":"095ea7b3","balanceOf(address)":"70a08231","cancelOwnershipHandover()":"54d1f13d","completeOwnershipHandover(address)":"f04e283e","getApproved(uint256)":"081812fc","getGladiatorInfo(uint256)":"c1614cc2","getTokenCount()":"78a89567","gladiatorModels(uint256)":"d49bc9fb","gladiatorNames(uint256)":"3bec1003","grantRoles(address,uint256)":"1c10893f","hasAllRoles(address,uint256)":"1cd64df4","hasAnyRole(address,uint256)":"514e62fc","isApprovedForAll(address,address)":"e985e9c5","marketFactory()":"06ae7095","mintGladiator(address,string,string)":"45cb7098","name()":"06fdde03","owner()":"8da5cb5b","ownerOf(uint256)":"6352211e","ownershipHandoverExpiresAt(address)":"fee81cf4","renounceOwnership()":"715018a6","renounceRoles(uint256)":"183a4f6e","requestOwnershipHandover()":"25692962","revokeRoles(address,uint256)":"4a4ee7b1","rolesOf(address)":"2de94807","safeTransferFrom(address,address,uint256)":"42842e0e","safeTransferFrom(address,address,uint256,bytes)":"b88d4fde","setApprovalForAll(address,bool)":"a22cb465","setMarketFactory(address)":"4dcc434a","supportsInterface(bytes4)":"01ffc9a7","symbol()":"95d89b41","tokenURI(uint256)":"c87b56dd","transferFrom(address,address,uint256)":"23b872dd","transferOwnership(address)":"f2fde38b"},"id":30}