{"abi":[{"type":"constructor","inputs":[],"stateMutability":"nonpayable"},{"type":"function","name":"BASIS_POINTS","inputs":[],"outputs":[{"name":"","type":"uint256","internalType":"uint256"}],"stateMutability":"view"},{"type":"function","name":"MAX_PRICE","inputs":[],"outputs":[{"name":"","type":"uint256","internalType":"uint256"}],"stateMutability":"view"},{"type":"function","name":"MIN_ORDER_SIZE","inputs":[],"outputs":[{"name":"","type":"uint256","internalType":"uint256"}],"stateMutability":"view"},{"type":"function","name":"MIN_PRICE","inputs":[],"outputs":[{"name":"","type":"uint256","internalType":"uint256"}],"stateMutability":"view"},{"type":"function","name":"cancelOrder","inputs":[{"name":"marketId","type":"uint256","internalType":"uint256"},{"name":"outcomeIndex","type":"uint256","internalType":"uint256"},{"name":"orderId","type":"uint256","internalType":"uint256"}],"outputs":[],"stateMutability":"nonpayable"},{"type":"function","name":"cancelOwnershipHandover","inputs":[],"outputs":[],"stateMutability":"payable"},{"type":"function","name":"completeOwnershipHandover","inputs":[{"name":"pendingOwner","type":"address","internalType":"address"}],"outputs":[],"stateMutability":"payable"},{"type":"function","name":"createMarket","inputs":[{"name":"_token","type":"address","internalType":"address"},{"name":"_debateId","type":"uint256","internalType":"uint256"},{"name":"_outcomeNames","type":"string[]","internalType":"string[]"},{"name":"_bondingTarget","type":"uint256","internalType":"uint256"},{"name":"_bondingDuration","type":"uint256","internalType":"uint256"},{"name":"_basePrice","type":"uint256","internalType":"uint256"}],"outputs":[{"name":"marketId","type":"uint256","internalType":"uint256"}],"stateMutability":"nonpayable"},{"type":"function","name":"debateIdToMarketId","inputs":[{"name":"","type":"uint256","internalType":"uint256"}],"outputs":[{"name":"","type":"uint256","internalType":"uint256"}],"stateMutability":"view"},{"type":"function","name":"getBondingCurveDetails","inputs":[{"name":"marketId","type":"uint256","internalType":"uint256"}],"outputs":[{"name":"target","type":"uint256","internalType":"uint256"},{"name":"current","type":"uint256","internalType":"uint256"},{"name":"basePrice","type":"uint256","internalType":"uint256"},{"name":"currentPrice","type":"uint256","internalType":"uint256"},{"name":"isFulfilled","type":"bool","internalType":"bool"},{"name":"endTime","type":"uint256","internalType":"uint256"}],"stateMutability":"view"},{"type":"function","name":"getCurrentPrice","inputs":[{"name":"marketId","type":"uint256","internalType":"uint256"},{"name":"outcomeIndex","type":"uint256","internalType":"uint256"}],"outputs":[{"name":"","type":"uint256","internalType":"uint256"}],"stateMutability":"view"},{"type":"function","name":"getMarketDetails","inputs":[{"name":"marketId","type":"uint256","internalType":"uint256"}],"outputs":[{"name":"token","type":"address","internalType":"address"},{"name":"debateId","type":"uint256","internalType":"uint256"},{"name":"resolved","type":"bool","internalType":"bool"},{"name":"winningOutcome","type":"uint256","internalType":"uint256"},{"name":"bondingCurve","type":"tuple","internalType":"struct MarketFactory.BondingCurve","components":[{"name":"target","type":"uint256","internalType":"uint256"},{"name":"current","type":"uint256","internalType":"uint256"},{"name":"basePrice","type":"uint256","internalType":"uint256"},{"name":"currentPrice","type":"uint256","internalType":"uint256"},{"name":"isFulfilled","type":"bool","internalType":"bool"},{"name":"endTime","type":"uint256","internalType":"uint256"}]},{"name":"totalBondingAmount","type":"uint256","internalType":"uint256"}],"stateMutability":"view"},{"type":"function","name":"getMarketPrices","inputs":[{"name":"marketId","type":"uint256","internalType":"uint256"}],"outputs":[{"name":"","type":"uint256[]","internalType":"uint256[]"}],"stateMutability":"view"},{"type":"function","name":"getMarketVolumes","inputs":[{"name":"marketId","type":"uint256","internalType":"uint256"}],"outputs":[{"name":"","type":"uint256[]","internalType":"uint256[]"}],"stateMutability":"view"},{"type":"function","name":"getOrderBook","inputs":[{"name":"marketId","type":"uint256","internalType":"uint256"},{"name":"outcomeIndex","type":"uint256","internalType":"uint256"}],"outputs":[{"name":"","type":"tuple[]","internalType":"struct MarketFactory.Order[]","components":[{"name":"price","type":"uint256","internalType":"uint256"},{"name":"amount","type":"uint256","internalType":"uint256"},{"name":"outcomeIndex","type":"uint256","internalType":"uint256"},{"name":"owner","type":"address","internalType":"address"}]}],"stateMutability":"view"},{"type":"function","name":"getOrderBookSummary","inputs":[{"name":"marketId","type":"uint256","internalType":"uint256"},{"name":"outcomeIndex","type":"uint256","internalType":"uint256"}],"outputs":[{"name":"prices","type":"uint256[]","internalType":"uint256[]"},{"name":"amounts","type":"uint256[]","internalType":"uint256[]"},{"name":"owners","type":"address[]","internalType":"address[]"}],"stateMutability":"view"},{"type":"function","name":"getOutcomes","inputs":[{"name":"marketId","type":"uint256","internalType":"uint256"}],"outputs":[{"name":"","type":"tuple[]","internalType":"struct MarketFactory.Outcome[]","components":[{"name":"name","type":"string","internalType":"string"},{"name":"index","type":"uint256","internalType":"uint256"},{"name":"isValid","type":"bool","internalType":"bool"}]}],"stateMutability":"view"},{"type":"function","name":"getPosition","inputs":[{"name":"marketId","type":"uint256","internalType":"uint256"},{"name":"user","type":"address","internalType":"address"},{"name":"outcomeIndex","type":"uint256","internalType":"uint256"}],"outputs":[{"name":"","type":"uint256","internalType":"uint256"}],"stateMutability":"view"},{"type":"function","name":"getTotalVolume","inputs":[{"name":"marketId","type":"uint256","internalType":"uint256"}],"outputs":[{"name":"","type":"uint256","internalType":"uint256"}],"stateMutability":"view"},{"type":"function","name":"getUserPositions","inputs":[{"name":"marketId","type":"uint256","internalType":"uint256"},{"name":"user","type":"address","internalType":"address"}],"outputs":[{"name":"","type":"uint256[]","internalType":"uint256[]"}],"stateMutability":"view"},{"type":"function","name":"grantRoles","inputs":[{"name":"user","type":"address","internalType":"address"},{"name":"roles","type":"uint256","internalType":"uint256"}],"outputs":[],"stateMutability":"payable"},{"type":"function","name":"hasAllRoles","inputs":[{"name":"user","type":"address","internalType":"address"},{"name":"roles","type":"uint256","internalType":"uint256"}],"outputs":[{"name":"","type":"bool","internalType":"bool"}],"stateMutability":"view"},{"type":"function","name":"hasAnyRole","inputs":[{"name":"user","type":"address","internalType":"address"},{"name":"roles","type":"uint256","internalType":"uint256"}],"outputs":[{"name":"","type":"bool","internalType":"bool"}],"stateMutability":"view"},{"type":"function","name":"marketCount","inputs":[],"outputs":[{"name":"","type":"uint256","internalType":"uint256"}],"stateMutability":"view"},{"type":"function","name":"marketIdToDebateId","inputs":[{"name":"","type":"uint256","internalType":"uint256"}],"outputs":[{"name":"","type":"uint256","internalType":"uint256"}],"stateMutability":"view"},{"type":"function","name":"markets","inputs":[{"name":"","type":"uint256","internalType":"uint256"}],"outputs":[{"name":"token","type":"address","internalType":"address"},{"name":"debateId","type":"uint256","internalType":"uint256"},{"name":"resolved","type":"bool","internalType":"bool"},{"name":"winningOutcome","type":"uint256","internalType":"uint256"},{"name":"bondingCurve","type":"tuple","internalType":"struct MarketFactory.BondingCurve","components":[{"name":"target","type":"uint256","internalType":"uint256"},{"name":"current","type":"uint256","internalType":"uint256"},{"name":"basePrice","type":"uint256","internalType":"uint256"},{"name":"currentPrice","type":"uint256","internalType":"uint256"},{"name":"isFulfilled","type":"bool","internalType":"bool"},{"name":"endTime","type":"uint256","internalType":"uint256"}]},{"name":"totalBondingAmount","type":"uint256","internalType":"uint256"}],"stateMutability":"view"},{"type":"function","name":"outcomeVolumes","inputs":[{"name":"marketId","type":"uint256","internalType":"uint256"},{"name":"outcomeIndex","type":"uint256","internalType":"uint256"}],"outputs":[{"name":"","type":"uint256","internalType":"uint256"}],"stateMutability":"view"},{"type":"function","name":"owner","inputs":[],"outputs":[{"name":"result","type":"address","internalType":"address"}],"stateMutability":"view"},{"type":"function","name":"ownershipHandoverExpiresAt","inputs":[{"name":"pendingOwner","type":"address","internalType":"address"}],"outputs":[{"name":"result","type":"uint256","internalType":"uint256"}],"stateMutability":"view"},{"type":"function","name":"placeLimitOrder","inputs":[{"name":"marketId","type":"uint256","internalType":"uint256"},{"name":"outcomeIndex","type":"uint256","internalType":"uint256"},{"name":"price","type":"uint256","internalType":"uint256"},{"name":"amount","type":"uint256","internalType":"uint256"}],"outputs":[],"stateMutability":"nonpayable"},{"type":"function","name":"redeemWinningShares","inputs":[{"name":"marketId","type":"uint256","internalType":"uint256"}],"outputs":[],"stateMutability":"nonpayable"},{"type":"function","name":"renounceOwnership","inputs":[],"outputs":[],"stateMutability":"payable"},{"type":"function","name":"renounceRoles","inputs":[{"name":"roles","type":"uint256","internalType":"uint256"}],"outputs":[],"stateMutability":"payable"},{"type":"function","name":"requestOwnershipHandover","inputs":[],"outputs":[],"stateMutability":"payable"},{"type":"function","name":"resolveMarket","inputs":[{"name":"marketId","type":"uint256","internalType":"uint256"},{"name":"_winningOutcome","type":"uint256","internalType":"uint256"}],"outputs":[],"stateMutability":"nonpayable"},{"type":"function","name":"revokeRoles","inputs":[{"name":"user","type":"address","internalType":"address"},{"name":"roles","type":"uint256","internalType":"uint256"}],"outputs":[],"stateMutability":"payable"},{"type":"function","name":"rolesOf","inputs":[{"name":"user","type":"address","internalType":"address"}],"outputs":[{"name":"roles","type":"uint256","internalType":"uint256"}],"stateMutability":"view"},{"type":"function","name":"transferOwnership","inputs":[{"name":"newOwner","type":"address","internalType":"address"}],"outputs":[],"stateMutability":"payable"},{"type":"event","name":"BondingComplete","inputs":[{"name":"marketId","type":"uint256","indexed":true,"internalType":"uint256"},{"name":"timestamp","type":"uint256","indexed":false,"internalType":"uint256"},{"name":"finalPrice","type":"uint256","indexed":false,"internalType":"uint256"}],"anonymous":false},{"type":"event","name":"BondingContribution","inputs":[{"name":"marketId","type":"uint256","indexed":true,"internalType":"uint256"},{"name":"contributor","type":"address","indexed":true,"internalType":"address"},{"name":"amount","type":"uint256","indexed":false,"internalType":"uint256"}],"anonymous":false},{"type":"event","name":"MarketCreated","inputs":[{"name":"marketId","type":"uint256","indexed":true,"internalType":"uint256"},{"name":"token","type":"address","indexed":false,"internalType":"address"},{"name":"debateId","type":"uint256","indexed":true,"internalType":"uint256"},{"name":"outcomeNames","type":"string[]","indexed":false,"internalType":"string[]"}],"anonymous":false},{"type":"event","name":"MarketResolved","inputs":[{"name":"marketId","type":"uint256","indexed":true,"internalType":"uint256"},{"name":"winningOutcomeIndex","type":"uint256","indexed":true,"internalType":"uint256"}],"anonymous":false},{"type":"event","name":"OrderCancelled","inputs":[{"name":"marketId","type":"uint256","indexed":true,"internalType":"uint256"},{"name":"trader","type":"address","indexed":true,"internalType":"address"},{"name":"outcomeIndex","type":"uint256","indexed":true,"internalType":"uint256"},{"name":"price","type":"uint256","indexed":false,"internalType":"uint256"},{"name":"amount","type":"uint256","indexed":false,"internalType":"uint256"}],"anonymous":false},{"type":"event","name":"OrderMatched","inputs":[{"name":"marketId","type":"uint256","indexed":true,"internalType":"uint256"},{"name":"buyer","type":"address","indexed":true,"internalType":"address"},{"name":"seller","type":"address","indexed":true,"internalType":"address"},{"name":"outcomeIndex","type":"uint256","indexed":false,"internalType":"uint256"},{"name":"price","type":"uint256","indexed":false,"internalType":"uint256"},{"name":"amount","type":"uint256","indexed":false,"internalType":"uint256"}],"anonymous":false},{"type":"event","name":"OrderPlaced","inputs":[{"name":"marketId","type":"uint256","indexed":true,"internalType":"uint256"},{"name":"trader","type":"address","indexed":true,"internalType":"address"},{"name":"outcomeIndex","type":"uint256","indexed":true,"internalType":"uint256"},{"name":"price","type":"uint256","indexed":false,"internalType":"uint256"},{"name":"amount","type":"uint256","indexed":false,"internalType":"uint256"}],"anonymous":false},{"type":"event","name":"OutcomeAdded","inputs":[{"name":"marketId","type":"uint256","indexed":true,"internalType":"uint256"},{"name":"index","type":"uint256","indexed":true,"internalType":"uint256"},{"name":"name","type":"string","indexed":false,"internalType":"string"}],"anonymous":false},{"type":"event","name":"OwnershipHandoverCanceled","inputs":[{"name":"pendingOwner","type":"address","indexed":true,"internalType":"address"}],"anonymous":false},{"type":"event","name":"OwnershipHandoverRequested","inputs":[{"name":"pendingOwner","type":"address","indexed":true,"internalType":"address"}],"anonymous":false},{"type":"event","name":"OwnershipTransferred","inputs":[{"name":"oldOwner","type":"address","indexed":true,"internalType":"address"},{"name":"newOwner","type":"address","indexed":true,"internalType":"address"}],"anonymous":false},{"type":"event","name":"RolesUpdated","inputs":[{"name":"user","type":"address","indexed":true,"internalType":"address"},{"name":"roles","type":"uint256","indexed":true,"internalType":"uint256"}],"anonymous":false},{"type":"event","name":"SharesRedeemed","inputs":[{"name":"marketId","type":"uint256","indexed":true,"internalType":"uint256"},{"name":"trader","type":"address","indexed":true,"internalType":"address"},{"name":"amount","type":"uint256","indexed":false,"internalType":"uint256"}],"anonymous":false},{"type":"error","name":"AlreadyInitialized","inputs":[]},{"type":"error","name":"NewOwnerIsZeroAddress","inputs":[]},{"type":"error","name":"NoHandoverRequest","inputs":[]},{"type":"error","name":"Reentrancy","inputs":[]},{"type":"error","name":"Unauthorized","inputs":[]}],"bytecode":{"object":"0x6080604052348015600e575f80fd5b50601633601a565b6055565b6001600160a01b0316638b78c6d819819055805f7f8be0079c531659141344cd1fd0a4f28419497f9722a3daafe3b4186f6b6457e08180a350565b6130a7806100625f395ff3fe608060405260043610610277575f3560e01c80638601cda91161014b578063ceb436e9116100c6578063ec9790821161007c578063f04e283e11610062578063f04e283e1461089a578063f2fde38b146108ad578063fee81cf4146108c0575f80fd5b8063ec97908214610866578063efdd08111461087b575f80fd5b8063e15eecea116100ac578063e15eecea14610807578063e1f1c4a714610826578063ebb0ee9c1461083b575f80fd5b8063ceb436e9146107cd578063d3f82d8e146107ec575f80fd5b8063a9c4e49c1161011b578063af42cfed11610101578063af42cfed1461065c578063b06c1ba31461067b578063b1283e771461071f575f80fd5b8063a9c4e49c146105c3578063ad9f20a614610648575f80fd5b80638601cda9146104e15780638da5cb5b146105195780639e73721b1461056c578063a84fb56114610598575f80fd5b80632de94807116101f5578063643e4b3d116101ab5780637af68f8f116101915780637af68f8f146104845780637fc1f800146104a357806385b91d8e146104c2575f80fd5b8063643e4b3d1461044e578063715018a61461047c575f80fd5b8063514e62fc116101db578063514e62fc146103f257806354d1f13d14610427578063605573331461042f575f80fd5b80632de94807146103ae5780634a4ee7b1146103df575f80fd5b8063183a4f6e1161024a5780631c10893f116102305780631c10893f1461034e5780631cd64df41461036157806325692962146103a6575f80fd5b8063183a4f6e1461031a57806319cd56531461032f575f80fd5b806301c11d961461027b57806304673368146102a357806304940406146102c257806308bf2d0d146102ee575b5f80fd5b348015610286575f80fd5b506102906126ac81565b6040519081526020015b60405180910390f35b3480156102ae575f80fd5b506102906102bd36600461278b565b6108f1565b3480156102cd575f80fd5b506102e16102dc3660046127d3565b6109b3565b60405161029a9190612837565b3480156102f9575f80fd5b5061030d61030836600461278b565b610a7d565b60405161029a9190612850565b61032d6103283660046128c9565b610b81565b005b34801561033a575f80fd5b506102906103493660046128c9565b610b8e565b61032d61035c3660046128e0565b610bd6565b34801561036c575f80fd5b5061039661037b3660046128e0565b638b78c6d8600c9081525f9290925260209091205481161490565b604051901515815260200161029a565b61032d610bec565b3480156103b9575f80fd5b506102906103c8366004612908565b638b78c6d8600c9081525f91909152602090205490565b61032d6103ed3660046128e0565b610c39565b3480156103fd575f80fd5b5061039661040c3660046128e0565b638b78c6d8600c9081525f9290925260209091205416151590565b61032d610c4b565b34801561043a575f80fd5b5061032d61044936600461278b565b610c84565b348015610459575f80fd5b5061046d61046836600461278b565b610e1d565b60405161029a93929190612921565b61032d610fea565b34801561048f575f80fd5b506102e161049e3660046128c9565b610ffd565b3480156104ae575f80fd5b506102906104bd3660046129a1565b61109c565b3480156104cd575f80fd5b506102e16104dc3660046128c9565b611138565b3480156104ec575f80fd5b506102906104fb36600461278b565b5f91825260208281526040808420928452600f909201905290205490565b348015610524575f80fd5b507fffffffffffffffffffffffffffffffffffffffffffffffffffffffff748739275460405173ffffffffffffffffffffffffffffffffffffffff909116815260200161029a565b348015610577575f80fd5b5061058b6105863660046128c9565b611234565b60405161029a9190612a34565b3480156105a3575f80fd5b506102906105b23660046128c9565b60016020525f908152604090205481565b3480156105ce575f80fd5b506106196105dd3660046128c9565b5f90815260208190526040902060048101546005820154600683015460078401546008850154600990950154939592949193909260ff90921691565b6040805196875260208701959095529385019290925260608401521515608083015260a082015260c00161029a565b348015610653575f80fd5b50610290600181565b348015610667575f80fd5b50610290610676366004612b43565b61134b565b348015610686575f80fd5b5061069a6106953660046128c9565b611784565b6040805173ffffffffffffffffffffffffffffffffffffffff90971687526020808801969096529315158685015260608087019390935281516080808801919091529482015160a0808801919091529382015160c08701529181015160e08601529283015115156101008501529101516101208301526101408201526101600161029a565b34801561072a575f80fd5b5061069a6107393660046128c9565b5f60208181529181526040908190208054600182015460028301546003840154855160c0810187526004860154815260058601549781019790975260068501549587019590955260078401546060870152600884015460ff90811615156080880152600985015460a0880152600a9094015473ffffffffffffffffffffffffffffffffffffffff9093169591949316929186565b3480156107d8575f80fd5b5061032d6107e7366004612cb3565b611857565b3480156107f7575f80fd5b50610290670de0b6b3a764000081565b348015610812575f80fd5b5061032d610821366004612cdc565b611ba2565b348015610831575f80fd5b5061029061271081565b348015610846575f80fd5b506102906108553660046128c9565b60026020525f908152604090205481565b348015610871575f80fd5b5061029060035481565b348015610886575f80fd5b5061032d6108953660046128c9565b611f71565b61032d6108a8366004612908565b6120f6565b61032d6108bb366004612908565b612130565b3480156108cb575f80fd5b506102906108da366004612908565b63389a75e1600c9081525f91909152602090205490565b5f828152602081905260408120600b81015483106109565760405162461bcd60e51b815260206004820152600f60248201527f496e76616c6964206f7574636f6d65000000000000000000000000000000000060448201526064015b60405180910390fd5b5f838152600c820160205260408120805490910361098757505f838152600d909101602052604090205490506109ad565b805f8154811061099957610999612d0b565b905f5260205f2090600402015f0154925050505b92915050565b5f828152602081905260408120600b8101546060929067ffffffffffffffff8111156109e1576109e1612ac7565b604051908082528060200260200182016040528015610a0a578160200160208202803683370190505b5090505f5b600b830154811015610a745773ffffffffffffffffffffffffffffffffffffffff85165f908152600e8401602090815260408083208484529091529020548251839083908110610a6157610a61612d0b565b6020908102919091010152600101610a0f565b50949350505050565b5f828152602081905260409020600b810154606091908310610ae15760405162461bcd60e51b815260206004820152600f60248201527f496e76616c6964206f7574636f6d650000000000000000000000000000000000604482015260640161094d565b5f838152600c82016020908152604080832080548251818502810185019093528083529193909284015b82821015610b74575f848152602090819020604080516080810182526004860290920180548352600180820154848601526002820154928401929092526003015473ffffffffffffffffffffffffffffffffffffffff1660608301529083529092019101610b0b565b5050505091505092915050565b610b8b3382612156565b50565b5f81815260208190526040812081805b600b830154811015610bce575f818152600f84016020526040902054610bc49083612d65565b9150600101610b9e565b509392505050565b610bde612161565b610be88282612196565b5050565b5f6202a30067ffffffffffffffff164201905063389a75e1600c52335f52806020600c2055337fdbf36a107da19e49527a7176a1babf963b4b0ff8cde35ee35d6cd8f1f9ac7e1d5f80a250565b610c41612161565b610be88282612156565b63389a75e1600c52335f525f6020600c2055337ffa7b8eab7da67f412cc9575ed43464468f9bfbae89d1675917346ca6d8fe3c925f80a2565b610c8c612161565b5f828152602081905260409020600281015460ff1615610cee5760405162461bcd60e51b815260206004820152601060248201527f416c7265616479207265736f6c76656400000000000000000000000000000000604482015260640161094d565b600b8101548210610d415760405162461bcd60e51b815260206004820152600f60248201527f496e76616c6964206f7574636f6d650000000000000000000000000000000000604482015260640161094d565b80600b018281548110610d5657610d56612d0b565b5f91825260209091206002600390920201015460ff16610db85760405162461bcd60e51b815260206004820152600f60248201527f496e76616c6964206f7574636f6d650000000000000000000000000000000000604482015260640161094d565b6002810180547fffffffffffffffffffffffffffffffffffffffffffffffffffffffffffffff0016600117905560038101829055604051829084907f6dfc24f0f2fb42e49fb4fa3ffa8abb148cab908a1fb8335b3f128a08b2594af1905f90a3505050565b5f82815260208181526040808320848452600c81019092529091208054606092839283928067ffffffffffffffff811115610e5a57610e5a612ac7565b604051908082528060200260200182016040528015610e83578160200160208202803683370190505b5095508067ffffffffffffffff811115610e9f57610e9f612ac7565b604051908082528060200260200182016040528015610ec8578160200160208202803683370190505b5094508067ffffffffffffffff811115610ee457610ee4612ac7565b604051908082528060200260200182016040528015610f0d578160200160208202803683370190505b5093505f5b81811015610fdf575f838281548110610f2d57610f2d612d0b565b905f5260205f2090600402019050805f0154888381518110610f5157610f51612d0b565b6020026020010181815250508060010154878381518110610f7457610f74612d0b565b60209081029190910101526003810154865173ffffffffffffffffffffffffffffffffffffffff90911690879084908110610fb157610fb1612d0b565b73ffffffffffffffffffffffffffffffffffffffff9092166020928302919091019091015250600101610f12565b505050509250925092565b610ff2612161565b610ffb5f6121a2565b565b5f818152602081905260408120600b8101546060929067ffffffffffffffff81111561102b5761102b612ac7565b604051908082528060200260200182016040528015611054578160200160208202803683370190505b5090505f5b600b830154811015610bce575f818152600f84016020526040902054825183908390811061108957611089612d0b565b6020908102919091010152600101611059565b5f838152602081905260408120600b81015483106110fc5760405162461bcd60e51b815260206004820152600f60248201527f496e76616c6964206f7574636f6d650000000000000000000000000000000000604482015260640161094d565b73ffffffffffffffffffffffffffffffffffffffff84165f908152600e9091016020908152604080832085845290915290205490509392505050565b5f818152602081905260408120600b8101546060929067ffffffffffffffff81111561116657611166612ac7565b60405190808252806020026020018201604052801561118f578160200160208202803683370190505b5090505f5b600b830154811015610bce575f818152600c8401602052604090208054156111fa57805f815481106111c8576111c8612d0b565b905f5260205f2090600402015f01548383815181106111e9576111e9612d0b565b60200260200101818152505061122b565b5f828152600d85016020526040902054835184908490811061121e5761121e612d0b565b6020026020010181815250505b50600101611194565b5f81815260208181526040808320600b01805482518185028101850190935280835260609492939192909184015b82821015611340578382905f5260205f2090600302016040518060600160405290815f8201805461129290612d78565b80601f01602080910402602001604051908101604052809291908181526020018280546112be90612d78565b80156113095780601f106112e057610100808354040283529160200191611309565b820191905f5260205f20905b8154815290600101906020018083116112ec57829003601f168201915b505050918352505060018281015460208084019190915260029093015460ff16151560409092019190915291835292019101611262565b505050509050919050565b5f73ffffffffffffffffffffffffffffffffffffffff87166113af5760405162461bcd60e51b815260206004820152600d60248201527f496e76616c696420746f6b656e00000000000000000000000000000000000000604482015260640161094d565b5f868152600160205260409020541561140a5760405162461bcd60e51b815260206004820152600d60248201527f4d61726b65742065786973747300000000000000000000000000000000000000604482015260640161094d565b600185511161145b5760405162461bcd60e51b815260206004820152601660248201527f4e656564206d756c7469706c65206f7574636f6d657300000000000000000000604482015260640161094d565b5f84116114aa5760405162461bcd60e51b815260206004820152601660248201527f496e76616c696420626f6e64696e672074617267657400000000000000000000604482015260640161094d565b5f83116114f95760405162461bcd60e51b815260206004820152601860248201527f496e76616c696420626f6e64696e67206475726174696f6e0000000000000000604482015260640161094d565b60038054905f61150883612dc9565b909155505f8181526020818152604080832080547fffffffffffffffffffffffff00000000000000000000000000000000000000001673ffffffffffffffffffffffffffffffffffffffff8d16178155600181018b90556002810180547fffffffffffffffffffffffffffffffffffffffffffffffffffffffffffffff00169055815160c0810183528981529283018490529082018690526060820186905260808201929092529192509060a081016115c18642612d65565b90528051600483015560208101516005830155604081015160068301556060810151600783015560808101516008830180547fffffffffffffffffffffffffffffffffffffffffffffffffffffffffffffff001691151591909117905560a0015160098201555f5b865181101561171a5781600b01604051806060016040528089848151811061165357611653612d0b565b602090810291909101810151825281810185905260016040909201829052835491820184555f93845290922081519192600302019081906116949082612e4c565b50602082015181600101556040820151816002015f6101000a81548160ff021916908315150217905550505080837f13b320dbbda9468c124512288f63226d8154da6a3f8756dc29beb968e5671b448984815181106116f5576116f5612d0b565b602002602001015160405161170a9190612f68565b60405180910390a3600101611629565b505f87815260016020908152604080832085905584835260029091529081902088905551879083907fcb639a85040a8c82b5868e478676ef375c27147fae484f6c2e1851b0d2932b2890611771908c908b90612f7a565b60405180910390a3509695505050505050565b5f805f806117bd6040518060c001604052805f81526020015f81526020015f81526020015f81526020015f151581526020015f81525090565b5050505f928352505060208181526040918290208054600182015460028301546003840154600a850154875160c0810189526004870154815260058701549781019790975260068601549787019790975260078501546060870152600885015460ff9081161515608088015260099095015460a087015273ffffffffffffffffffffffffffffffffffffffff909316969195931693919290565b3068929eee149b4bd2126854036118755763ab143c065f526004601cfd5b3068929eee149b4bd21268555f838152602081905260409020600b81015483106118e15760405162461bcd60e51b815260206004820152600f60248201527f496e76616c6964206f7574636f6d650000000000000000000000000000000000604482015260640161094d565b5f838152600c820160205260409020805483106119405760405162461bcd60e51b815260206004820152600d60248201527f496e76616c6964206f7264657200000000000000000000000000000000000000604482015260640161094d565b5f81848154811061195357611953612d0b565b5f918252602090912060036004909202019081015490915073ffffffffffffffffffffffffffffffffffffffff1633146119cf5760405162461bcd60e51b815260206004820152600960248201527f4e6f74206f776e65720000000000000000000000000000000000000000000000604482015260640161094d565b5f612710825f015483600101546119e69190613018565b6119f0919061302f565b83549091508390611a0390600190613067565b81548110611a1357611a13612d0b565b905f5260205f209060040201838681548110611a3157611a31612d0b565b5f918252602090912082546004909202019081556001808301549082015560028083015490820155600391820154910180547fffffffffffffffffffffffff00000000000000000000000000000000000000001673ffffffffffffffffffffffffffffffffffffffff9092169190911790558254839080611ab457611ab461307a565b5f8281526020812060047fffffffffffffffffffffffffffffffffffffffffffffffffffffffffffffffff9093019283020181815560018101829055600281019190915560030180547fffffffffffffffffffffffff000000000000000000000000000000000000000016905590558354611b469073ffffffffffffffffffffffffffffffffffffffff163383612207565b81546001830154604080519283526020830191909152879133918a917ffb7a49988665620b905f05162683830b560ef686cdd9a08461994023add09383910160405180910390a4505050503868929eee149b4bd2126855505050565b3068929eee149b4bd212685403611bc05763ab143c065f526004601cfd5b3068929eee149b4bd21268555f848152602081905260409020600281015460ff1615611c2e5760405162461bcd60e51b815260206004820152600f60248201527f4d61726b6574207265736f6c7665640000000000000000000000000000000000604482015260640161094d565b600b8101548410611c815760405162461bcd60e51b815260206004820152600f60248201527f496e76616c6964206f7574636f6d650000000000000000000000000000000000604482015260640161094d565b80600b018481548110611c9657611c96612d0b565b5f91825260209091206002600390920201015460ff16611cf85760405162461bcd60e51b815260206004820152600f60248201527f496e76616c6964206f7574636f6d650000000000000000000000000000000000604482015260640161094d565b60018310158015611d0b57506126ac8311155b611d575760405162461bcd60e51b815260206004820152600d60248201527f496e76616c696420707269636500000000000000000000000000000000000000604482015260640161094d565b670de0b6b3a7640000821015611daf5760405162461bcd60e51b815260206004820152600f60248201527f4f7264657220746f6f20736d616c6c0000000000000000000000000000000000604482015260640161094d565b5f612710611dbd8585613018565b611dc7919061302f565b8254909150611dee9073ffffffffffffffffffffffffffffffffffffffff16333084612250565b600882015460ff16158015611e07575060098201544211155b15611e1657611e1686846122a8565b5f611e2487878787336123df565b90508015611ef9575f868152600c84016020908152604080832081516080810183528981528084018681528184018c81523360608401818152855460018082018855968a52888a209551600490910290950194855592519484019490945551600283015551600390910180547fffffffffffffffffffffffff00000000000000000000000000000000000000001673ffffffffffffffffffffffffffffffffffffffff9092169190911790558352600e8601825280832089845290915281208054839290611ef3908490612d65565b90915550505b5f868152600f8401602052604081208054869290611f18908490612d65565b90915550506040805186815260208101869052879133918a917f73d269ae9c85bfa23c18c756ce946fee3d4bd61627467b157781630dfd5795e0910160405180910390a45050503868929eee149b4bd212685550505050565b3068929eee149b4bd212685403611f8f5763ab143c065f526004601cfd5b3068929eee149b4bd21268555f818152602081905260409020600281015460ff16611ffc5760405162461bcd60e51b815260206004820152600c60248201527f4e6f74207265736f6c7665640000000000000000000000000000000000000000604482015260640161094d565b335f908152600e82016020908152604080832060038501548452909152902054806120695760405162461bcd60e51b815260206004820152601160248201527f4e6f2077696e6e696e6720736861726573000000000000000000000000000000604482015260640161094d565b335f818152600e8401602090815260408083206003870154845290915281205582546120ae9173ffffffffffffffffffffffffffffffffffffffff9091169083612207565b604051818152339084907f374ddac058d6545dd0b061fc8e54f7834b2459d35e96ce508588dd9ab07c701d9060200160405180910390a350503868929eee149b4bd212685550565b6120fe612161565b63389a75e1600c52805f526020600c20805442111561212457636f5e88185f526004601cfd5b5f9055610b8b816121a2565b612138612161565b8060601b61214d57637448fbae5f526004601cfd5b610b8b816121a2565b610be882825f612734565b7fffffffffffffffffffffffffffffffffffffffffffffffffffffffff74873927543314610ffb576382b429005f526004601cfd5b610be882826001612734565b7fffffffffffffffffffffffffffffffffffffffffffffffffffffffff74873927805473ffffffffffffffffffffffffffffffffffffffff9092169182907f8be0079c531659141344cd1fd0a4f28419497f9722a3daafe3b4186f6b6457e05f80a355565b81601452806034526fa9059cbb0000000000000000000000005f5260205f604460105f875af13d1560015f51141716612247576390b8ec185f526004601cfd5b5f603452505050565b60405181606052826040528360601b602c526f23b872dd000000000000000000000000600c5260205f6064601c5f895af13d1560015f5114171661229b57637939f4245f526004601cfd5b5f60605260405250505050565b5f828152602081905260408120600581018054919284926122ca908490612d65565b925050819055508181600a015f8282546122e49190612d65565b90915550506004810154600582015460068301546123029190613018565b61230c919061302f565b600682015461231b9190612d65565b600782015560048101546005820154106123a3576008810180547fffffffffffffffffffffffffffffffffffffffffffffffffffffffffffffff00166001179055600781015460405184917fd59d158c25ee8b470416983bd9b735fd1f2d73b20561bd761e46e293df2a425e9161239a91428252602082015260400190565b60405180910390a25b604051828152339084907f66ddce4e4b04bcafc01fcc8947c22b8a3e37ef36f42c2fd2d71406f8b4b35c549060200160405180910390a3505050565b5f85815260208181526040808320878452600c8101909252822084835b82548110801561240b57505f82115b15612727575f83828154811061242357612423612d0b565b905f5260205f209060040201905088815f015411156124425750612727565b5f8160010154841061245857816001015461245a565b835b73ffffffffffffffffffffffffffffffffffffffff89165f908152600e8801602090815260408083208f84529091528120805492935083929091906124a0908490612d65565b9091555050600382015473ffffffffffffffffffffffffffffffffffffffff165f908152600e8701602090815260408083208e8452909152812080548392906124ea908490613067565b9250508190555080826001015f8282546125049190613067565b9091555061251490508185613067565b9350815f015486600d015f8d81526020019081526020015f2081905550816003015f9054906101000a900473ffffffffffffffffffffffffffffffffffffffff1673ffffffffffffffffffffffffffffffffffffffff168873ffffffffffffffffffffffffffffffffffffffff168d7f834a5ca2fecc4c3bddb180e1bbb4f84a09d86c8d8aa07d8991bcca750005b0398e865f0154866040516125ca939291909283526020830191909152604082015260600190565b60405180910390a481600101545f0361271257845485906125ed90600190613067565b815481106125fd576125fd612d0b565b905f5260205f20906004020185848154811061261b5761261b612d0b565b5f918252602090912082546004909202019081556001808301549082015560028083015490820155600391820154910180547fffffffffffffffffffffffff00000000000000000000000000000000000000001673ffffffffffffffffffffffffffffffffffffffff909216919091179055845485908061269e5761269e61307a565b5f8281526020812060047fffffffffffffffffffffffffffffffffffffffffffffffffffffffffffffffff9093019283020181815560018101829055600281019190915560030180547fffffffffffffffffffffffff00000000000000000000000000000000000000001690559055612720565b8261271c81612dc9565b9350505b50506123fc565b5098975050505050505050565b638b78c6d8600c52825f526020600c20805483811783612755575080841681185b80835580600c5160601c7f715ad5ce61fc9595c7b415289d59cf203f23a94fa06f04af7e489a0a76e1fe265f80a3505050505050565b5f806040838503121561279c575f80fd5b50508035926020909101359150565b803573ffffffffffffffffffffffffffffffffffffffff811681146127ce575f80fd5b919050565b5f80604083850312156127e4575f80fd5b823591506127f4602084016127ab565b90509250929050565b5f815180845260208085019450602084015f5b8381101561282c57815187529582019590820190600101612810565b509495945050505050565b602081525f61284960208301846127fd565b9392505050565b602080825282518282018190525f919060409081850190868401855b828110156128bc578151805185528681015187860152858101518686015260609081015173ffffffffffffffffffffffffffffffffffffffff16908501526080909301929085019060010161286c565b5091979650505050505050565b5f602082840312156128d9575f80fd5b5035919050565b5f80604083850312156128f1575f80fd5b6128fa836127ab565b946020939093013593505050565b5f60208284031215612918575f80fd5b612849826127ab565b606081525f61293360608301866127fd565b6020838203602085015261294782876127fd565b8481036040860152855180825260208088019450909101905f5b8181101561299357845173ffffffffffffffffffffffffffffffffffffffff1683529383019391830191600101612961565b509098975050505050505050565b5f805f606084860312156129b3575f80fd5b833592506129c3602085016127ab565b9150604084013590509250925092565b5f81518084525f5b818110156129f7576020818501810151868301820152016129db565b505f6020828601015260207fffffffffffffffffffffffffffffffffffffffffffffffffffffffffffffffe0601f83011685010191505092915050565b5f60208083018184528085518083526040925060408601915060408160051b8701018488015f5b83811015612993577fffffffffffffffffffffffffffffffffffffffffffffffffffffffffffffffc0898403018552815160608151818652612a9f828701826129d3565b838b0151878c0152928901511515958901959095525094870194925090860190600101612a5b565b7f4e487b71000000000000000000000000000000000000000000000000000000005f52604160045260245ffd5b604051601f82017fffffffffffffffffffffffffffffffffffffffffffffffffffffffffffffffe016810167ffffffffffffffff81118282101715612b3b57612b3b612ac7565b604052919050565b5f805f805f8060c08789031215612b58575f80fd5b612b61876127ab565b95506020870135945067ffffffffffffffff8060408901351115612b83575f80fd5b6040880135880189601f820112612b98575f80fd5b8181351115612ba957612ba9612ac7565b612bb96020823560051b01612af4565b81358082526020808301929160051b8401018c1015612bd6575f80fd5b602083015b6020843560051b850101811015612c8e578481351115612bf9575f80fd5b803584018d603f820112612c0b575f80fd5b602081013586811115612c2057612c20612ac7565b612c5160207fffffffffffffffffffffffffffffffffffffffffffffffffffffffffffffffe0601f84011601612af4565b8181528f6040838501011115612c65575f80fd5b816040840160208301375f60208383010152808652505050602083019250602081019050612bdb565b50989b979a5097986060810135985060808101359760a0909101359650945050505050565b5f805f60608486031215612cc5575f80fd5b505081359360208301359350604090920135919050565b5f805f8060808587031215612cef575f80fd5b5050823594602084013594506040840135936060013592509050565b7f4e487b71000000000000000000000000000000000000000000000000000000005f52603260045260245ffd5b7f4e487b71000000000000000000000000000000000000000000000000000000005f52601160045260245ffd5b808201808211156109ad576109ad612d38565b600181811c90821680612d8c57607f821691505b602082108103612dc3577f4e487b71000000000000000000000000000000000000000000000000000000005f52602260045260245ffd5b50919050565b5f7fffffffffffffffffffffffffffffffffffffffffffffffffffffffffffffffff8203612df957612df9612d38565b5060010190565b601f821115612e4757805f5260205f20601f840160051c81016020851015612e255750805b601f840160051c820191505b81811015612e44575f8155600101612e31565b50505b505050565b815167ffffffffffffffff811115612e6657612e66612ac7565b612e7a81612e748454612d78565b84612e00565b602080601f831160018114612ecc575f8415612e965750858301515b7fffffffffffffffffffffffffffffffffffffffffffffffffffffffffffffffff600386901b1c1916600185901b178555612f60565b5f858152602081207fffffffffffffffffffffffffffffffffffffffffffffffffffffffffffffffe08616915b82811015612f1857888601518255948401946001909101908401612ef9565b5085821015612f5457878501517fffffffffffffffffffffffffffffffffffffffffffffffffffffffffffffffff600388901b60f8161c191681555b505060018460011b0185555b505050505050565b602081525f61284960208301846129d3565b5f6040820173ffffffffffffffffffffffffffffffffffffffff8516835260206040602085015281855180845260608601915060608160051b8701019350602087015f5b8281101561300a577fffffffffffffffffffffffffffffffffffffffffffffffffffffffffffffffa0888703018452612ff88683516129d3565b95509284019290840190600101612fbe565b509398975050505050505050565b80820281158282048414176109ad576109ad612d38565b5f82613062577f4e487b71000000000000000000000000000000000000000000000000000000005f52601260045260245ffd5b500490565b818103818111156109ad576109ad612d38565b7f4e487b71000000000000000000000000000000000000000000000000000000005f52603160045260245ffd","linkReferences":{}},"methodIdentifiers":{"BASIS_POINTS()":"e1f1c4a7","MAX_PRICE()":"01c11d96","MIN_ORDER_SIZE()":"d3f82d8e","MIN_PRICE()":"ad9f20a6","cancelOrder(uint256,uint256,uint256)":"ceb436e9","cancelOwnershipHandover()":"54d1f13d","completeOwnershipHandover(address)":"f04e283e","createMarket(address,uint256,string[],uint256,uint256,uint256)":"af42cfed","debateIdToMarketId(uint256)":"a84fb561","getBondingCurveDetails(uint256)":"a9c4e49c","getCurrentPrice(uint256,uint256)":"04673368","getMarketDetails(uint256)":"b06c1ba3","getMarketPrices(uint256)":"85b91d8e","getMarketVolumes(uint256)":"7af68f8f","getOrderBook(uint256,uint256)":"08bf2d0d","getOrderBookSummary(uint256,uint256)":"643e4b3d","getOutcomes(uint256)":"9e73721b","getPosition(uint256,address,uint256)":"7fc1f800","getTotalVolume(uint256)":"19cd5653","getUserPositions(uint256,address)":"04940406","grantRoles(address,uint256)":"1c10893f","hasAllRoles(address,uint256)":"1cd64df4","hasAnyRole(address,uint256)":"514e62fc","marketCount()":"ec979082","marketIdToDebateId(uint256)":"ebb0ee9c","markets(uint256)":"b1283e77","outcomeVolumes(uint256,uint256)":"8601cda9","owner()":"8da5cb5b","ownershipHandoverExpiresAt(address)":"fee81cf4","placeLimitOrder(uint256,uint256,uint256,uint256)":"e15eecea","redeemWinningShares(uint256)":"efdd0811","renounceOwnership()":"715018a6","renounceRoles(uint256)":"183a4f6e","requestOwnershipHandover()":"25692962","resolveMarket(uint256,uint256)":"60557333","revokeRoles(address,uint256)":"4a4ee7b1","rolesOf(address)":"2de94807","transferOwnership(address)":"f2fde38b"},"id":29}