{"abi":[{"type":"constructor","inputs":[{"name":"_gladiatorNFT","type":"address","internalType":"address"}],"stateMutability":"nonpayable"},{"type":"function","name":"BASIS_POINTS","inputs":[],"outputs":[{"name":"","type":"uint256","internalType":"uint256"}],"stateMutability":"view"},{"type":"function","name":"MAX_PRICE","inputs":[],"outputs":[{"name":"","type":"uint256","internalType":"uint256"}],"stateMutability":"view"},{"type":"function","name":"MIN_ORDER_SIZE","inputs":[],"outputs":[{"name":"","type":"uint256","internalType":"uint256"}],"stateMutability":"view"},{"type":"function","name":"MIN_PRICE","inputs":[],"outputs":[{"name":"","type":"uint256","internalType":"uint256"}],"stateMutability":"view"},{"type":"function","name":"cancelOrder","inputs":[{"name":"marketId","type":"uint256","internalType":"uint256"},{"name":"gladiatorIndex","type":"uint256","internalType":"uint256"},{"name":"orderId","type":"uint256","internalType":"uint256"}],"outputs":[],"stateMutability":"nonpayable"},{"type":"function","name":"cancelOwnershipHandover","inputs":[],"outputs":[],"stateMutability":"payable"},{"type":"function","name":"completeOwnershipHandover","inputs":[{"name":"pendingOwner","type":"address","internalType":"address"}],"outputs":[],"stateMutability":"payable"},{"type":"function","name":"createMarket","inputs":[{"name":"_token","type":"address","internalType":"address"},{"name":"_debateId","type":"uint256","internalType":"uint256"},{"name":"_judgeAI","type":"address","internalType":"address"},{"name":"_bondingTarget","type":"uint256","internalType":"uint256"},{"name":"_bondingDuration","type":"uint256","internalType":"uint256"},{"name":"_basePrice","type":"uint256","internalType":"uint256"}],"outputs":[{"name":"marketId","type":"uint256","internalType":"uint256"}],"stateMutability":"nonpayable"},{"type":"function","name":"debateIdToMarketId","inputs":[{"name":"","type":"uint256","internalType":"uint256"}],"outputs":[{"name":"","type":"uint256","internalType":"uint256"}],"stateMutability":"view"},{"type":"function","name":"getBondingCurveDetails","inputs":[{"name":"marketId","type":"uint256","internalType":"uint256"}],"outputs":[{"name":"target","type":"uint256","internalType":"uint256"},{"name":"current","type":"uint256","internalType":"uint256"},{"name":"basePrice","type":"uint256","internalType":"uint256"},{"name":"currentPrice","type":"uint256","internalType":"uint256"},{"name":"isFulfilled","type":"bool","internalType":"bool"},{"name":"endTime","type":"uint256","internalType":"uint256"}],"stateMutability":"view"},{"type":"function","name":"getBribesForRound","inputs":[{"name":"marketId","type":"uint256","internalType":"uint256"},{"name":"roundId","type":"uint256","internalType":"uint256"}],"outputs":[{"name":"bribers","type":"address[]","internalType":"address[]"},{"name":"amounts","type":"uint256[]","internalType":"uint256[]"},{"name":"information","type":"string[]","internalType":"string[]"},{"name":"timestamps","type":"uint256[]","internalType":"uint256[]"},{"name":"outcomeIndexes","type":"uint256[]","internalType":"uint256[]"}],"stateMutability":"view"},{"type":"function","name":"getCurrentPrice","inputs":[{"name":"marketId","type":"uint256","internalType":"uint256"},{"name":"gladiatorIndex","type":"uint256","internalType":"uint256"}],"outputs":[{"name":"","type":"uint256","internalType":"uint256"}],"stateMutability":"view"},{"type":"function","name":"getCurrentRound","inputs":[{"name":"marketId","type":"uint256","internalType":"uint256"}],"outputs":[{"name":"roundIndex","type":"uint256","internalType":"uint256"},{"name":"startTime","type":"uint256","internalType":"uint256"},{"name":"endTime","type":"uint256","internalType":"uint256"},{"name":"isComplete","type":"bool","internalType":"bool"}],"stateMutability":"view"},{"type":"function","name":"getGladiatorScores","inputs":[{"name":"marketId","type":"uint256","internalType":"uint256"},{"name":"gladiatorIndex","type":"uint256","internalType":"uint256"}],"outputs":[{"name":"roundScores","type":"uint256[]","internalType":"uint256[]"}],"stateMutability":"view"},{"type":"function","name":"getGladiatorTokenIds","inputs":[{"name":"marketId","type":"uint256","internalType":"uint256"}],"outputs":[{"name":"","type":"uint256[]","internalType":"uint256[]"}],"stateMutability":"view"},{"type":"function","name":"getGladiators","inputs":[{"name":"marketId","type":"uint256","internalType":"uint256"}],"outputs":[{"name":"","type":"tuple[]","internalType":"struct MarketFactory.Gladiator[]","components":[{"name":"aiAddress","type":"address","internalType":"address"},{"name":"name","type":"string","internalType":"string"},{"name":"publicKey","type":"string","internalType":"string"},{"name":"isActive","type":"bool","internalType":"bool"}]}],"stateMutability":"view"},{"type":"function","name":"getLeaderboard","inputs":[{"name":"marketId","type":"uint256","internalType":"uint256"}],"outputs":[{"name":"totalScores","type":"uint256[]","internalType":"uint256[]"},{"name":"gladiatorIndexes","type":"uint256[]","internalType":"uint256[]"}],"stateMutability":"view"},{"type":"function","name":"getMarketDetails","inputs":[{"name":"marketId","type":"uint256","internalType":"uint256"}],"outputs":[{"name":"token","type":"address","internalType":"address"},{"name":"debateId","type":"uint256","internalType":"uint256"},{"name":"resolved","type":"bool","internalType":"bool"},{"name":"winningOutcome","type":"uint256","internalType":"uint256"},{"name":"bondingCurve","type":"tuple","internalType":"struct MarketFactory.BondingCurve","components":[{"name":"target","type":"uint256","internalType":"uint256"},{"name":"current","type":"uint256","internalType":"uint256"},{"name":"basePrice","type":"uint256","internalType":"uint256"},{"name":"currentPrice","type":"uint256","internalType":"uint256"},{"name":"isFulfilled","type":"bool","internalType":"bool"},{"name":"endTime","type":"uint256","internalType":"uint256"}]},{"name":"totalBondingAmount","type":"uint256","internalType":"uint256"}],"stateMutability":"view"},{"type":"function","name":"getMarketPrices","inputs":[{"name":"marketId","type":"uint256","internalType":"uint256"}],"outputs":[{"name":"","type":"uint256[]","internalType":"uint256[]"}],"stateMutability":"view"},{"type":"function","name":"getMarketVolumes","inputs":[{"name":"marketId","type":"uint256","internalType":"uint256"}],"outputs":[{"name":"","type":"uint256[]","internalType":"uint256[]"}],"stateMutability":"view"},{"type":"function","name":"getOrderBook","inputs":[{"name":"marketId","type":"uint256","internalType":"uint256"},{"name":"gladiatorIndex","type":"uint256","internalType":"uint256"}],"outputs":[{"name":"","type":"tuple[]","internalType":"struct MarketFactory.Order[]","components":[{"name":"price","type":"uint256","internalType":"uint256"},{"name":"amount","type":"uint256","internalType":"uint256"},{"name":"outcomeIndex","type":"uint256","internalType":"uint256"},{"name":"owner","type":"address","internalType":"address"}]}],"stateMutability":"view"},{"type":"function","name":"getOrderBookSummary","inputs":[{"name":"marketId","type":"uint256","internalType":"uint256"},{"name":"gladiatorIndex","type":"uint256","internalType":"uint256"}],"outputs":[{"name":"prices","type":"uint256[]","internalType":"uint256[]"},{"name":"amounts","type":"uint256[]","internalType":"uint256[]"},{"name":"owners","type":"address[]","internalType":"address[]"}],"stateMutability":"view"},{"type":"function","name":"getPosition","inputs":[{"name":"marketId","type":"uint256","internalType":"uint256"},{"name":"user","type":"address","internalType":"address"},{"name":"gladiatorIndex","type":"uint256","internalType":"uint256"}],"outputs":[{"name":"","type":"uint256","internalType":"uint256"}],"stateMutability":"view"},{"type":"function","name":"getRoundStatus","inputs":[{"name":"marketId","type":"uint256","internalType":"uint256"},{"name":"roundIndex","type":"uint256","internalType":"uint256"}],"outputs":[{"name":"startTime","type":"uint256","internalType":"uint256"},{"name":"endTime","type":"uint256","internalType":"uint256"},{"name":"isComplete","type":"bool","internalType":"bool"},{"name":"hasVerdict","type":"bool","internalType":"bool"},{"name":"verdictTimestamp","type":"uint256","internalType":"uint256"}],"stateMutability":"view"},{"type":"function","name":"getRoundVerdict","inputs":[{"name":"marketId","type":"uint256","internalType":"uint256"},{"name":"roundIndex","type":"uint256","internalType":"uint256"}],"outputs":[{"name":"scores","type":"uint256[]","internalType":"uint256[]"},{"name":"timestamp","type":"uint256","internalType":"uint256"}],"stateMutability":"view"},{"type":"function","name":"getTotalVolume","inputs":[{"name":"marketId","type":"uint256","internalType":"uint256"}],"outputs":[{"name":"","type":"uint256","internalType":"uint256"}],"stateMutability":"view"},{"type":"function","name":"getUserPositions","inputs":[{"name":"marketId","type":"uint256","internalType":"uint256"},{"name":"user","type":"address","internalType":"address"}],"outputs":[{"name":"","type":"uint256[]","internalType":"uint256[]"}],"stateMutability":"view"},{"type":"function","name":"gladiatorIdToTokenId","inputs":[{"name":"","type":"uint256","internalType":"uint256"}],"outputs":[{"name":"","type":"uint256","internalType":"uint256"}],"stateMutability":"view"},{"type":"function","name":"gladiatorNFT","inputs":[],"outputs":[{"name":"","type":"address","internalType":"contract GladiatorNFT"}],"stateMutability":"view"},{"type":"function","name":"gladiatorVolumes","inputs":[{"name":"marketId","type":"uint256","internalType":"uint256"},{"name":"gladiatorIndex","type":"uint256","internalType":"uint256"}],"outputs":[{"name":"","type":"uint256","internalType":"uint256"}],"stateMutability":"view"},{"type":"function","name":"gladiators","inputs":[{"name":"","type":"uint256","internalType":"uint256"}],"outputs":[{"name":"aiAddress","type":"address","internalType":"address"},{"name":"name","type":"string","internalType":"string"},{"name":"publicKey","type":"string","internalType":"string"},{"name":"isActive","type":"bool","internalType":"bool"}],"stateMutability":"view"},{"type":"function","name":"grantRoles","inputs":[{"name":"user","type":"address","internalType":"address"},{"name":"roles","type":"uint256","internalType":"uint256"}],"outputs":[],"stateMutability":"payable"},{"type":"function","name":"hasAllRoles","inputs":[{"name":"user","type":"address","internalType":"address"},{"name":"roles","type":"uint256","internalType":"uint256"}],"outputs":[{"name":"","type":"bool","internalType":"bool"}],"stateMutability":"view"},{"type":"function","name":"hasAnyRole","inputs":[{"name":"user","type":"address","internalType":"address"},{"name":"roles","type":"uint256","internalType":"uint256"}],"outputs":[{"name":"","type":"bool","internalType":"bool"}],"stateMutability":"view"},{"type":"function","name":"marketCount","inputs":[],"outputs":[{"name":"","type":"uint256","internalType":"uint256"}],"stateMutability":"view"},{"type":"function","name":"marketIdToDebateId","inputs":[{"name":"","type":"uint256","internalType":"uint256"}],"outputs":[{"name":"","type":"uint256","internalType":"uint256"}],"stateMutability":"view"},{"type":"function","name":"markets","inputs":[{"name":"","type":"uint256","internalType":"uint256"}],"outputs":[{"name":"token","type":"address","internalType":"address"},{"name":"debateId","type":"uint256","internalType":"uint256"},{"name":"resolved","type":"bool","internalType":"bool"},{"name":"judgeAI","type":"address","internalType":"address"},{"name":"winningGladiator","type":"uint256","internalType":"uint256"},{"name":"bondingCurve","type":"tuple","internalType":"struct MarketFactory.BondingCurve","components":[{"name":"target","type":"uint256","internalType":"uint256"},{"name":"current","type":"uint256","internalType":"uint256"},{"name":"basePrice","type":"uint256","internalType":"uint256"},{"name":"currentPrice","type":"uint256","internalType":"uint256"},{"name":"isFulfilled","type":"bool","internalType":"bool"},{"name":"endTime","type":"uint256","internalType":"uint256"}]},{"name":"totalBondingAmount","type":"uint256","internalType":"uint256"},{"name":"currentRound","type":"uint256","internalType":"uint256"}],"stateMutability":"view"},{"type":"function","name":"nominateGladiator","inputs":[{"name":"tokenId","type":"uint256","internalType":"uint256"},{"name":"marketId","type":"uint256","internalType":"uint256"}],"outputs":[],"stateMutability":"nonpayable"},{"type":"function","name":"owner","inputs":[],"outputs":[{"name":"result","type":"address","internalType":"address"}],"stateMutability":"view"},{"type":"function","name":"ownershipHandoverExpiresAt","inputs":[{"name":"pendingOwner","type":"address","internalType":"address"}],"outputs":[{"name":"result","type":"uint256","internalType":"uint256"}],"stateMutability":"view"},{"type":"function","name":"placeLimitOrder","inputs":[{"name":"marketId","type":"uint256","internalType":"uint256"},{"name":"gladiatorIndex","type":"uint256","internalType":"uint256"},{"name":"price","type":"uint256","internalType":"uint256"},{"name":"amount","type":"uint256","internalType":"uint256"}],"outputs":[],"stateMutability":"nonpayable"},{"type":"function","name":"redeemWinningShares","inputs":[{"name":"marketId","type":"uint256","internalType":"uint256"}],"outputs":[],"stateMutability":"nonpayable"},{"type":"function","name":"registerGladiator","inputs":[{"name":"name","type":"string","internalType":"string"},{"name":"model","type":"string","internalType":"string"},{"name":"publicKey","type":"string","internalType":"string"}],"outputs":[{"name":"","type":"uint256","internalType":"uint256"}],"stateMutability":"nonpayable"},{"type":"function","name":"renounceOwnership","inputs":[],"outputs":[],"stateMutability":"payable"},{"type":"function","name":"renounceRoles","inputs":[{"name":"roles","type":"uint256","internalType":"uint256"}],"outputs":[],"stateMutability":"payable"},{"type":"function","name":"requestOwnershipHandover","inputs":[],"outputs":[],"stateMutability":"payable"},{"type":"function","name":"resolveMarket","inputs":[{"name":"marketId","type":"uint256","internalType":"uint256"},{"name":"winningGladiatorIndex","type":"uint256","internalType":"uint256"}],"outputs":[],"stateMutability":"nonpayable"},{"type":"function","name":"revokeRoles","inputs":[{"name":"user","type":"address","internalType":"address"},{"name":"roles","type":"uint256","internalType":"uint256"}],"outputs":[],"stateMutability":"payable"},{"type":"function","name":"rolesOf","inputs":[{"name":"user","type":"address","internalType":"address"}],"outputs":[{"name":"roles","type":"uint256","internalType":"uint256"}],"stateMutability":"view"},{"type":"function","name":"startNewRound","inputs":[{"name":"marketId","type":"uint256","internalType":"uint256"}],"outputs":[],"stateMutability":"nonpayable"},{"type":"function","name":"submitBribe","inputs":[{"name":"marketId","type":"uint256","internalType":"uint256"},{"name":"roundId","type":"uint256","internalType":"uint256"},{"name":"information","type":"string","internalType":"string"},{"name":"gladiatorIndex","type":"uint256","internalType":"uint256"}],"outputs":[],"stateMutability":"nonpayable"},{"type":"function","name":"submitVerdict","inputs":[{"name":"marketId","type":"uint256","internalType":"uint256"},{"name":"scores","type":"uint256[]","internalType":"uint256[]"}],"outputs":[],"stateMutability":"nonpayable"},{"type":"function","name":"tokenIdToGladiatorId","inputs":[{"name":"","type":"uint256","internalType":"uint256"}],"outputs":[{"name":"","type":"uint256","internalType":"uint256"}],"stateMutability":"view"},{"type":"function","name":"transferOwnership","inputs":[{"name":"newOwner","type":"address","internalType":"address"}],"outputs":[],"stateMutability":"payable"},{"type":"event","name":"BondingComplete","inputs":[{"name":"marketId","type":"uint256","indexed":true,"internalType":"uint256"},{"name":"timestamp","type":"uint256","indexed":false,"internalType":"uint256"},{"name":"finalPrice","type":"uint256","indexed":false,"internalType":"uint256"}],"anonymous":false},{"type":"event","name":"BondingContribution","inputs":[{"name":"marketId","type":"uint256","indexed":true,"internalType":"uint256"},{"name":"contributor","type":"address","indexed":true,"internalType":"address"},{"name":"amount","type":"uint256","indexed":false,"internalType":"uint256"}],"anonymous":false},{"type":"event","name":"BribeSubmitted","inputs":[{"name":"marketId","type":"uint256","indexed":true,"internalType":"uint256"},{"name":"roundId","type":"uint256","indexed":true,"internalType":"uint256"},{"name":"briber","type":"address","indexed":true,"internalType":"address"},{"name":"amount","type":"uint256","indexed":false,"internalType":"uint256"},{"name":"information","type":"string","indexed":false,"internalType":"string"},{"name":"outcomeIndex","type":"uint256","indexed":false,"internalType":"uint256"}],"anonymous":false},{"type":"event","name":"GladiatorNominated","inputs":[{"name":"marketId","type":"uint256","indexed":true,"internalType":"uint256"},{"name":"gladiatorAddress","type":"address","indexed":true,"internalType":"address"},{"name":"name","type":"string","indexed":false,"internalType":"string"},{"name":"tokenId","type":"uint256","indexed":true,"internalType":"uint256"}],"anonymous":false},{"type":"event","name":"GladiatorRegistered","inputs":[{"name":"tokenId","type":"uint256","indexed":true,"internalType":"uint256"},{"name":"aiAddress","type":"address","indexed":true,"internalType":"address"},{"name":"name","type":"string","indexed":false,"internalType":"string"}],"anonymous":false},{"type":"event","name":"MarketCreated","inputs":[{"name":"marketId","type":"uint256","indexed":true,"internalType":"uint256"},{"name":"token","type":"address","indexed":false,"internalType":"address"},{"name":"debateId","type":"uint256","indexed":true,"internalType":"uint256"},{"name":"outcomeNames","type":"string[]","indexed":false,"internalType":"string[]"}],"anonymous":false},{"type":"event","name":"MarketResolved","inputs":[{"name":"marketId","type":"uint256","indexed":true,"internalType":"uint256"},{"name":"winningOutcomeIndex","type":"uint256","indexed":true,"internalType":"uint256"}],"anonymous":false},{"type":"event","name":"OrderCancelled","inputs":[{"name":"marketId","type":"uint256","indexed":true,"internalType":"uint256"},{"name":"trader","type":"address","indexed":true,"internalType":"address"},{"name":"outcomeIndex","type":"uint256","indexed":true,"internalType":"uint256"},{"name":"price","type":"uint256","indexed":false,"internalType":"uint256"},{"name":"amount","type":"uint256","indexed":false,"internalType":"uint256"}],"anonymous":false},{"type":"event","name":"OrderMatched","inputs":[{"name":"marketId","type":"uint256","indexed":true,"internalType":"uint256"},{"name":"buyer","type":"address","indexed":true,"internalType":"address"},{"name":"seller","type":"address","indexed":true,"internalType":"address"},{"name":"outcomeIndex","type":"uint256","indexed":false,"internalType":"uint256"},{"name":"price","type":"uint256","indexed":false,"internalType":"uint256"},{"name":"amount","type":"uint256","indexed":false,"internalType":"uint256"}],"anonymous":false},{"type":"event","name":"OrderPlaced","inputs":[{"name":"marketId","type":"uint256","indexed":true,"internalType":"uint256"},{"name":"trader","type":"address","indexed":true,"internalType":"address"},{"name":"outcomeIndex","type":"uint256","indexed":true,"internalType":"uint256"},{"name":"price","type":"uint256","indexed":false,"internalType":"uint256"},{"name":"amount","type":"uint256","indexed":false,"internalType":"uint256"}],"anonymous":false},{"type":"event","name":"OutcomeAdded","inputs":[{"name":"marketId","type":"uint256","indexed":true,"internalType":"uint256"},{"name":"index","type":"uint256","indexed":true,"internalType":"uint256"},{"name":"name","type":"string","indexed":false,"internalType":"string"}],"anonymous":false},{"type":"event","name":"OwnershipHandoverCanceled","inputs":[{"name":"pendingOwner","type":"address","indexed":true,"internalType":"address"}],"anonymous":false},{"type":"event","name":"OwnershipHandoverRequested","inputs":[{"name":"pendingOwner","type":"address","indexed":true,"internalType":"address"}],"anonymous":false},{"type":"event","name":"OwnershipTransferred","inputs":[{"name":"oldOwner","type":"address","indexed":true,"internalType":"address"},{"name":"newOwner","type":"address","indexed":true,"internalType":"address"}],"anonymous":false},{"type":"event","name":"RolesUpdated","inputs":[{"name":"user","type":"address","indexed":true,"internalType":"address"},{"name":"roles","type":"uint256","indexed":true,"internalType":"uint256"}],"anonymous":false},{"type":"event","name":"RoundEnded","inputs":[{"name":"marketId","type":"uint256","indexed":true,"internalType":"uint256"},{"name":"roundIndex","type":"uint256","indexed":true,"internalType":"uint256"},{"name":"endTime","type":"uint256","indexed":false,"internalType":"uint256"}],"anonymous":false},{"type":"event","name":"RoundStarted","inputs":[{"name":"marketId","type":"uint256","indexed":true,"internalType":"uint256"},{"name":"roundIndex","type":"uint256","indexed":true,"internalType":"uint256"},{"name":"startTime","type":"uint256","indexed":false,"internalType":"uint256"},{"name":"endTime","type":"uint256","indexed":false,"internalType":"uint256"}],"anonymous":false},{"type":"event","name":"SharesRedeemed","inputs":[{"name":"marketId","type":"uint256","indexed":true,"internalType":"uint256"},{"name":"trader","type":"address","indexed":true,"internalType":"address"},{"name":"amount","type":"uint256","indexed":false,"internalType":"uint256"}],"anonymous":false},{"type":"event","name":"VerdictDelivered","inputs":[{"name":"marketId","type":"uint256","indexed":true,"internalType":"uint256"},{"name":"roundIndex","type":"uint256","indexed":true,"internalType":"uint256"},{"name":"scores","type":"uint256[]","indexed":false,"internalType":"uint256[]"},{"name":"timestamp","type":"uint256","indexed":false,"internalType":"uint256"}],"anonymous":false},{"type":"error","name":"AlreadyInitialized","inputs":[]},{"type":"error","name":"NewOwnerIsZeroAddress","inputs":[]},{"type":"error","name":"NoHandoverRequest","inputs":[]},{"type":"error","name":"Reentrancy","inputs":[]},{"type":"error","name":"Unauthorized","inputs":[]}],"bytecode":{"object":"0x6080604052348015600e575f80fd5b50604051615042380380615042833981016040819052602b91608d565b600480546001600160a01b0319166001600160a01b038316179055604d336052565b5060b8565b6001600160a01b0316638b78c6d819819055805f7f8be0079c531659141344cd1fd0a4f28419497f9722a3daafe3b4186f6b6457e08180a350565b5f60208284031215609c575f80fd5b81516001600160a01b038116811460b1575f80fd5b9392505050565b614f7d806100c55f395ff3fe608060405260043610610345575f3560e01c80637fc1f800116101b2578063b8599241116100f2578063edf764a311610092578063f04e283e1161006d578063f04e283e14610b7d578063f2fde38b14610b90578063f64c6e1214610ba3578063fee81cf414610bc2575f80fd5b8063edf764a314610b04578063ee43987b14610b33578063efdd081114610b5e575f80fd5b8063e15eecea116100cd578063e15eecea14610a90578063e1f1c4a714610aaf578063ebb0ee9c14610ac4578063ec97908214610aef575f80fd5b8063b859924114610a37578063ceb436e914610a56578063d3f82d8e14610a75575f80fd5b80639ebe51151161015d578063a9c4e49c11610138578063a9c4e49c146108a5578063ad9f20a61461092a578063b06c1ba31461093e578063b1283e771461096f575f80fd5b80639ebe51151461081d578063a34b46fe1461084d578063a84fb5611461087a575f80fd5b806385b91d8e1161018d57806385b91d8e146107ac5780638da5cb5b146107cb57806395f2d6ef146107fe575f80fd5b80637fc1f8001461073657806380ec48211461075557806381d2d89914610774575f80fd5b806325f28c8611610288578063514e62fc11610228578063643e4b3d11610203578063643e4b3d146106c25780636627a138146106f0578063715018a61461070f5780637af68f8f14610717575f80fd5b8063514e62fc1461066657806354d1f13d1461069b57806360557333146106a3575f80fd5b80633da099c5116102635780633da099c5146105e95780633e02c503146106155780634615102c146106345780634a4ee7b114610653575f80fd5b806325f28c861461056e57806329ac3694146105995780632de94807146105b8575f80fd5b8063148b02c5116102f35780631c10893f116102ce5780631c10893f146104d75780631cd64df4146104ea5780631ff7855d1461052f5780632569296214610566575f80fd5b8063148b02c514610462578063183a4f6e146104a357806319cd5653146104b8575f80fd5b80630561695f116103235780630561695f146103bc5780630710c981146103e957806308bf2d0d14610436575f80fd5b806301c11d961461034957806304673368146103715780630494040614610390575b5f80fd5b348015610354575f80fd5b5061035e6126ac81565b6040519081526020015b60405180910390f35b34801561037c575f80fd5b5061035e61038b36600461420b565b610bf3565b34801561039b575f80fd5b506103af6103aa36600461423f565b610cb5565b60405161036891906142a7565b3480156103c7575f80fd5b506103db6103d636600461420b565b610d72565b6040516103689291906142c0565b3480156103f4575f80fd5b5061040861040336600461420b565b610ef0565b604080519586526020860194909452911515928401929092529015156060830152608082015260a001610368565b348015610441575f80fd5b5061045561045036600461420b565b610f90565b60405161036891906142e1565b34801561046d575f80fd5b5061048161047c36600461434d565b611087565b6040805194855260208501939093529183015215156060820152608001610368565b6104b66104b136600461434d565b61112e565b005b3480156104c3575f80fd5b5061035e6104d236600461434d565b61113b565b6104b66104e5366004614364565b611183565b3480156104f5575f80fd5b5061051f610504366004614364565b638b78c6d8600c9081525f9290925260209091205481161490565b6040519015158152602001610368565b34801561053a575f80fd5b5060045461054e906001600160a01b031681565b6040516001600160a01b039091168152602001610368565b6104b6611199565b348015610579575f80fd5b5061035e61058836600461434d565b60066020525f908152604090205481565b3480156105a4575f80fd5b506103af6105b336600461420b565b6111e6565b3480156105c3575f80fd5b5061035e6105d236600461438e565b638b78c6d8600c9081525f91909152602090205490565b3480156105f4575f80fd5b5061060861060336600461434d565b61131b565b60405161036891906143ec565b348015610620575f80fd5b506103af61062f36600461434d565b61157f565b34801561063f575f80fd5b506104b661064e36600461434d565b6115df565b6104b6610661366004614364565b611783565b348015610671575f80fd5b5061051f610680366004614364565b638b78c6d8600c9081525f9290925260209091205416151590565b6104b6611795565b3480156106ae575f80fd5b506104b66106bd36600461420b565b6117ce565b3480156106cd575f80fd5b506106e16106dc36600461420b565b611959565b604051610368939291906144e9565b3480156106fb575f80fd5b5061035e61070a3660046145e1565b611b0c565b6104b6611c8a565b348015610722575f80fd5b506103af61073136600461434d565b611c9d565b348015610741575f80fd5b5061035e610750366004614663565b611d3c565b348015610760575f80fd5b506104b661076f36600461420b565b611dcb565b34801561077f575f80fd5b5061035e61078e36600461420b565b5f918252602082815260408084209284526012909201905290205490565b3480156107b7575f80fd5b506103af6107c636600461434d565b6120df565b3480156107d6575f80fd5b507fffffffffffffffffffffffffffffffffffffffffffffffffffffffff748739275461054e565b348015610809575f80fd5b5061035e610818366004614698565b6121db565b348015610828575f80fd5b5061083c61083736600461420b565b61252c565b604051610368959493929190614748565b348015610858575f80fd5b5061086c61086736600461434d565b6128bb565b6040516103689291906147b4565b348015610885575f80fd5b5061035e61089436600461434d565b60016020525f908152604090205481565b3480156108b0575f80fd5b506108fb6108bf36600461434d565b5f90815260208190526040902060048101546005820154600683015460078401546008850154600990950154939592949193909260ff90921691565b6040805196875260208701959095529385019290925260608401521515608083015260a082015260c001610368565b348015610935575f80fd5b5061035e600181565b348015610949575f80fd5b5061095d61095836600461434d565b612bbf565b604051610368969594939291906147e1565b34801561097a575f80fd5b50610a2361098936600461434d565b5f60208181529181526040908190208054600182015460028301546003840154855160c0810187526004860154815260058601549781019790975260068501549587019590955260078401546060870152600884015460ff90811615156080880152600985015460a0880152600a850154600e909501546001600160a01b0394851697939691831695610100909304909416939092919088565b60405161036898979695949392919061485e565b348015610a42575f80fd5b506104b6610a513660046148e9565b612c85565b348015610a61575f80fd5b506104b6610a70366004614961565b612f7e565b348015610a80575f80fd5b5061035e670de0b6b3a764000081565b348015610a9b575f80fd5b506104b6610aaa36600461498a565b613283565b348015610aba575f80fd5b5061035e61271081565b348015610acf575f80fd5b5061035e610ade36600461434d565b60026020525f908152604090205481565b348015610afa575f80fd5b5061035e60035481565b348015610b0f575f80fd5b50610b23610b1e36600461434d565b613648565b60405161036894939291906149b9565b348015610b3e575f80fd5b5061035e610b4d36600461434d565b60056020525f908152604090205481565b348015610b69575f80fd5b506104b6610b7836600461434d565b613789565b6104b6610b8b36600461438e565b613901565b6104b6610b9e36600461438e565b61393b565b348015610bae575f80fd5b506104b6610bbd366004614a00565b613961565b348015610bcd575f80fd5b5061035e610bdc36600461438e565b63389a75e1600c9081525f91909152602090205490565b5f828152602081905260408120600c8101548310610c585760405162461bcd60e51b815260206004820152601160248201527f496e76616c696420676c61646961746f7200000000000000000000000000000060448201526064015b60405180910390fd5b5f838152600f8201602052604081208054909103610c8957505f838152601090910160205260409020549050610caf565b805f81548110610c9b57610c9b614a80565b905f5260205f2090600402015f0154925050505b92915050565b5f828152602081905260408120600c8101546060929067ffffffffffffffff811115610ce357610ce361452b565b604051908082528060200260200182016040528015610d0c578160200160208202803683370190505b5090505f5b600c830154811015610d69576001600160a01b0385165f90815260118401602090815260408083208484529091529020548251839083908110610d5657610d56614a80565b6020908102919091010152600101610d11565b50949350505050565b5f828152602081905260408120600e81015460609291908410610dd75760405162461bcd60e51b815260206004820152600d60248201527f496e76616c696420726f756e64000000000000000000000000000000000000006044820152606401610c4f565b5f848152600d820160205260409020600281015460ff16610e3a5760405162461bcd60e51b815260206004820152601260248201527f526f756e64206e6f7420636f6d706c65746500000000000000000000000000006044820152606401610c4f565b6004810154610e8b5760405162461bcd60e51b815260206004820152600e60248201527f4e6f2076657264696374207965740000000000000000000000000000000000006044820152606401610c4f565b600481015460038201805460408051602080840282018101909252828152929392918491830182828015610edc57602002820191905f5260205f20905b815481526020019060010190808311610ec8575b505050505091509350935050509250929050565b5f828152602081905260408120600e81015482918291829182918710610f585760405162461bcd60e51b815260206004820152600d60248201527f496e76616c696420726f756e64000000000000000000000000000000000000006044820152606401610c4f565b5f968752600d0160205250506040909320805460018201546002830154600490930154919790965060ff909216945080151593509150565b5f828152602081905260409020600c810154606091908310610ff45760405162461bcd60e51b815260206004820152601160248201527f496e76616c696420676c61646961746f720000000000000000000000000000006044820152606401610c4f565b5f838152600f82016020908152604080832080548251818502810185019093528083529193909284015b8282101561107a575f84815260209081902060408051608081018252600486029092018054835260018082015484860152600282015492840192909252600301546001600160a01b03166060830152908352909201910161101e565b5050505091505092915050565b5f818152602081905260408120600e810154829182918291906110ec5760405162461bcd60e51b815260206004820152600d60248201527f4e6f20726f756e647320796574000000000000000000000000000000000000006044820152606401610c4f565b600181600e01546110fd9190614ada565b5f818152600d9092016020526040909120805460018201546002909201549296509450925060ff1690509193509193565b6111383382613c11565b50565b5f81815260208190526040812081805b600c83015481101561117b575f8181526012840160205260409020546111719083614aed565b915060010161114b565b509392505050565b61118b613c1c565b6111958282613c51565b5050565b5f6202a30067ffffffffffffffff164201905063389a75e1600c52335f52806020600c2055337fdbf36a107da19e49527a7176a1babf963b4b0ff8cde35ee35d6cd8f1f9ac7e1d5f80a250565b5f828152602081905260409020600c81015460609190831061124a5760405162461bcd60e51b815260206004820152601160248201527f496e76616c696420676c61646961746f720000000000000000000000000000006044820152606401610c4f565b80600e015467ffffffffffffffff8111156112675761126761452b565b604051908082528060200260200182016040528015611290578160200160208202803683370190505b5091505f5b81600e0154811015611313575f818152600d830160205260409020600281015460ff1680156112c75750600481015415155b1561130a57600381018054869081106112e2576112e2614a80565b905f5260205f2001548483815181106112fd576112fd614a80565b6020026020010181815250505b50600101611295565b505092915050565b5f818152602081905260408120600c8101546060929067ffffffffffffffff8111156113495761134961452b565b6040519080825280602002602001820160405280156113ae57816020015b61139b60405180608001604052805f6001600160a01b0316815260200160608152602001606081526020015f151581525090565b8152602001906001900390816113675790505b5090505f5b600c83015481101561117b5782600b015f84600c0183815481106113d9576113d9614a80565b905f5260205f20015481526020019081526020015f206040518060800160405290815f82015f9054906101000a90046001600160a01b03166001600160a01b03166001600160a01b0316815260200160018201805461143790614b00565b80601f016020809104026020016040519081016040528092919081815260200182805461146390614b00565b80156114ae5780601f10611485576101008083540402835291602001916114ae565b820191905f5260205f20905b81548152906001019060200180831161149157829003601f168201915b505050505081526020016002820180546114c790614b00565b80601f01602080910402602001604051908101604052809291908181526020018280546114f390614b00565b801561153e5780601f106115155761010080835404028352916020019161153e565b820191905f5260205f20905b81548152906001019060200180831161152157829003601f168201915b50505091835250506003919091015460ff161515602090910152825183908390811061156c5761156c614a80565b60209081029190910101526001016113b3565b5f8181526020818152604091829020600c018054835181840281018401909452808452606093928301828280156115d357602002820191905f5260205f20905b8154815260200190600101908083116115bf575b50505050509050919050565b5f818152602081905260409020600281015460ff16156116415760405162461bcd60e51b815260206004820152600f60248201527f4d61726b6574207265736f6c76656400000000000000000000000000000000006044820152606401610c4f565b600881015460ff166116955760405162461bcd60e51b815260206004820152601460248201527f426f6e64696e67206e6f7420636f6d706c6574650000000000000000000000006044820152606401610c4f565b600e81018054905f908290826116aa83614b51565b909155505f818152600d85016020526040902042808255919250906116d29062015180614aed565b6001820181905560028201805460ff191690558154604051849288927ffd9d17e5565deea3d25918d95fc398673b9445ef0a96d12eaf3ab2b198756c65926117239290918252602082015260400190565b60405180910390a382857fc5285db7d8a9c3a0ce0e8982ff9a84fe8df355101d9545735558c69efb4aad5786600d015f8781526020019081526020015f206001015460405161177491815260200190565b60405180910390a35050505050565b61178b613c1c565b6111958282613c11565b63389a75e1600c52335f525f6020600c2055337ffa7b8eab7da67f412cc9575ed43464468f9bfbae89d1675917346ca6d8fe3c925f80a2565b6117d6613c1c565b5f828152602081905260409020600281015460ff16156118385760405162461bcd60e51b815260206004820152601060248201527f416c7265616479207265736f6c766564000000000000000000000000000000006044820152606401610c4f565b600c810154821061188b5760405162461bcd60e51b815260206004820152601160248201527f496e76616c696420676c61646961746f720000000000000000000000000000006044820152606401610c4f565b80600b015f82600c0184815481106118a5576118a5614a80565b5f918252602080832090910154835282019290925260400190206003015460ff166119125760405162461bcd60e51b815260206004820152601460248201527f476c61646961746f72206e6f74206163746976650000000000000000000000006044820152606401610c4f565b60028101805460ff1916600117905560038101829055604051829084907f6dfc24f0f2fb42e49fb4fa3ffa8abb148cab908a1fb8335b3f128a08b2594af1905f90a3505050565b5f82815260208181526040808320848452600f81019092529091208054606092839283928067ffffffffffffffff8111156119965761199661452b565b6040519080825280602002602001820160405280156119bf578160200160208202803683370190505b5095508067ffffffffffffffff8111156119db576119db61452b565b604051908082528060200260200182016040528015611a04578160200160208202803683370190505b5094508067ffffffffffffffff811115611a2057611a2061452b565b604051908082528060200260200182016040528015611a49578160200160208202803683370190505b5093505f5b81811015611b01575f838281548110611a6957611a69614a80565b905f5260205f2090600402019050805f0154888381518110611a8d57611a8d614a80565b6020026020010181815250508060010154878381518110611ab057611ab0614a80565b6020908102919091010152600381015486516001600160a01b0390911690879084908110611ae057611ae0614a80565b6001600160a01b039092166020928302919091019091015250600101611a4e565b505050509250925092565b600480546040517f45cb70980000000000000000000000000000000000000000000000000000000081525f9283926001600160a01b0316916345cb709891611b5a9133918a918a9101614b69565b6020604051808303815f875af1158015611b76573d5f803e3d5ffd5b505050506040513d601f19601f82011682018060405250810190611b9a9190614b9c565b6040805160808101825233815260208082018981528284018890526001606084018190525f868152600790935293909120825181547fffffffffffffffffffffffff0000000000000000000000000000000000000000166001600160a01b03909116178155905193945090929091820190611c159082614bff565b5060408201516002820190611c2a9082614bff565b50606091909101516003909101805460ff1916911515919091179055604051339082907f8f0c5dc385103f8de3b9c8d7100b103e66860da226445f78ee3ae529c48b3bb990611c7a908990614cbf565b60405180910390a3949350505050565b611c92613c1c565b611c9b5f613c5d565b565b5f818152602081905260408120600c8101546060929067ffffffffffffffff811115611ccb57611ccb61452b565b604051908082528060200260200182016040528015611cf4578160200160208202803683370190505b5090505f5b600c83015481101561117b575f8181526012840160205260409020548251839083908110611d2957611d29614a80565b6020908102919091010152600101611cf9565b5f838152602081905260408120600c8101548310611d9c5760405162461bcd60e51b815260206004820152601160248201527f496e76616c696420676c61646961746f720000000000000000000000000000006044820152606401610c4f565b6001600160a01b0384165f90815260119091016020908152604080832085845290915290205490509392505050565b600480546040517f6352211e00000000000000000000000000000000000000000000000000000000815291820184905233916001600160a01b0390911690636352211e90602401602060405180830381865afa158015611e2d573d5f803e3d5ffd5b505050506040513d601f19601f82011682018060405250810190611e519190614cd1565b6001600160a01b031614611ea75760405162461bcd60e51b815260206004820152601f60248201527f4e6f7420746865206f776e6572206f66207468697320676c61646961746f72006044820152606401610c4f565b5f828152600760205260409020600381015460ff16611f085760405162461bcd60e51b815260206004820152601760248201527f476c61646961746f72206973206e6f74206163746976650000000000000000006044820152606401610c4f565b5f828152602081905260409020600281015460ff1615611f6a5760405162461bcd60e51b815260206004820152601760248201527f4d61726b657420616c7265616479207265736f6c7665640000000000000000006044820152606401610c4f565b5f5b600c820154811015611fec578482600c018281548110611f8e57611f8e614a80565b905f5260205f20015403611fe45760405162461bcd60e51b815260206004820152601b60248201527f476c61646961746f7220616c7265616479206e6f6d696e6174656400000000006044820152606401610c4f565b600101611f6c565b505f848152600b820160205260409020825481547fffffffffffffffffffffffff0000000000000000000000000000000000000000166001600160a01b03909116178155829060018082019061204490840182614cec565b5060028181019061205790840182614cec565b506003918201549101805460ff191660ff9092161515919091179055600c81018054600181810183555f928352602090922001859055825460405186926001600160a01b039092169186917ff0f7a92ed3737de5094224520b496adfbd3e8703ff7cc3db73cebb76d5972700916120d19190880190614dbb565b60405180910390a450505050565b5f818152602081905260408120600c8101546060929067ffffffffffffffff81111561210d5761210d61452b565b604051908082528060200260200182016040528015612136578160200160208202803683370190505b5090505f5b600c83015481101561117b575f818152600f8401602052604090208054156121a157805f8154811061216f5761216f614a80565b905f5260205f2090600402015f015483838151811061219057612190614a80565b6020026020010181815250506121d2565b5f82815260108501602052604090205483518490849081106121c5576121c5614a80565b6020026020010181815250505b5060010161213b565b5f6001600160a01b0387166122325760405162461bcd60e51b815260206004820152600d60248201527f496e76616c696420746f6b656e000000000000000000000000000000000000006044820152606401610c4f565b6001600160a01b0385166122885760405162461bcd60e51b815260206004820152601060248201527f496e76616c6964206a75646765204149000000000000000000000000000000006044820152606401610c4f565b5f86815260016020526040902054156122e35760405162461bcd60e51b815260206004820152600d60248201527f4d61726b657420657869737473000000000000000000000000000000000000006044820152606401610c4f565b5f84116123325760405162461bcd60e51b815260206004820152601660248201527f496e76616c696420626f6e64696e6720746172676574000000000000000000006044820152606401610c4f565b5f83116123815760405162461bcd60e51b815260206004820152601860248201527f496e76616c696420626f6e64696e67206475726174696f6e00000000000000006044820152606401610c4f565b60038054905f61239083614b51565b909155505f8181526020818152604080832080547fffffffffffffffffffffffff0000000000000000000000000000000000000000166001600160a01b038d8116919091178255600182018c90556002820180547fffffffffffffffffffffff00000000000000000000000000000000000000000016610100928d1692909202919091179055600e8101849055815160c0810183528981529283018490529082018690526060820186905260808201929092529192509060a081016124558642614aed565b9052805160048301556020808201516005840155604080830151600685015560608301516007850155608083015160088501805460ff191691151591909117905560a09092015160098401555f89815260018252828120859055848152600282528281208a90558251818152918201909252889184917fcb639a85040a8c82b5868e478676ef375c27147fae484f6c2e1851b0d2932b28918c919061250a565b60608152602001906001900390816124f55790505b50604051612519929190614e45565b60405180910390a3509695505050505050565b5f82815260208181526040808320848452601301909152902080546060918291829182918291908067ffffffffffffffff81111561256c5761256c61452b565b604051908082528060200260200182016040528015612595578160200160208202803683370190505b5096508067ffffffffffffffff8111156125b1576125b161452b565b6040519080825280602002602001820160405280156125da578160200160208202803683370190505b5095508067ffffffffffffffff8111156125f6576125f661452b565b60405190808252806020026020018201604052801561262957816020015b60608152602001906001900390816126145790505b5094508067ffffffffffffffff8111156126455761264561452b565b60405190808252806020026020018201604052801561266e578160200160208202803683370190505b5093508067ffffffffffffffff81111561268a5761268a61452b565b6040519080825280602002602001820160405280156126b3578160200160208202803683370190505b5092505f5b818110156128ae578281815481106126d2576126d2614a80565b5f91825260209091206005909102015488516001600160a01b039091169089908390811061270257612702614a80565b60200260200101906001600160a01b031690816001600160a01b03168152505082818154811061273457612734614a80565b905f5260205f2090600502016001015487828151811061275657612756614a80565b60200260200101818152505082818154811061277457612774614a80565b905f5260205f209060050201600201805461278e90614b00565b80601f01602080910402602001604051908101604052809291908181526020018280546127ba90614b00565b80156128055780601f106127dc57610100808354040283529160200191612805565b820191905f5260205f20905b8154815290600101906020018083116127e857829003601f168201915b505050505086828151811061281c5761281c614a80565b602002602001018190525082818154811061283957612839614a80565b905f5260205f2090600502016003015485828151811061285b5761285b614a80565b60200260200101818152505082818154811061287957612879614a80565b905f5260205f2090600502016004015484828151811061289b5761289b614a80565b60209081029190910101526001016126b8565b5050509295509295909350565b5f818152602081905260409020600c81015460609182918067ffffffffffffffff8111156128eb576128eb61452b565b604051908082528060200260200182016040528015612914578160200160208202803683370190505b5093508067ffffffffffffffff8111156129305761293061452b565b604051908082528060200260200182016040528015612959578160200160208202803683370190505b5092505f5b81811015612a19578084828151811061297957612979614a80565b6020026020010181815250505f5b83600e0154811015612a10575f818152600d850160205260409020600281015460ff1680156129b95750600481015415155b15612a0757600381018054849081106129d4576129d4614a80565b905f5260205f2001548784815181106129ef576129ef614a80565b60200260200101818151612a039190614aed565b9052505b50600101612987565b5060010161295e565b505f5b612a27600183614ada565b811015612bb7575f5b6001612a3c8385614ada565b612a469190614ada565b811015612bae5785612a59826001614aed565b81518110612a6957612a69614a80565b6020026020010151868281518110612a8357612a83614a80565b60200260200101511015612ba6575f868281518110612aa457612aa4614a80565b6020026020010151905086826001612abc9190614aed565b81518110612acc57612acc614a80565b6020026020010151878381518110612ae657612ae6614a80565b60209081029190910101528087612afe846001614aed565b81518110612b0e57612b0e614a80565b6020026020010181815250505f868381518110612b2d57612b2d614a80565b6020026020010151905086836001612b459190614aed565b81518110612b5557612b55614a80565b6020026020010151878481518110612b6f57612b6f614a80565b60209081029190910101528087612b87856001614aed565b81518110612b9757612b97614a80565b60200260200101818152505050505b600101612a30565b50600101612a1c565b505050915091565b5f805f80612bf86040518060c001604052805f81526020015f81526020015f81526020015f81526020015f151581526020015f81525090565b5050505f928352505060208181526040918290208054600182015460028301546003840154600a850154875160c0810189526004870154815260058701549781019790975260068601549787019790975260078501546060870152600885015460ff9081161515608088015260099095015460a08701526001600160a01b03909316969195931693919290565b5f838152602081905260409020600281015460ff1615612ce75760405162461bcd60e51b815260206004820152600f60248201527f4d61726b6574207265736f6c76656400000000000000000000000000000000006044820152606401610c4f565b600281015461010090046001600160a01b03163314612d485760405162461bcd60e51b815260206004820152600960248201527f4e6f74206a7564676500000000000000000000000000000000000000000000006044820152606401610c4f565b5f81600e015411612d9b5760405162461bcd60e51b815260206004820152600f60248201527f4e6f2061637469766520726f756e6400000000000000000000000000000000006044820152606401610c4f565b5f600182600e0154612dad9190614ada565b5f818152600d84016020526040902060028101549192509060ff1615612e155760405162461bcd60e51b815260206004820152600e60248201527f526f756e6420636f6d706c6574650000000000000000000000000000000000006044820152606401610c4f565b80600101544211612e685760405162461bcd60e51b815260206004820152600f60248201527f526f756e64206e6f7420656e64656400000000000000000000000000000000006044820152606401610c4f565b600c8301548414612ebb5760405162461bcd60e51b815260206004820152600e60248201527f496e76616c69642073636f7265730000000000000000000000000000000000006044820152606401610c4f565b60405180604001604052808686808060200260200160405190810160405280939291908181526020018383602002808284375f9201919091525050509082525042602091820152815180516003850192612f199284929101906141ae565b506020919091015160019182015560028201805460ff19169091179055604051829087907fc180cb4bfe6259a8cc4b1401e683d63c4e8d91b60325824c54e70f5747d1cfb590612f6e90899089904290614e6e565b60405180910390a3505050505050565b3068929eee149b4bd212685403612f9c5763ab143c065f526004601cfd5b3068929eee149b4bd21268555f838152602081905260409020600c81015483106130085760405162461bcd60e51b815260206004820152601160248201527f496e76616c696420676c61646961746f720000000000000000000000000000006044820152606401610c4f565b5f838152600f820160205260409020805483106130675760405162461bcd60e51b815260206004820152600d60248201527f496e76616c6964206f72646572000000000000000000000000000000000000006044820152606401610c4f565b5f81848154811061307a5761307a614a80565b5f91825260209091206003600490920201908101549091506001600160a01b031633146130e95760405162461bcd60e51b815260206004820152600960248201527f4e6f74206f776e657200000000000000000000000000000000000000000000006044820152606401610c4f565b5f612710825f015483600101546131009190614ec3565b61310a9190614eda565b8354909150839061311d90600190614ada565b8154811061312d5761312d614a80565b905f5260205f20906004020183868154811061314b5761314b614a80565b5f918252602090912082546004909202019081556001808301549082015560028083015490820155600391820154910180547fffffffffffffffffffffffff0000000000000000000000000000000000000000166001600160a01b0390921691909117905582548390806131c1576131c1614f12565b5f8281526020812060045f199093019283020181815560018101829055600281019190915560030180547fffffffffffffffffffffffff000000000000000000000000000000000000000016905590558354613227906001600160a01b03163383613cb5565b81546001830154604080519283526020830191909152879133918a917ffb7a49988665620b905f05162683830b560ef686cdd9a08461994023add09383910160405180910390a4505050503868929eee149b4bd2126855505050565b3068929eee149b4bd2126854036132a15763ab143c065f526004601cfd5b3068929eee149b4bd21268555f848152602081905260409020600281015460ff161561330f5760405162461bcd60e51b815260206004820152600f60248201527f4d61726b6574207265736f6c76656400000000000000000000000000000000006044820152606401610c4f565b600c81015484106133625760405162461bcd60e51b815260206004820152601160248201527f496e76616c696420676c61646961746f720000000000000000000000000000006044820152606401610c4f565b80600b015f82600c01868154811061337c5761337c614a80565b5f918252602080832090910154835282019290925260400190206003015460ff166133e95760405162461bcd60e51b815260206004820152601460248201527f476c61646961746f72206e6f74206163746976650000000000000000000000006044820152606401610c4f565b600183101580156133fc57506126ac8311155b6134485760405162461bcd60e51b815260206004820152600d60248201527f496e76616c6964207072696365000000000000000000000000000000000000006044820152606401610c4f565b670de0b6b3a76400008210156134a05760405162461bcd60e51b815260206004820152600f60248201527f4f7264657220746f6f20736d616c6c00000000000000000000000000000000006044820152606401610c4f565b5f6127106134ae8585614ec3565b6134b89190614eda565b82549091506134d2906001600160a01b0316333084613cfe565b600882015460ff161580156134eb575060098201544211155b156134fa576134fa8684613d56565b5f6135088787878733613e6f565b905080156135d0575f868152600f84016020908152604080832081516080810183528981528084018681528184018c81523360608401818152855460018082018855968a52888a209551600490910290950194855592519484019490945551600283015551600390910180547fffffffffffffffffffffffff0000000000000000000000000000000000000000166001600160a01b039092169190911790558352601186018252808320898452909152812080548392906135ca908490614aed565b90915550505b5f868152601284016020526040812080548692906135ef908490614aed565b90915550506040805186815260208101869052879133918a917f73d269ae9c85bfa23c18c756ce946fee3d4bd61627467b157781630dfd5795e0910160405180910390a45050503868929eee149b4bd212685550505050565b60076020525f9081526040902080546001820180546001600160a01b03909216929161367390614b00565b80601f016020809104026020016040519081016040528092919081815260200182805461369f90614b00565b80156136ea5780601f106136c1576101008083540402835291602001916136ea565b820191905f5260205f20905b8154815290600101906020018083116136cd57829003601f168201915b5050505050908060020180546136ff90614b00565b80601f016020809104026020016040519081016040528092919081815260200182805461372b90614b00565b80156137765780601f1061374d57610100808354040283529160200191613776565b820191905f5260205f20905b81548152906001019060200180831161375957829003601f168201915b5050506003909301549192505060ff1684565b3068929eee149b4bd2126854036137a75763ab143c065f526004601cfd5b3068929eee149b4bd21268555f818152602081905260409020600281015460ff166138145760405162461bcd60e51b815260206004820152600c60248201527f4e6f74207265736f6c76656400000000000000000000000000000000000000006044820152606401610c4f565b335f908152601182016020908152604080832060038501548452909152902054806138815760405162461bcd60e51b815260206004820152601160248201527f4e6f2077696e6e696e67207368617265730000000000000000000000000000006044820152606401610c4f565b335f81815260118401602090815260408083206003870154845290915281205582546138b9916001600160a01b039091169083613cb5565b604051818152339084907f374ddac058d6545dd0b061fc8e54f7834b2459d35e96ce508588dd9ab07c701d9060200160405180910390a350503868929eee149b4bd212685550565b613909613c1c565b63389a75e1600c52805f526020600c20805442111561392f57636f5e88185f526004601cfd5b5f905561113881613c5d565b613943613c1c565b8060601b61395857637448fbae5f526004601cfd5b61113881613c5d565b3068929eee149b4bd21268540361397f5763ab143c065f526004601cfd5b3068929eee149b4bd21268555f858152602081905260409020600281015460ff16156139ed5760405162461bcd60e51b815260206004820152600f60248201527f4d61726b6574207265736f6c76656400000000000000000000000000000000006044820152606401610c4f565b610118831115613a3f5760405162461bcd60e51b815260206004820152601460248201527f496e666f726d6174696f6e20746f6f206c6f6e670000000000000000000000006044820152606401610c4f565b600c8101548210613a925760405162461bcd60e51b815260206004820152601160248201527f496e76616c696420676c61646961746f720000000000000000000000000000006044820152606401610c4f565b8054670de0b6b3a764000090613ab3906001600160a01b0316333084613cfe565b816013015f8781526020019081526020015f206040518060a00160405280336001600160a01b0316815260200183815260200187878080601f0160208091040260200160405190810160405280939291908181526020018383808284375f920182905250938552505042602080850191909152604093840189905285546001808201885596845292819020855160059094020180547fffffffffffffffffffffffff0000000000000000000000000000000000000000166001600160a01b039094169390931783558401519482019490945590820151919250906002820190613b9c9082614bff565b5060608201518160030155608082015181600401555050336001600160a01b031686887f898f352b6903d147c261466937521f9fc156982fe81262a9f5789fffb135fb2f84898989604051613bf49493929190614f3f565b60405180910390a450503868929eee149b4bd21268555050505050565b61119582825f614157565b7fffffffffffffffffffffffffffffffffffffffffffffffffffffffff74873927543314611c9b576382b429005f526004601cfd5b61119582826001614157565b7fffffffffffffffffffffffffffffffffffffffffffffffffffffffff7487392780546001600160a01b039092169182907f8be0079c531659141344cd1fd0a4f28419497f9722a3daafe3b4186f6b6457e05f80a355565b81601452806034526fa9059cbb0000000000000000000000005f5260205f604460105f875af13d1560015f51141716613cf5576390b8ec185f526004601cfd5b5f603452505050565b60405181606052826040528360601b602c526f23b872dd000000000000000000000000600c5260205f6064601c5f895af13d1560015f51141716613d4957637939f4245f526004601cfd5b5f60605260405250505050565b5f82815260208190526040812060058101805491928492613d78908490614aed565b925050819055508181600a015f828254613d929190614aed565b9091555050600481015460058201546006830154613db09190614ec3565b613dba9190614eda565b6006820154613dc99190614aed565b60078201556004810154600582015410613e335760088101805460ff19166001179055600781015460405184917fd59d158c25ee8b470416983bd9b735fd1f2d73b20561bd761e46e293df2a425e91613e2a91428252602082015260400190565b60405180910390a25b604051828152339084907f66ddce4e4b04bcafc01fcc8947c22b8a3e37ef36f42c2fd2d71406f8b4b35c549060200160405180910390a3505050565b5f85815260208181526040808320878452600f8101909252822084835b825481108015613e9b57505f82115b1561414a575f838281548110613eb357613eb3614a80565b905f5260205f209060040201905088815f01541115613ed2575061414a565b5f81600101548410613ee8578160010154613eea565b835b6001600160a01b0389165f90815260118801602090815260408083208f8452909152812080549293508392909190613f23908490614aed565b909155505060038201546001600160a01b03165f90815260118701602090815260408083208e845290915281208054839290613f60908490614ada565b9250508190555080826001015f828254613f7a9190614ada565b90915550613f8a90508185614ada565b9350815f0154866010015f8d81526020019081526020015f2081905550816003015f9054906101000a90046001600160a01b03166001600160a01b0316886001600160a01b03168d7f834a5ca2fecc4c3bddb180e1bbb4f84a09d86c8d8aa07d8991bcca750005b0398e865f015486604051614019939291909283526020830191909152604082015260600190565b60405180910390a481600101545f03614135578454859061403c90600190614ada565b8154811061404c5761404c614a80565b905f5260205f20906004020185848154811061406a5761406a614a80565b5f918252602090912082546004909202019081556001808301549082015560028083015490820155600391820154910180547fffffffffffffffffffffffff0000000000000000000000000000000000000000166001600160a01b0390921691909117905584548590806140e0576140e0614f12565b5f8281526020812060045f199093019283020181815560018101829055600281019190915560030180547fffffffffffffffffffffffff00000000000000000000000000000000000000001690559055614143565b8261413f81614b51565b9350505b5050613e8c565b5098975050505050505050565b638b78c6d8600c52825f526020600c20805483811783614178575080841681185b80835580600c5160601c7f715ad5ce61fc9595c7b415289d59cf203f23a94fa06f04af7e489a0a76e1fe265f80a3505050505050565b828054828255905f5260205f209081019282156141e7579160200282015b828111156141e75782518255916020019190600101906141cc565b506141f39291506141f7565b5090565b5b808211156141f3575f81556001016141f8565b5f806040838503121561421c575f80fd5b50508035926020909101359150565b6001600160a01b0381168114611138575f80fd5b5f8060408385031215614250575f80fd5b8235915060208301356142628161422b565b809150509250929050565b5f815180845260208085019450602084015f5b8381101561429c57815187529582019590820190600101614280565b509495945050505050565b602081525f6142b9602083018461426d565b9392505050565b604081525f6142d2604083018561426d565b90508260208301529392505050565b602080825282518282018190525f919060409081850190868401855b8281101561434057815180518552868101518786015285810151868601526060908101516001600160a01b031690850152608090930192908501906001016142fd565b5091979650505050505050565b5f6020828403121561435d575f80fd5b5035919050565b5f8060408385031215614375575f80fd5b82356143808161422b565b946020939093013593505050565b5f6020828403121561439e575f80fd5b81356142b98161422b565b5f81518084525f5b818110156143cd576020818501810151868301820152016143b1565b505f602082860101526020601f19601f83011685010191505092915050565b5f60208083018184528085518083526040925060408601915060408160051b8701018488015f5b838110156144a3577fffffffffffffffffffffffffffffffffffffffffffffffffffffffffffffffc0898403018552815160806001600160a01b03825116855288820151818a870152614468828701826143a9565b915050878201518582038987015261448082826143a9565b606093840151151596909301959095525094870194925090860190600101614413565b509098975050505050505050565b5f815180845260208085019450602084015f5b8381101561429c5781516001600160a01b0316875295820195908201906001016144c4565b606081525f6144fb606083018661426d565b828103602084015261450d818661426d565b9050828103604084015261452181856144b1565b9695505050505050565b7f4e487b71000000000000000000000000000000000000000000000000000000005f52604160045260245ffd5b5f82601f830112614567575f80fd5b813567ffffffffffffffff808211156145825761458261452b565b604051601f8301601f19908116603f011681019082821181831017156145aa576145aa61452b565b816040528381528660208588010111156145c2575f80fd5b836020870160208301375f602085830101528094505050505092915050565b5f805f606084860312156145f3575f80fd5b833567ffffffffffffffff8082111561460a575f80fd5b61461687838801614558565b9450602086013591508082111561462b575f80fd5b61463787838801614558565b9350604086013591508082111561464c575f80fd5b5061465986828701614558565b9150509250925092565b5f805f60608486031215614675575f80fd5b8335925060208401356146878161422b565b929592945050506040919091013590565b5f805f805f8060c087890312156146ad575f80fd5b86356146b88161422b565b95506020870135945060408701356146cf8161422b565b959894975094956060810135955060808101359460a0909101359350915050565b5f8282518085526020808601955060208260051b840101602086015f5b8481101561473b57601f198684030189526147298383516143a9565b9884019892509083019060010161470d565b5090979650505050505050565b60a081525f61475a60a08301886144b1565b828103602084015261476c818861426d565b9050828103604084015261478081876146f0565b90508281036060840152614794818661426d565b905082810360808401526147a8818561426d565b98975050505050505050565b604081525f6147c6604083018561426d565b82810360208401526147d8818561426d565b95945050505050565b6001600160a01b038716815260208101869052841515604082015260608101849052610160810161484c60808301858051825260208101516020830152604081015160408301526060810151606083015260808101511515608083015260a081015160a08301525050565b82610140830152979650505050505050565b6001600160a01b03898116825260208201899052871515604083015286166060820152608081018590526101a081016148d160a08301868051825260208101516020830152604081015160408301526060810151606083015260808101511515608083015260a081015160a08301525050565b61016082019390935261018001529695505050505050565b5f805f604084860312156148fb575f80fd5b83359250602084013567ffffffffffffffff80821115614919575f80fd5b818601915086601f83011261492c575f80fd5b81358181111561493a575f80fd5b8760208260051b850101111561494e575f80fd5b6020830194508093505050509250925092565b5f805f60608486031215614973575f80fd5b505081359360208301359350604090920135919050565b5f805f806080858703121561499d575f80fd5b5050823594602084013594506040840135936060013592509050565b6001600160a01b0385168152608060208201525f6149da60808301866143a9565b82810360408401526149ec81866143a9565b915050821515606083015295945050505050565b5f805f805f60808688031215614a14575f80fd5b8535945060208601359350604086013567ffffffffffffffff80821115614a39575f80fd5b818801915088601f830112614a4c575f80fd5b813581811115614a5a575f80fd5b896020828501011115614a6b575f80fd5b96999598505060200195606001359392505050565b7f4e487b71000000000000000000000000000000000000000000000000000000005f52603260045260245ffd5b7f4e487b71000000000000000000000000000000000000000000000000000000005f52601160045260245ffd5b81810381811115610caf57610caf614aad565b80820180821115610caf57610caf614aad565b600181811c90821680614b1457607f821691505b602082108103614b4b577f4e487b71000000000000000000000000000000000000000000000000000000005f52602260045260245ffd5b50919050565b5f5f198203614b6257614b62614aad565b5060010190565b6001600160a01b0384168152606060208201525f614b8a60608301856143a9565b828103604084015261452181856143a9565b5f60208284031215614bac575f80fd5b5051919050565b601f821115614bfa57805f5260205f20601f840160051c81016020851015614bd85750805b601f840160051c820191505b81811015614bf7575f8155600101614be4565b50505b505050565b815167ffffffffffffffff811115614c1957614c1961452b565b614c2d81614c278454614b00565b84614bb3565b602080601f831160018114614c60575f8415614c495750858301515b5f19600386901b1c1916600185901b178555614cb7565b5f85815260208120601f198616915b82811015614c8e57888601518255948401946001909101908401614c6f565b5085821015614cab57878501515f19600388901b60f8161c191681555b505060018460011b0185555b505050505050565b602081525f6142b960208301846143a9565b5f60208284031215614ce1575f80fd5b81516142b98161422b565b818103614cf7575050565b614d018254614b00565b67ffffffffffffffff811115614d1957614d1961452b565b614d2781614c278454614b00565b5f601f821160018114614d58575f8315614d415750848201545b5f19600385901b1c1916600184901b178455614bf7565b5f8581526020808220868352908220601f198616925b83811015614d8e5782860154825560019586019590910190602001614d6e565b5085831015614dab57818501545f19600388901b60f8161c191681555b5050505050600190811b01905550565b5f60208083525f8454614dcd81614b00565b806020870152604060018084165f8114614dee5760018114614e0a57614e37565b60ff19851660408a0152604084151560051b8a01019550614e37565b895f5260205f205f5b85811015614e2e5781548b8201860152908301908801614e13565b8a016040019650505b509398975050505050505050565b6001600160a01b0383168152604060208201525f614e6660408301846146f0565b949350505050565b604081528260408201525f7f07ffffffffffffffffffffffffffffffffffffffffffffffffffffffffffffff841115614ea5575f80fd5b8360051b808660608501376020830193909352500160600192915050565b8082028115828204841417610caf57610caf614aad565b5f82614f0d577f4e487b71000000000000000000000000000000000000000000000000000000005f52601260045260245ffd5b500490565b7f4e487b71000000000000000000000000000000000000000000000000000000005f52603160045260245ffd5b84815260606020820152826060820152828460808301375f608084830101525f6080601f19601f86011683010190508260408301529594505050505056","linkReferences":{}},"methodIdentifiers":{"BASIS_POINTS()":"e1f1c4a7","MAX_PRICE()":"01c11d96","MIN_ORDER_SIZE()":"d3f82d8e","MIN_PRICE()":"ad9f20a6","cancelOrder(uint256,uint256,uint256)":"ceb436e9","cancelOwnershipHandover()":"54d1f13d","completeOwnershipHandover(address)":"f04e283e","createMarket(address,uint256,address,uint256,uint256,uint256)":"95f2d6ef","debateIdToMarketId(uint256)":"a84fb561","getBondingCurveDetails(uint256)":"a9c4e49c","getBribesForRound(uint256,uint256)":"9ebe5115","getCurrentPrice(uint256,uint256)":"04673368","getCurrentRound(uint256)":"148b02c5","getGladiatorScores(uint256,uint256)":"29ac3694","getGladiatorTokenIds(uint256)":"3e02c503","getGladiators(uint256)":"3da099c5","getLeaderboard(uint256)":"a34b46fe","getMarketDetails(uint256)":"b06c1ba3","getMarketPrices(uint256)":"85b91d8e","getMarketVolumes(uint256)":"7af68f8f","getOrderBook(uint256,uint256)":"08bf2d0d","getOrderBookSummary(uint256,uint256)":"643e4b3d","getPosition(uint256,address,uint256)":"7fc1f800","getRoundStatus(uint256,uint256)":"0710c981","getRoundVerdict(uint256,uint256)":"0561695f","getTotalVolume(uint256)":"19cd5653","getUserPositions(uint256,address)":"04940406","gladiatorIdToTokenId(uint256)":"ee43987b","gladiatorNFT()":"1ff7855d","gladiatorVolumes(uint256,uint256)":"81d2d899","gladiators(uint256)":"edf764a3","grantRoles(address,uint256)":"1c10893f","hasAllRoles(address,uint256)":"1cd64df4","hasAnyRole(address,uint256)":"514e62fc","marketCount()":"ec979082","marketIdToDebateId(uint256)":"ebb0ee9c","markets(uint256)":"b1283e77","nominateGladiator(uint256,uint256)":"80ec4821","owner()":"8da5cb5b","ownershipHandoverExpiresAt(address)":"fee81cf4","placeLimitOrder(uint256,uint256,uint256,uint256)":"e15eecea","redeemWinningShares(uint256)":"efdd0811","registerGladiator(string,string,string)":"6627a138","renounceOwnership()":"715018a6","renounceRoles(uint256)":"183a4f6e","requestOwnershipHandover()":"25692962","resolveMarket(uint256,uint256)":"60557333","revokeRoles(address,uint256)":"4a4ee7b1","rolesOf(address)":"2de94807","startNewRound(uint256)":"4615102c","submitBribe(uint256,uint256,string,uint256)":"f64c6e12","submitVerdict(uint256,uint256[])":"b8599241","tokenIdToGladiatorId(uint256)":"25f28c86","transferOwnership(address)":"f2fde38b"},"id":31}