{"abi":[{"type":"constructor","inputs":[],"stateMutability":"nonpayable"},{"type":"function","name":"BASIS_POINTS","inputs":[],"outputs":[{"name":"","type":"uint256","internalType":"uint256"}],"stateMutability":"view"},{"type":"function","name":"MAX_PRICE","inputs":[],"outputs":[{"name":"","type":"uint256","internalType":"uint256"}],"stateMutability":"view"},{"type":"function","name":"MIN_ORDER_SIZE","inputs":[],"outputs":[{"name":"","type":"uint256","internalType":"uint256"}],"stateMutability":"view"},{"type":"function","name":"MIN_PRICE","inputs":[],"outputs":[{"name":"","type":"uint256","internalType":"uint256"}],"stateMutability":"view"},{"type":"function","name":"cancelOrder","inputs":[{"name":"marketId","type":"uint256","internalType":"uint256"},{"name":"outcomeIndex","type":"uint256","internalType":"uint256"},{"name":"orderId","type":"uint256","internalType":"uint256"}],"outputs":[],"stateMutability":"nonpayable"},{"type":"function","name":"cancelOwnershipHandover","inputs":[],"outputs":[],"stateMutability":"payable"},{"type":"function","name":"completeOwnershipHandover","inputs":[{"name":"pendingOwner","type":"address","internalType":"address"}],"outputs":[],"stateMutability":"payable"},{"type":"function","name":"createMarket","inputs":[{"name":"_token","type":"address","internalType":"address"},{"name":"_debateId","type":"uint256","internalType":"uint256"},{"name":"_outcomeNames","type":"string[]","internalType":"string[]"},{"name":"_bondingTarget","type":"uint256","internalType":"uint256"},{"name":"_bondingDuration","type":"uint256","internalType":"uint256"},{"name":"_basePrice","type":"uint256","internalType":"uint256"}],"outputs":[{"name":"marketId","type":"uint256","internalType":"uint256"}],"stateMutability":"nonpayable"},{"type":"function","name":"debateIdToMarketId","inputs":[{"name":"","type":"uint256","internalType":"uint256"}],"outputs":[{"name":"","type":"uint256","internalType":"uint256"}],"stateMutability":"view"},{"type":"function","name":"getCurrentPrice","inputs":[{"name":"marketId","type":"uint256","internalType":"uint256"},{"name":"outcomeIndex","type":"uint256","internalType":"uint256"}],"outputs":[{"name":"","type":"uint256","internalType":"uint256"}],"stateMutability":"view"},{"type":"function","name":"getMarketDetails","inputs":[{"name":"marketId","type":"uint256","internalType":"uint256"}],"outputs":[{"name":"token","type":"address","internalType":"address"},{"name":"debateId","type":"uint256","internalType":"uint256"},{"name":"resolved","type":"bool","internalType":"bool"},{"name":"winningOutcome","type":"uint256","internalType":"uint256"},{"name":"bondingCurve","type":"tuple","internalType":"struct MarketFactory.BondingCurve","components":[{"name":"target","type":"uint256","internalType":"uint256"},{"name":"current","type":"uint256","internalType":"uint256"},{"name":"basePrice","type":"uint256","internalType":"uint256"},{"name":"currentPrice","type":"uint256","internalType":"uint256"},{"name":"isFulfilled","type":"bool","internalType":"bool"},{"name":"endTime","type":"uint256","internalType":"uint256"}]},{"name":"totalBondingAmount","type":"uint256","internalType":"uint256"}],"stateMutability":"view"},{"type":"function","name":"getOrderBook","inputs":[{"name":"marketId","type":"uint256","internalType":"uint256"},{"name":"outcomeIndex","type":"uint256","internalType":"uint256"}],"outputs":[{"name":"","type":"tuple[]","internalType":"struct MarketFactory.Order[]","components":[{"name":"price","type":"uint256","internalType":"uint256"},{"name":"amount","type":"uint256","internalType":"uint256"},{"name":"outcomeIndex","type":"uint256","internalType":"uint256"},{"name":"owner","type":"address","internalType":"address"}]}],"stateMutability":"view"},{"type":"function","name":"getOutcomes","inputs":[{"name":"marketId","type":"uint256","internalType":"uint256"}],"outputs":[{"name":"","type":"tuple[]","internalType":"struct MarketFactory.Outcome[]","components":[{"name":"name","type":"string","internalType":"string"},{"name":"index","type":"uint256","internalType":"uint256"},{"name":"isValid","type":"bool","internalType":"bool"}]}],"stateMutability":"view"},{"type":"function","name":"getPosition","inputs":[{"name":"marketId","type":"uint256","internalType":"uint256"},{"name":"user","type":"address","internalType":"address"},{"name":"outcomeIndex","type":"uint256","internalType":"uint256"}],"outputs":[{"name":"","type":"uint256","internalType":"uint256"}],"stateMutability":"view"},{"type":"function","name":"grantRoles","inputs":[{"name":"user","type":"address","internalType":"address"},{"name":"roles","type":"uint256","internalType":"uint256"}],"outputs":[],"stateMutability":"payable"},{"type":"function","name":"hasAllRoles","inputs":[{"name":"user","type":"address","internalType":"address"},{"name":"roles","type":"uint256","internalType":"uint256"}],"outputs":[{"name":"","type":"bool","internalType":"bool"}],"stateMutability":"view"},{"type":"function","name":"hasAnyRole","inputs":[{"name":"user","type":"address","internalType":"address"},{"name":"roles","type":"uint256","internalType":"uint256"}],"outputs":[{"name":"","type":"bool","internalType":"bool"}],"stateMutability":"view"},{"type":"function","name":"marketCount","inputs":[],"outputs":[{"name":"","type":"uint256","internalType":"uint256"}],"stateMutability":"view"},{"type":"function","name":"marketIdToDebateId","inputs":[{"name":"","type":"uint256","internalType":"uint256"}],"outputs":[{"name":"","type":"uint256","internalType":"uint256"}],"stateMutability":"view"},{"type":"function","name":"markets","inputs":[{"name":"","type":"uint256","internalType":"uint256"}],"outputs":[{"name":"token","type":"address","internalType":"address"},{"name":"debateId","type":"uint256","internalType":"uint256"},{"name":"resolved","type":"bool","internalType":"bool"},{"name":"winningOutcome","type":"uint256","internalType":"uint256"},{"name":"bondingCurve","type":"tuple","internalType":"struct MarketFactory.BondingCurve","components":[{"name":"target","type":"uint256","internalType":"uint256"},{"name":"current","type":"uint256","internalType":"uint256"},{"name":"basePrice","type":"uint256","internalType":"uint256"},{"name":"currentPrice","type":"uint256","internalType":"uint256"},{"name":"isFulfilled","type":"bool","internalType":"bool"},{"name":"endTime","type":"uint256","internalType":"uint256"}]},{"name":"totalBondingAmount","type":"uint256","internalType":"uint256"}],"stateMutability":"view"},{"type":"function","name":"owner","inputs":[],"outputs":[{"name":"result","type":"address","internalType":"address"}],"stateMutability":"view"},{"type":"function","name":"ownershipHandoverExpiresAt","inputs":[{"name":"pendingOwner","type":"address","internalType":"address"}],"outputs":[{"name":"result","type":"uint256","internalType":"uint256"}],"stateMutability":"view"},{"type":"function","name":"placeLimitOrder","inputs":[{"name":"marketId","type":"uint256","internalType":"uint256"},{"name":"outcomeIndex","type":"uint256","internalType":"uint256"},{"name":"price","type":"uint256","internalType":"uint256"},{"name":"amount","type":"uint256","internalType":"uint256"}],"outputs":[],"stateMutability":"nonpayable"},{"type":"function","name":"redeemWinningShares","inputs":[{"name":"marketId","type":"uint256","internalType":"uint256"}],"outputs":[],"stateMutability":"nonpayable"},{"type":"function","name":"renounceOwnership","inputs":[],"outputs":[],"stateMutability":"payable"},{"type":"function","name":"renounceRoles","inputs":[{"name":"roles","type":"uint256","internalType":"uint256"}],"outputs":[],"stateMutability":"payable"},{"type":"function","name":"requestOwnershipHandover","inputs":[],"outputs":[],"stateMutability":"payable"},{"type":"function","name":"resolveMarket","inputs":[{"name":"marketId","type":"uint256","internalType":"uint256"},{"name":"_winningOutcome","type":"uint256","internalType":"uint256"}],"outputs":[],"stateMutability":"nonpayable"},{"type":"function","name":"revokeRoles","inputs":[{"name":"user","type":"address","internalType":"address"},{"name":"roles","type":"uint256","internalType":"uint256"}],"outputs":[],"stateMutability":"payable"},{"type":"function","name":"rolesOf","inputs":[{"name":"user","type":"address","internalType":"address"}],"outputs":[{"name":"roles","type":"uint256","internalType":"uint256"}],"stateMutability":"view"},{"type":"function","name":"transferOwnership","inputs":[{"name":"newOwner","type":"address","internalType":"address"}],"outputs":[],"stateMutability":"payable"},{"type":"event","name":"BondingComplete","inputs":[{"name":"marketId","type":"uint256","indexed":true,"internalType":"uint256"},{"name":"timestamp","type":"uint256","indexed":false,"internalType":"uint256"},{"name":"finalPrice","type":"uint256","indexed":false,"internalType":"uint256"}],"anonymous":false},{"type":"event","name":"BondingContribution","inputs":[{"name":"marketId","type":"uint256","indexed":true,"internalType":"uint256"},{"name":"contributor","type":"address","indexed":true,"internalType":"address"},{"name":"amount","type":"uint256","indexed":false,"internalType":"uint256"}],"anonymous":false},{"type":"event","name":"MarketCreated","inputs":[{"name":"marketId","type":"uint256","indexed":true,"internalType":"uint256"},{"name":"token","type":"address","indexed":false,"internalType":"address"},{"name":"debateId","type":"uint256","indexed":true,"internalType":"uint256"},{"name":"outcomeNames","type":"string[]","indexed":false,"internalType":"string[]"}],"anonymous":false},{"type":"event","name":"MarketResolved","inputs":[{"name":"marketId","type":"uint256","indexed":true,"internalType":"uint256"},{"name":"winningOutcomeIndex","type":"uint256","indexed":true,"internalType":"uint256"}],"anonymous":false},{"type":"event","name":"OrderCancelled","inputs":[{"name":"marketId","type":"uint256","indexed":true,"internalType":"uint256"},{"name":"trader","type":"address","indexed":true,"internalType":"address"},{"name":"outcomeIndex","type":"uint256","indexed":true,"internalType":"uint256"},{"name":"price","type":"uint256","indexed":false,"internalType":"uint256"},{"name":"amount","type":"uint256","indexed":false,"internalType":"uint256"}],"anonymous":false},{"type":"event","name":"OrderMatched","inputs":[{"name":"marketId","type":"uint256","indexed":true,"internalType":"uint256"},{"name":"buyer","type":"address","indexed":true,"internalType":"address"},{"name":"seller","type":"address","indexed":true,"internalType":"address"},{"name":"outcomeIndex","type":"uint256","indexed":false,"internalType":"uint256"},{"name":"price","type":"uint256","indexed":false,"internalType":"uint256"},{"name":"amount","type":"uint256","indexed":false,"internalType":"uint256"}],"anonymous":false},{"type":"event","name":"OrderPlaced","inputs":[{"name":"marketId","type":"uint256","indexed":true,"internalType":"uint256"},{"name":"trader","type":"address","indexed":true,"internalType":"address"},{"name":"outcomeIndex","type":"uint256","indexed":true,"internalType":"uint256"},{"name":"price","type":"uint256","indexed":false,"internalType":"uint256"},{"name":"amount","type":"uint256","indexed":false,"internalType":"uint256"}],"anonymous":false},{"type":"event","name":"OutcomeAdded","inputs":[{"name":"marketId","type":"uint256","indexed":true,"internalType":"uint256"},{"name":"index","type":"uint256","indexed":true,"internalType":"uint256"},{"name":"name","type":"string","indexed":false,"internalType":"string"}],"anonymous":false},{"type":"event","name":"OwnershipHandoverCanceled","inputs":[{"name":"pendingOwner","type":"address","indexed":true,"internalType":"address"}],"anonymous":false},{"type":"event","name":"OwnershipHandoverRequested","inputs":[{"name":"pendingOwner","type":"address","indexed":true,"internalType":"address"}],"anonymous":false},{"type":"event","name":"OwnershipTransferred","inputs":[{"name":"oldOwner","type":"address","indexed":true,"internalType":"address"},{"name":"newOwner","type":"address","indexed":true,"internalType":"address"}],"anonymous":false},{"type":"event","name":"RolesUpdated","inputs":[{"name":"user","type":"address","indexed":true,"internalType":"address"},{"name":"roles","type":"uint256","indexed":true,"internalType":"uint256"}],"anonymous":false},{"type":"event","name":"SharesRedeemed","inputs":[{"name":"marketId","type":"uint256","indexed":true,"internalType":"uint256"},{"name":"trader","type":"address","indexed":true,"internalType":"address"},{"name":"amount","type":"uint256","indexed":false,"internalType":"uint256"}],"anonymous":false},{"type":"error","name":"AlreadyInitialized","inputs":[]},{"type":"error","name":"NewOwnerIsZeroAddress","inputs":[]},{"type":"error","name":"NoHandoverRequest","inputs":[]},{"type":"error","name":"Reentrancy","inputs":[]},{"type":"error","name":"Unauthorized","inputs":[]}],"bytecode":{"object":"0x6080604052348015600e575f80fd5b50601633601a565b6055565b6001600160a01b0316638b78c6d819819055805f7f8be0079c531659141344cd1fd0a4f28419497f9722a3daafe3b4186f6b6457e08180a350565b61292a806100625f395ff3fe6080604052600436106101d0575f3560e01c80639e73721b116100fd578063e15eecea11610092578063efdd081111610062578063efdd081114610660578063f04e283e1461067f578063f2fde38b14610692578063fee81cf4146106a5575f80fd5b8063e15eecea146105ec578063e1f1c4a71461060b578063ebb0ee9c14610620578063ec9790821461064b575f80fd5b8063b06c1ba3116100cd578063b06c1ba314610460578063b1283e7714610504578063ceb436e9146105b2578063d3f82d8e146105d1575f80fd5b80639e73721b146103d6578063a84fb56114610402578063ad9f20a61461042d578063af42cfed14610441575f80fd5b80632de94807116101735780636055733311610143578063605573331461033d578063715018a61461035c5780637fc1f800146103645780638da5cb5b14610383575f80fd5b80632de94807146102bc5780634a4ee7b1146102ed578063514e62fc1461030057806354d1f13d14610335575f80fd5b8063183a4f6e116101ae578063183a4f6e146102475780631c10893f1461025c5780631cd64df41461026f57806325692962146102b4575f80fd5b806301c11d96146101d457806304673368146101fc57806308bf2d0d1461021b575b5f80fd5b3480156101df575f80fd5b506101e96126ac81565b6040519081526020015b60405180910390f35b348015610207575f80fd5b506101e96102163660046120f6565b6106d6565b348015610226575f80fd5b5061023a6102353660046120f6565b610798565b6040516101f39190612116565b61025a61025536600461218f565b61089c565b005b61025a61026a3660046121ce565b6108a9565b34801561027a575f80fd5b506102a46102893660046121ce565b638b78c6d8600c9081525f9290925260209091205481161490565b60405190151581526020016101f3565b61025a6108bf565b3480156102c7575f80fd5b506101e96102d63660046121f6565b638b78c6d8600c9081525f91909152602090205490565b61025a6102fb3660046121ce565b61090c565b34801561030b575f80fd5b506102a461031a3660046121ce565b638b78c6d8600c9081525f9290925260209091205416151590565b61025a61091e565b348015610348575f80fd5b5061025a6103573660046120f6565b610957565b61025a610af0565b34801561036f575f80fd5b506101e961037e366004612216565b610b03565b34801561038e575f80fd5b507fffffffffffffffffffffffffffffffffffffffffffffffffffffffff748739275460405173ffffffffffffffffffffffffffffffffffffffff90911681526020016101f3565b3480156103e1575f80fd5b506103f56103f036600461218f565b610b9f565b6040516101f391906122a9565b34801561040d575f80fd5b506101e961041c36600461218f565b60016020525f908152604090205481565b348015610438575f80fd5b506101e9600181565b34801561044c575f80fd5b506101e961045b3660046123c6565b610cb6565b34801561046b575f80fd5b5061047f61047a36600461218f565b6110ef565b6040805173ffffffffffffffffffffffffffffffffffffffff90971687526020808801969096529315158685015260608087019390935281516080808801919091529482015160a0808801919091529382015160c08701529181015160e0860152928301511515610100850152910151610120830152610140820152610160016101f3565b34801561050f575f80fd5b5061047f61051e36600461218f565b5f60208181529181526040908190208054600182015460028301546003840154855160c0810187526004860154815260058601549781019790975260068501549587019590955260078401546060870152600884015460ff90811615156080880152600985015460a0880152600a9094015473ffffffffffffffffffffffffffffffffffffffff9093169591949316929186565b3480156105bd575f80fd5b5061025a6105cc366004612536565b6111c2565b3480156105dc575f80fd5b506101e9670de0b6b3a764000081565b3480156105f7575f80fd5b5061025a61060636600461255f565b61150d565b348015610616575f80fd5b506101e961271081565b34801561062b575f80fd5b506101e961063a36600461218f565b60026020525f908152604090205481565b348015610656575f80fd5b506101e960035481565b34801561066b575f80fd5b5061025a61067a36600461218f565b6118dc565b61025a61068d3660046121f6565b611a61565b61025a6106a03660046121f6565b611a9b565b3480156106b0575f80fd5b506101e96106bf3660046121f6565b63389a75e1600c9081525f91909152602090205490565b5f828152602081905260408120600b810154831061073b5760405162461bcd60e51b815260206004820152600f60248201527f496e76616c6964206f7574636f6d65000000000000000000000000000000000060448201526064015b60405180910390fd5b5f838152600c820160205260408120805490910361076c57505f838152600d90910160205260409020549050610792565b805f8154811061077e5761077e61258e565b905f5260205f2090600402015f0154925050505b92915050565b5f828152602081905260409020600b8101546060919083106107fc5760405162461bcd60e51b815260206004820152600f60248201527f496e76616c6964206f7574636f6d6500000000000000000000000000000000006044820152606401610732565b5f838152600c82016020908152604080832080548251818502810185019093528083529193909284015b8282101561088f575f848152602090819020604080516080810182526004860290920180548352600180820154848601526002820154928401929092526003015473ffffffffffffffffffffffffffffffffffffffff1660608301529083529092019101610826565b5050505091505092915050565b6108a63382611ac1565b50565b6108b1611acc565b6108bb8282611b01565b5050565b5f6202a30067ffffffffffffffff164201905063389a75e1600c52335f52806020600c2055337fdbf36a107da19e49527a7176a1babf963b4b0ff8cde35ee35d6cd8f1f9ac7e1d5f80a250565b610914611acc565b6108bb8282611ac1565b63389a75e1600c52335f525f6020600c2055337ffa7b8eab7da67f412cc9575ed43464468f9bfbae89d1675917346ca6d8fe3c925f80a2565b61095f611acc565b5f828152602081905260409020600281015460ff16156109c15760405162461bcd60e51b815260206004820152601060248201527f416c7265616479207265736f6c766564000000000000000000000000000000006044820152606401610732565b600b8101548210610a145760405162461bcd60e51b815260206004820152600f60248201527f496e76616c6964206f7574636f6d6500000000000000000000000000000000006044820152606401610732565b80600b018281548110610a2957610a2961258e565b5f91825260209091206002600390920201015460ff16610a8b5760405162461bcd60e51b815260206004820152600f60248201527f496e76616c6964206f7574636f6d6500000000000000000000000000000000006044820152606401610732565b6002810180547fffffffffffffffffffffffffffffffffffffffffffffffffffffffffffffff0016600117905560038101829055604051829084907f6dfc24f0f2fb42e49fb4fa3ffa8abb148cab908a1fb8335b3f128a08b2594af1905f90a3505050565b610af8611acc565b610b015f611b0d565b565b5f838152602081905260408120600b8101548310610b635760405162461bcd60e51b815260206004820152600f60248201527f496e76616c6964206f7574636f6d6500000000000000000000000000000000006044820152606401610732565b73ffffffffffffffffffffffffffffffffffffffff84165f908152600e9091016020908152604080832085845290915290205490509392505050565b5f81815260208181526040808320600b01805482518185028101850190935280835260609492939192909184015b82821015610cab578382905f5260205f2090600302016040518060600160405290815f82018054610bfd906125bb565b80601f0160208091040260200160405190810160405280929190818152602001828054610c29906125bb565b8015610c745780601f10610c4b57610100808354040283529160200191610c74565b820191905f5260205f20905b815481529060010190602001808311610c5757829003601f168201915b505050918352505060018281015460208084019190915260029093015460ff16151560409092019190915291835292019101610bcd565b505050509050919050565b5f73ffffffffffffffffffffffffffffffffffffffff8716610d1a5760405162461bcd60e51b815260206004820152600d60248201527f496e76616c696420746f6b656e000000000000000000000000000000000000006044820152606401610732565b5f8681526001602052604090205415610d755760405162461bcd60e51b815260206004820152600d60248201527f4d61726b657420657869737473000000000000000000000000000000000000006044820152606401610732565b6001855111610dc65760405162461bcd60e51b815260206004820152601660248201527f4e656564206d756c7469706c65206f7574636f6d6573000000000000000000006044820152606401610732565b5f8411610e155760405162461bcd60e51b815260206004820152601660248201527f496e76616c696420626f6e64696e6720746172676574000000000000000000006044820152606401610732565b5f8311610e645760405162461bcd60e51b815260206004820152601860248201527f496e76616c696420626f6e64696e67206475726174696f6e00000000000000006044820152606401610732565b60038054905f610e7383612639565b909155505f8181526020818152604080832080547fffffffffffffffffffffffff00000000000000000000000000000000000000001673ffffffffffffffffffffffffffffffffffffffff8d16178155600181018b90556002810180547fffffffffffffffffffffffffffffffffffffffffffffffffffffffffffffff00169055815160c0810183528981529283018490529082018690526060820186905260808201929092529192509060a08101610f2c8642612670565b90528051600483015560208101516005830155604081015160068301556060810151600783015560808101516008830180547fffffffffffffffffffffffffffffffffffffffffffffffffffffffffffffff001691151591909117905560a0015160098201555f5b86518110156110855781600b016040518060600160405280898481518110610fbe57610fbe61258e565b602090810291909101810151825281810185905260016040909201829052835491820184555f9384529092208151919260030201908190610fff90826126cf565b50602082015181600101556040820151816002015f6101000a81548160ff021916908315150217905550505080837f13b320dbbda9468c124512288f63226d8154da6a3f8756dc29beb968e5671b448984815181106110605761106061258e565b602002602001015160405161107591906127eb565b60405180910390a3600101610f94565b505f87815260016020908152604080832085905584835260029091529081902088905551879083907fcb639a85040a8c82b5868e478676ef375c27147fae484f6c2e1851b0d2932b28906110dc908c908b906127fd565b60405180910390a3509695505050505050565b5f805f806111286040518060c001604052805f81526020015f81526020015f81526020015f81526020015f151581526020015f81525090565b5050505f928352505060208181526040918290208054600182015460028301546003840154600a850154875160c0810189526004870154815260058701549781019790975260068601549787019790975260078501546060870152600885015460ff9081161515608088015260099095015460a087015273ffffffffffffffffffffffffffffffffffffffff909316969195931693919290565b3068929eee149b4bd2126854036111e05763ab143c065f526004601cfd5b3068929eee149b4bd21268555f838152602081905260409020600b810154831061124c5760405162461bcd60e51b815260206004820152600f60248201527f496e76616c6964206f7574636f6d6500000000000000000000000000000000006044820152606401610732565b5f838152600c820160205260409020805483106112ab5760405162461bcd60e51b815260206004820152600d60248201527f496e76616c6964206f72646572000000000000000000000000000000000000006044820152606401610732565b5f8184815481106112be576112be61258e565b5f918252602090912060036004909202019081015490915073ffffffffffffffffffffffffffffffffffffffff16331461133a5760405162461bcd60e51b815260206004820152600960248201527f4e6f74206f776e657200000000000000000000000000000000000000000000006044820152606401610732565b5f612710825f01548360010154611351919061289b565b61135b91906128b2565b8354909150839061136e906001906128ea565b8154811061137e5761137e61258e565b905f5260205f20906004020183868154811061139c5761139c61258e565b5f918252602090912082546004909202019081556001808301549082015560028083015490820155600391820154910180547fffffffffffffffffffffffff00000000000000000000000000000000000000001673ffffffffffffffffffffffffffffffffffffffff909216919091179055825483908061141f5761141f6128fd565b5f8281526020812060047fffffffffffffffffffffffffffffffffffffffffffffffffffffffffffffffff9093019283020181815560018101829055600281019190915560030180547fffffffffffffffffffffffff0000000000000000000000000000000000000000169055905583546114b19073ffffffffffffffffffffffffffffffffffffffff163383611b72565b81546001830154604080519283526020830191909152879133918a917ffb7a49988665620b905f05162683830b560ef686cdd9a08461994023add09383910160405180910390a4505050503868929eee149b4bd2126855505050565b3068929eee149b4bd21268540361152b5763ab143c065f526004601cfd5b3068929eee149b4bd21268555f848152602081905260409020600281015460ff16156115995760405162461bcd60e51b815260206004820152600f60248201527f4d61726b6574207265736f6c76656400000000000000000000000000000000006044820152606401610732565b600b81015484106115ec5760405162461bcd60e51b815260206004820152600f60248201527f496e76616c6964206f7574636f6d6500000000000000000000000000000000006044820152606401610732565b80600b0184815481106116015761160161258e565b5f91825260209091206002600390920201015460ff166116635760405162461bcd60e51b815260206004820152600f60248201527f496e76616c6964206f7574636f6d6500000000000000000000000000000000006044820152606401610732565b6001831015801561167657506126ac8311155b6116c25760405162461bcd60e51b815260206004820152600d60248201527f496e76616c6964207072696365000000000000000000000000000000000000006044820152606401610732565b670de0b6b3a764000082101561171a5760405162461bcd60e51b815260206004820152600f60248201527f4f7264657220746f6f20736d616c6c00000000000000000000000000000000006044820152606401610732565b5f612710611728858561289b565b61173291906128b2565b82549091506117599073ffffffffffffffffffffffffffffffffffffffff16333084611bbb565b600882015460ff16158015611772575060098201544211155b15611781576117818684611c13565b5f61178f8787878733611d4a565b90508015611864575f868152600c84016020908152604080832081516080810183528981528084018681528184018c81523360608401818152855460018082018855968a52888a209551600490910290950194855592519484019490945551600283015551600390910180547fffffffffffffffffffffffff00000000000000000000000000000000000000001673ffffffffffffffffffffffffffffffffffffffff9092169190911790558352600e860182528083208984529091528120805483929061185e908490612670565b90915550505b5f868152600f8401602052604081208054869290611883908490612670565b90915550506040805186815260208101869052879133918a917f73d269ae9c85bfa23c18c756ce946fee3d4bd61627467b157781630dfd5795e0910160405180910390a45050503868929eee149b4bd212685550505050565b3068929eee149b4bd2126854036118fa5763ab143c065f526004601cfd5b3068929eee149b4bd21268555f818152602081905260409020600281015460ff166119675760405162461bcd60e51b815260206004820152600c60248201527f4e6f74207265736f6c76656400000000000000000000000000000000000000006044820152606401610732565b335f908152600e82016020908152604080832060038501548452909152902054806119d45760405162461bcd60e51b815260206004820152601160248201527f4e6f2077696e6e696e67207368617265730000000000000000000000000000006044820152606401610732565b335f818152600e840160209081526040808320600387015484529091528120558254611a199173ffffffffffffffffffffffffffffffffffffffff9091169083611b72565b604051818152339084907f374ddac058d6545dd0b061fc8e54f7834b2459d35e96ce508588dd9ab07c701d9060200160405180910390a350503868929eee149b4bd212685550565b611a69611acc565b63389a75e1600c52805f526020600c208054421115611a8f57636f5e88185f526004601cfd5b5f90556108a681611b0d565b611aa3611acc565b8060601b611ab857637448fbae5f526004601cfd5b6108a681611b0d565b6108bb82825f61209f565b7fffffffffffffffffffffffffffffffffffffffffffffffffffffffff74873927543314610b01576382b429005f526004601cfd5b6108bb8282600161209f565b7fffffffffffffffffffffffffffffffffffffffffffffffffffffffff74873927805473ffffffffffffffffffffffffffffffffffffffff9092169182907f8be0079c531659141344cd1fd0a4f28419497f9722a3daafe3b4186f6b6457e05f80a355565b81601452806034526fa9059cbb0000000000000000000000005f5260205f604460105f875af13d1560015f51141716611bb2576390b8ec185f526004601cfd5b5f603452505050565b60405181606052826040528360601b602c526f23b872dd000000000000000000000000600c5260205f6064601c5f895af13d1560015f51141716611c0657637939f4245f526004601cfd5b5f60605260405250505050565b5f82815260208190526040812060058101805491928492611c35908490612670565b925050819055508181600a015f828254611c4f9190612670565b9091555050600481015460058201546006830154611c6d919061289b565b611c7791906128b2565b6006820154611c869190612670565b60078201556004810154600582015410611d0e576008810180547fffffffffffffffffffffffffffffffffffffffffffffffffffffffffffffff00166001179055600781015460405184917fd59d158c25ee8b470416983bd9b735fd1f2d73b20561bd761e46e293df2a425e91611d0591428252602082015260400190565b60405180910390a25b604051828152339084907f66ddce4e4b04bcafc01fcc8947c22b8a3e37ef36f42c2fd2d71406f8b4b35c549060200160405180910390a3505050565b5f85815260208181526040808320878452600c8101909252822084835b825481108015611d7657505f82115b15612092575f838281548110611d8e57611d8e61258e565b905f5260205f209060040201905088815f01541115611dad5750612092565b5f81600101548410611dc3578160010154611dc5565b835b73ffffffffffffffffffffffffffffffffffffffff89165f908152600e8801602090815260408083208f8452909152812080549293508392909190611e0b908490612670565b9091555050600382015473ffffffffffffffffffffffffffffffffffffffff165f908152600e8701602090815260408083208e845290915281208054839290611e559084906128ea565b9250508190555080826001015f828254611e6f91906128ea565b90915550611e7f905081856128ea565b9350815f015486600d015f8d81526020019081526020015f2081905550816003015f9054906101000a900473ffffffffffffffffffffffffffffffffffffffff1673ffffffffffffffffffffffffffffffffffffffff168873ffffffffffffffffffffffffffffffffffffffff168d7f834a5ca2fecc4c3bddb180e1bbb4f84a09d86c8d8aa07d8991bcca750005b0398e865f015486604051611f35939291909283526020830191909152604082015260600190565b60405180910390a481600101545f0361207d5784548590611f58906001906128ea565b81548110611f6857611f6861258e565b905f5260205f209060040201858481548110611f8657611f8661258e565b5f918252602090912082546004909202019081556001808301549082015560028083015490820155600391820154910180547fffffffffffffffffffffffff00000000000000000000000000000000000000001673ffffffffffffffffffffffffffffffffffffffff9092169190911790558454859080612009576120096128fd565b5f8281526020812060047fffffffffffffffffffffffffffffffffffffffffffffffffffffffffffffffff9093019283020181815560018101829055600281019190915560030180547fffffffffffffffffffffffff0000000000000000000000000000000000000000169055905561208b565b8261208781612639565b9350505b5050611d67565b5098975050505050505050565b638b78c6d8600c52825f526020600c208054838117836120c0575080841681185b80835580600c5160601c7f715ad5ce61fc9595c7b415289d59cf203f23a94fa06f04af7e489a0a76e1fe265f80a3505050505050565b5f8060408385031215612107575f80fd5b50508035926020909101359150565b602080825282518282018190525f919060409081850190868401855b82811015612182578151805185528681015187860152858101518686015260609081015173ffffffffffffffffffffffffffffffffffffffff169085015260809093019290850190600101612132565b5091979650505050505050565b5f6020828403121561219f575f80fd5b5035919050565b803573ffffffffffffffffffffffffffffffffffffffff811681146121c9575f80fd5b919050565b5f80604083850312156121df575f80fd5b6121e8836121a6565b946020939093013593505050565b5f60208284031215612206575f80fd5b61220f826121a6565b9392505050565b5f805f60608486031215612228575f80fd5b83359250612238602085016121a6565b9150604084013590509250925092565b5f81518084525f5b8181101561226c57602081850181015186830182015201612250565b505f6020828601015260207fffffffffffffffffffffffffffffffffffffffffffffffffffffffffffffffe0601f83011685010191505092915050565b5f60208083018184528085518083526040925060408601915060408160051b8701018488015f5b8381101561233c577fffffffffffffffffffffffffffffffffffffffffffffffffffffffffffffffc089840301855281516060815181865261231482870182612248565b838b0151878c01529289015115159589019590955250948701949250908601906001016122d0565b509098975050505050505050565b7f4e487b71000000000000000000000000000000000000000000000000000000005f52604160045260245ffd5b604051601f82017fffffffffffffffffffffffffffffffffffffffffffffffffffffffffffffffe016810167ffffffffffffffff811182821017156123be576123be61234a565b604052919050565b5f805f805f8060c087890312156123db575f80fd5b6123e4876121a6565b95506020870135945067ffffffffffffffff8060408901351115612406575f80fd5b6040880135880189601f82011261241b575f80fd5b818135111561242c5761242c61234a565b61243c6020823560051b01612377565b81358082526020808301929160051b8401018c1015612459575f80fd5b602083015b6020843560051b85010181101561251157848135111561247c575f80fd5b803584018d603f82011261248e575f80fd5b6020810135868111156124a3576124a361234a565b6124d460207fffffffffffffffffffffffffffffffffffffffffffffffffffffffffffffffe0601f84011601612377565b8181528f60408385010111156124e8575f80fd5b816040840160208301375f6020838301015280865250505060208301925060208101905061245e565b50989b979a5097986060810135985060808101359760a0909101359650945050505050565b5f805f60608486031215612548575f80fd5b505081359360208301359350604090920135919050565b5f805f8060808587031215612572575f80fd5b5050823594602084013594506040840135936060013592509050565b7f4e487b71000000000000000000000000000000000000000000000000000000005f52603260045260245ffd5b600181811c908216806125cf57607f821691505b602082108103612606577f4e487b71000000000000000000000000000000000000000000000000000000005f52602260045260245ffd5b50919050565b7f4e487b71000000000000000000000000000000000000000000000000000000005f52601160045260245ffd5b5f7fffffffffffffffffffffffffffffffffffffffffffffffffffffffffffffffff82036126695761266961260c565b5060010190565b808201808211156107925761079261260c565b601f8211156126ca57805f5260205f20601f840160051c810160208510156126a85750805b601f840160051c820191505b818110156126c7575f81556001016126b4565b50505b505050565b815167ffffffffffffffff8111156126e9576126e961234a565b6126fd816126f784546125bb565b84612683565b602080601f83116001811461274f575f84156127195750858301515b7fffffffffffffffffffffffffffffffffffffffffffffffffffffffffffffffff600386901b1c1916600185901b1785556127e3565b5f858152602081207fffffffffffffffffffffffffffffffffffffffffffffffffffffffffffffffe08616915b8281101561279b5788860151825594840194600190910190840161277c565b50858210156127d757878501517fffffffffffffffffffffffffffffffffffffffffffffffffffffffffffffffff600388901b60f8161c191681555b505060018460011b0185555b505050505050565b602081525f61220f6020830184612248565b5f6040820173ffffffffffffffffffffffffffffffffffffffff8516835260206040602085015281855180845260608601915060608160051b8701019350602087015f5b8281101561288d577fffffffffffffffffffffffffffffffffffffffffffffffffffffffffffffffa088870301845261287b868351612248565b95509284019290840190600101612841565b509398975050505050505050565b80820281158282048414176107925761079261260c565b5f826128e5577f4e487b71000000000000000000000000000000000000000000000000000000005f52601260045260245ffd5b500490565b818103818111156107925761079261260c565b7f4e487b71000000000000000000000000000000000000000000000000000000005f52603160045260245ffd","linkReferences":{}},"methodIdentifiers":{"BASIS_POINTS()":"e1f1c4a7","MAX_PRICE()":"01c11d96","MIN_ORDER_SIZE()":"d3f82d8e","MIN_PRICE()":"ad9f20a6","cancelOrder(uint256,uint256,uint256)":"ceb436e9","cancelOwnershipHandover()":"54d1f13d","completeOwnershipHandover(address)":"f04e283e","createMarket(address,uint256,string[],uint256,uint256,uint256)":"af42cfed","debateIdToMarketId(uint256)":"a84fb561","getCurrentPrice(uint256,uint256)":"04673368","getMarketDetails(uint256)":"b06c1ba3","getOrderBook(uint256,uint256)":"08bf2d0d","getOutcomes(uint256)":"9e73721b","getPosition(uint256,address,uint256)":"7fc1f800","grantRoles(address,uint256)":"1c10893f","hasAllRoles(address,uint256)":"1cd64df4","hasAnyRole(address,uint256)":"514e62fc","marketCount()":"ec979082","marketIdToDebateId(uint256)":"ebb0ee9c","markets(uint256)":"b1283e77","owner()":"8da5cb5b","ownershipHandoverExpiresAt(address)":"fee81cf4","placeLimitOrder(uint256,uint256,uint256,uint256)":"e15eecea","redeemWinningShares(uint256)":"efdd0811","renounceOwnership()":"715018a6","renounceRoles(uint256)":"183a4f6e","requestOwnershipHandover()":"25692962","resolveMarket(uint256,uint256)":"60557333","revokeRoles(address,uint256)":"4a4ee7b1","rolesOf(address)":"2de94807","transferOwnership(address)":"f2fde38b"},"id":30}